{
  "_format": "hh-sol-artifact-1",
  "contractName": "MetaverseAssetManager",
  "sourceName": "contracts/MetaverseAssetManager.sol",
  "abi": [
    {
      "inputs": [
        {
          "internalType": "contract IVault",
          "name": "vault",
          "type": "address"
        },
        {
          "internalType": "contract IERC20",
          "name": "token",
          "type": "address"
        }
      ],
      "stateMutability": "nonpayable",
      "type": "constructor"
    },
    {
      "anonymous": false,
      "inputs": [
        {
          "indexed": false,
          "internalType": "uint64",
          "name": "targetPercentage",
          "type": "uint64"
        },
        {
          "indexed": false,
          "internalType": "uint64",
          "name": "lowerCriticalPercentage",
          "type": "uint64"
        },
        {
          "indexed": false,
          "internalType": "uint64",
          "name": "upperCriticalPercentage",
          "type": "uint64"
        }
      ],
      "name": "InvestmentConfigSet",
      "type": "event"
    },
    {
      "anonymous": false,
      "inputs": [
        {
          "indexed": false,
          "internalType": "bytes32",
          "name": "poolId",
          "type": "bytes32"
        }
      ],
      "name": "Rebalance",
      "type": "event"
    },
    {
      "inputs": [
        {
          "internalType": "bytes32",
          "name": "pId",
          "type": "bytes32"
        },
        {
          "internalType": "uint256",
          "name": "amount",
          "type": "uint256"
        }
      ],
      "name": "capitalOut",
      "outputs": [],
      "stateMutability": "nonpayable",
      "type": "function"
    },
    {
      "inputs": [],
      "name": "claimRewards",
      "outputs": [],
      "stateMutability": "nonpayable",
      "type": "function"
    },
    {
      "inputs": [
        {
          "internalType": "bytes32",
          "name": "pId",
          "type": "bytes32"
        }
      ],
      "name": "getAUM",
      "outputs": [
        {
          "internalType": "uint256",
          "name": "",
          "type": "uint256"
        }
      ],
      "stateMutability": "view",
      "type": "function"
    },
    {
      "inputs": [
        {
          "internalType": "bytes32",
          "name": "pId",
          "type": "bytes32"
        }
      ],
      "name": "getInvestmentConfig",
      "outputs": [
        {
          "components": [
            {
              "internalType": "uint64",
              "name": "targetPercentage",
              "type": "uint64"
            },
            {
              "internalType": "uint64",
              "name": "upperCriticalPercentage",
              "type": "uint64"
            },
            {
              "internalType": "uint64",
              "name": "lowerCriticalPercentage",
              "type": "uint64"
            }
          ],
          "internalType": "struct RewardsAssetManager.InvestmentConfig",
          "name": "",
          "type": "tuple"
        }
      ],
      "stateMutability": "view",
      "type": "function"
    },
    {
      "inputs": [],
      "name": "getPoolAddress",
      "outputs": [
        {
          "internalType": "address",
          "name": "",
          "type": "address"
        }
      ],
      "stateMutability": "view",
      "type": "function"
    },
    {
      "inputs": [
        {
          "internalType": "bytes32",
          "name": "pId",
          "type": "bytes32"
        }
      ],
      "name": "getPoolBalances",
      "outputs": [
        {
          "internalType": "uint256",
          "name": "poolCash",
          "type": "uint256"
        },
        {
          "internalType": "uint256",
          "name": "poolManaged",
          "type": "uint256"
        }
      ],
      "stateMutability": "view",
      "type": "function"
    },
    {
      "inputs": [],
      "name": "getPoolId",
      "outputs": [
        {
          "internalType": "bytes32",
          "name": "",
          "type": "bytes32"
        }
      ],
      "stateMutability": "view",
      "type": "function"
    },
    {
      "inputs": [],
      "name": "getToken",
      "outputs": [
        {
          "internalType": "contract IERC20",
          "name": "",
          "type": "address"
        }
      ],
      "stateMutability": "view",
      "type": "function"
    },
    {
      "inputs": [],
      "name": "getVault",
      "outputs": [
        {
          "internalType": "contract IVault",
          "name": "",
          "type": "address"
        }
      ],
      "stateMutability": "view",
      "type": "function"
    },
    {
      "inputs": [
        {
          "internalType": "bytes32",
          "name": "poolId",
          "type": "bytes32"
        },
        {
          "internalType": "address",
          "name": "rewardsDistributor",
          "type": "address"
        }
      ],
      "name": "initialize",
      "outputs": [],
      "stateMutability": "nonpayable",
      "type": "function"
    },
    {
      "inputs": [],
      "name": "isInitialized",
      "outputs": [
        {
          "internalType": "bool",
          "name": "",
          "type": "bool"
        }
      ],
      "stateMutability": "view",
      "type": "function"
    },
    {
      "inputs": [
        {
          "internalType": "bytes32",
          "name": "pId",
          "type": "bytes32"
        }
      ],
      "name": "maxInvestableBalance",
      "outputs": [
        {
          "internalType": "int256",
          "name": "",
          "type": "int256"
        }
      ],
      "stateMutability": "view",
      "type": "function"
    },
    {
      "inputs": [
        {
          "internalType": "bytes32",
          "name": "pId",
          "type": "bytes32"
        },
        {
          "internalType": "bool",
          "name": "force",
          "type": "bool"
        }
      ],
      "name": "rebalance",
      "outputs": [],
      "stateMutability": "nonpayable",
      "type": "function"
    },
    {
      "inputs": [
        {
          "internalType": "bytes32",
          "name": "pId",
          "type": "bytes32"
        },
        {
          "internalType": "bytes",
          "name": "rawConfig",
          "type": "bytes"
        }
      ],
      "name": "setConfig",
      "outputs": [],
      "stateMutability": "nonpayable",
      "type": "function"
    },
    {
      "inputs": [
        {
          "internalType": "uint256",
          "name": "cash",
          "type": "uint256"
        },
        {
          "internalType": "uint256",
          "name": "managed",
          "type": "uint256"
        }
      ],
      "name": "shouldRebalance",
      "outputs": [
        {
          "internalType": "bool",
          "name": "",
          "type": "bool"
        }
      ],
      "stateMutability": "view",
      "type": "function"
    },
    {
      "inputs": [
        {
          "internalType": "bytes32",
          "name": "pId",
          "type": "bytes32"
        }
      ],
      "name": "updateBalanceOfPool",
      "outputs": [],
      "stateMutability": "nonpayable",
      "type": "function"
    }
  ],
  "bytecode": "0x60c06040523480156200001157600080fd5b506040516200264f3803806200264f8339818101604052810190620000379190620001e2565b816000801b828073ffffffffffffffffffffffffffffffffffffffff1663095ea7b3847fffffffffffffffffffffffffffffffffffffffffffffffffffffffffffffffff6040518363ffffffff1660e01b81526004016200009a92919062000245565b602060405180830381600087803b158015620000b557600080fd5b505af1158015620000ca573d6000803e3d6000fd5b505050506040513d601f19601f82011682018060405250810190620000f09190620001b6565b508273ffffffffffffffffffffffffffffffffffffffff1660808173ffffffffffffffffffffffffffffffffffffffff1660601b81525050816000819055508073ffffffffffffffffffffffffffffffffffffffff1660a08173ffffffffffffffffffffffffffffffffffffffff1660601b81525050505050505062000332565b6000815190506200018281620002e4565b92915050565b6000815190506200019981620002fe565b92915050565b600081519050620001b08162000318565b92915050565b600060208284031215620001c957600080fd5b6000620001d98482850162000171565b91505092915050565b60008060408385031215620001f657600080fd5b600062000206858286016200019f565b9250506020620002198582860162000188565b9150509250929050565b6200022e8162000272565b82525050565b6200023f81620002da565b82525050565b60006040820190506200025c600083018562000223565b6200026b602083018462000234565b9392505050565b60006200027f82620002ba565b9050919050565b60008115159050919050565b60006200029f8262000272565b9050919050565b6000620002b38262000272565b9050919050565b600073ffffffffffffffffffffffffffffffffffffffff82169050919050565b6000819050919050565b620002ef8162000286565b8114620002fb57600080fd5b50565b620003098162000292565b81146200031557600080fd5b50565b6200032381620002a6565b81146200032f57600080fd5b50565b60805160601c60a05160601c6122f36200035c60003980610782525080610b0b52506122f36000f3fe608060405234801561001057600080fd5b50600436106101005760003560e01c80636910e334116100975780639c64ad30116100665780639c64ad3014610274578063dc99fc21146102a4578063ea748923146102d4578063f586c6d91461030457610100565b80636910e334146101d957806376bad529146101f5578063785e4ad8146102265780638d928af81461025657610100565b8063372500ab116100d3578063372500ab1461017757806338fff2d014610181578063392e53cd1461019f5780634c936d8a146101bd57610100565b80630b5ff6b91461010557806318e736d41461012157806321df0da71461013d5780632b13a5091461015b575b600080fd5b61011f600480360381019061011a9190611741565b610322565b005b61013b600480360381019061013691906117e2565b6104af565b005b61014561077e565b6040516101529190611e8d565b60405180910390f35b61017560048036038101906101709190611836565b6107a6565b005b61017f6108eb565b005b6101896108ed565b6040516101969190611e49565b60405180910390f35b6101a76108f6565b6040516101b49190611e2e565b60405180910390f35b6101d760048036038101906101d291906117a6565b61090b565b005b6101f360048036038101906101ee919061176a565b61099c565b005b61020f600480360381019061020a9190611741565b6109a9565b60405161021d929190612014565b60405180910390f35b610240600480360381019061023b9190611741565b610a0f565b60405161024d9190611fde565b60405180910390f35b61025e610b07565b60405161026b9190611ea8565b60405180910390f35b61028e600480360381019061028991906118c4565b610b2f565b60405161029b9190611e2e565b60405180910390f35b6102be60048036038101906102b99190611741565b610c53565b6040516102cb9190611ff9565b60405180910390f35b6102ee60048036038101906102e99190611741565b610caa565b6040516102fb9190611ec3565b60405180910390f35b61030c610d09565b6040516103199190611df1565b60405180910390f35b806000548114610367576040517f08c379a000000000000000000000000000000000000000000000000000000000815260040161035e90611f9e565b60405180910390fd5b6000610371610d1a565b905061037b61155a565b604051806080016040528060028081111561039257fe5b81526020018581526020016103a561077e565b73ffffffffffffffffffffffffffffffffffffffff1681526020018381525090506060600167ffffffffffffffff811180156103e057600080fd5b5060405190808252806020026020018201604052801561041a57816020015b61040761155a565b8152602001906001900390816103ff5790505b509050818160008151811061042b57fe5b602002602001018190525061043e610b07565b73ffffffffffffffffffffffffffffffffffffffff1663e6c46092826040518263ffffffff1660e01b81526004016104769190611e0c565b600060405180830381600087803b15801561049057600080fd5b505af11580156104a4573d6000803e3d6000fd5b505050505050505050565b8160005481146104f4576040517f08c379a00000000000000000000000000000000000000000000000000000000081526004016104eb90611f9e565b60405180910390fd5b6104fc610d09565b73ffffffffffffffffffffffffffffffffffffffff163373ffffffffffffffffffffffffffffffffffffffff1614610569576040517f08c379a000000000000000000000000000000000000000000000000000000000815260040161056090611f3e565b60405180910390fd5b6105716115a6565b82806020019051810190610585919061189b565b9050670de0b6b3a7640000816020015167ffffffffffffffff1611156105e0576040517f08c379a00000000000000000000000000000000000000000000000000000000081526004016105d790611fbe565b60405180910390fd5b806020015167ffffffffffffffff16816000015167ffffffffffffffff16111561063f576040517f08c379a000000000000000000000000000000000000000000000000000000000815260040161063690611f1e565b60405180910390fd5b806000015167ffffffffffffffff16816040015167ffffffffffffffff16111561069e576040517f08c379a000000000000000000000000000000000000000000000000000000000815260040161069590611f7e565b60405180910390fd5b80600160008201518160000160006101000a81548167ffffffffffffffff021916908367ffffffffffffffff16021790555060208201518160000160086101000a81548167ffffffffffffffff021916908367ffffffffffffffff16021790555060408201518160000160106101000a81548167ffffffffffffffff021916908367ffffffffffffffff1602179055509050507f9136958b838ab10ef4f57ddbd5342991e17e04de46da3d18b336828a21a7890e8160000151826040015183602001516040516107709392919061203d565b60405180910390a150505050565b60007f0000000000000000000000000000000000000000000000000000000000000000905090565b8160005481146107eb576040517f08c379a00000000000000000000000000000000000000000000000000000000081526004016107e290611f9e565b60405180910390fd5b6107f3610d09565b73ffffffffffffffffffffffffffffffffffffffff1663bdc503736040518163ffffffff1660e01b815260040160206040518083038186803b15801561083857600080fd5b505afa15801561084c573d6000803e3d6000fd5b505050506040513d601f19601f820116820180604052508101906108709190611872565b73ffffffffffffffffffffffffffffffffffffffff163373ffffffffffffffffffffffffffffffffffffffff16146108dd576040517f08c379a00000000000000000000000000000000000000000000000000000000081526004016108d490611efe565b60405180910390fd5b6108e682610d1f565b505050565b565b60008054905090565b60008060001b6109046108ed565b1415905090565b816000548114610950576040517f08c379a000000000000000000000000000000000000000000000000000000000815260040161094790611f9e565b60405180910390fd5b81156109645761095f83610ecf565b610997565b600080610977610972610d1a565b611027565b915091506109858282610b2f565b156109945761099385610ecf565b5b50505b505050565b6109a5826110d7565b5050565b6000808260005481146109f1576040517f08c379a00000000000000000000000000000000000000000000000000000000081526004016109e890611f9e565b60405180910390fd5b610a016109fc610d1a565b611027565b809350819450505050915091565b610a176115a6565b816000548114610a5c576040517f08c379a0000000000000000000000000000000000000000000000000000000008152600401610a5390611f9e565b60405180910390fd5b60016040518060600160405290816000820160009054906101000a900467ffffffffffffffff1667ffffffffffffffff1667ffffffffffffffff1681526020016000820160089054906101000a900467ffffffffffffffff1667ffffffffffffffff1667ffffffffffffffff1681526020016000820160109054906101000a900467ffffffffffffffff1667ffffffffffffffff1667ffffffffffffffff1681525050915050919050565b60007f0000000000000000000000000000000000000000000000000000000000000000905090565b600080610b71610b48848661116f90919063ffffffff16565b610b63670de0b6b3a76400008761118f90919063ffffffff16565b6111c290919063ffffffff16565b9050610b7b6115a6565b60016040518060600160405290816000820160009054906101000a900467ffffffffffffffff1667ffffffffffffffff1667ffffffffffffffff1681526020016000820160089054906101000a900467ffffffffffffffff1667ffffffffffffffff1667ffffffffffffffff1681526020016000820160109054906101000a900467ffffffffffffffff1667ffffffffffffffff1667ffffffffffffffff16815250509050806020015167ffffffffffffffff16821180610c495750806040015167ffffffffffffffff1682105b9250505092915050565b6000816000548114610c9a576040517f08c379a0000000000000000000000000000000000000000000000000000000008152600401610c9190611f9e565b60405180910390fd5b610ca2610d1a565b915050919050565b6000816000548114610cf1576040517f08c379a0000000000000000000000000000000000000000000000000000000008152600401610ce890611f9e565b60405180910390fd5b610d01610cfc610d1a565b6111e5565b915050919050565b6000606060005460001c901c905090565b600090565b6000610d29610d1a565b90506000610d3783836112d1565b90506060600267ffffffffffffffff81118015610d5357600080fd5b50604051908082528060200260200182016040528015610d8d57816020015b610d7a61155a565b815260200190600190039081610d725790505b5090506040518060800160405280600280811115610da757fe5b81526020016000548152602001610dbc61077e565b73ffffffffffffffffffffffffffffffffffffffff1681526020018481525081600081518110610de857fe5b6020026020010181905250604051806080016040528060016002811115610e0b57fe5b81526020016000548152602001610e2061077e565b73ffffffffffffffffffffffffffffffffffffffff1681526020018381525081600181518110610e4c57fe5b6020026020010181905250610e5f610b07565b73ffffffffffffffffffffffffffffffffffffffff1663e6c46092826040518263ffffffff1660e01b8152600401610e979190611e0c565b600060405180830381600087803b158015610eb157600080fd5b505af1158015610ec5573d6000803e3d6000fd5b5050505050505050565b6000610ed9610d1a565b9050600080610ee783611027565b91509150610ef36115a6565b60016040518060600160405290816000820160009054906101000a900467ffffffffffffffff1667ffffffffffffffff1667ffffffffffffffff1681526020016000820160089054906101000a900467ffffffffffffffff1667ffffffffffffffff1667ffffffffffffffff1681526020016000820160109054906101000a900467ffffffffffffffff1667ffffffffffffffff1667ffffffffffffffff168152505090506000610fb4838501836000015167ffffffffffffffff166112dc565b905082811115610fd45760008382039050610fce81611320565b50610fe6565b60008184039050610fe481610d1f565b505b7f37f8042257f6b4d65b9614deb7792e5b374db2fdcd1983bf8a1247a8a788af5c6000546040516110179190611e49565b60405180910390a1505050505050565b600080611032610b07565b73ffffffffffffffffffffffffffffffffffffffff1663b05f8e4860005461105861077e565b6040518363ffffffff1660e01b8152600401611075929190611e64565b60806040518083038186803b15801561108d57600080fd5b505afa1580156110a1573d6000803e3d6000fd5b505050506040513d601f19601f820116820180604052508101906110c59190611900565b90915090505080925050829050915091565b6110df6108f6565b1561111f576040517f08c379a000000000000000000000000000000000000000000000000000000000815260040161111690611ede565b60405180910390fd5b6000801b811415611165576040517f08c379a000000000000000000000000000000000000000000000000000000000815260040161115c90611f5e565b60405180910390fd5b8060008190555050565b60008082840190506111858482101560006114cc565b8091505092915050565b60008082840290506111b860008514806111b15750838583816111ae57fe5b04145b60036114cc565b8091505092915050565b60006111d3600083141560046114cc565b8183816111dc57fe5b04905092915050565b6000806111f0610b07565b73ffffffffffffffffffffffffffffffffffffffff1663b05f8e4860005461121661077e565b6040518363ffffffff1660e01b8152600401611233929190611e64565b60806040518083038186803b15801561124b57600080fd5b505afa15801561125f573d6000803e3d6000fd5b505050506040513d601f19601f820116820180604052508101906112839190611900565b5050509050826112c861129f858461116f90919063ffffffff16565b600160000160009054906101000a900467ffffffffffffffff1667ffffffffffffffff166112dc565b03915050919050565b600082905092915050565b600080828402905061130560008514806112fe5750838583816112fb57fe5b04145b60036114cc565b670de0b6b3a7640000818161131657fe5b0491505092915050565b600061132a610d1a565b90506060600267ffffffffffffffff8111801561134657600080fd5b5060405190808252806020026020018201604052801561138057816020015b61136d61155a565b8152602001906001900390816113655790505b509050604051806080016040528060028081111561139a57fe5b815260200160005481526020016113af61077e565b73ffffffffffffffffffffffffffffffffffffffff16815260200183815250816000815181106113db57fe5b60200260200101819052506040518060800160405280600060028111156113fe57fe5b8152602001600054815260200161141361077e565b73ffffffffffffffffffffffffffffffffffffffff168152602001848152508160018151811061143f57fe5b6020026020010181905250611452610b07565b73ffffffffffffffffffffffffffffffffffffffff1663e6c46092826040518263ffffffff1660e01b815260040161148a9190611e0c565b600060405180830381600087803b1580156114a457600080fd5b505af11580156114b8573d6000803e3d6000fd5b505050506114c683836114df565b50505050565b816114db576114da816114ea565b5b5050565b600082905092915050565b6030600a820601600a820491506030600a830601600a830492506030600a8406018060101b8260081b8401016642414c230000000160c81b7f08c379a000000000000000000000000000000000000000000000000000000000600052602060045260076024528060445260646000fd5b60405180608001604052806000600281111561157257fe5b815260200160008019168152602001600073ffffffffffffffffffffffffffffffffffffffff168152602001600081525090565b6040518060600160405280600067ffffffffffffffff168152602001600067ffffffffffffffff168152602001600067ffffffffffffffff1681525090565b6000813590506115f481612233565b92915050565b60008151905061160981612233565b92915050565b60008135905061161e8161224a565b92915050565b60008135905061163381612261565b92915050565b600082601f83011261164a57600080fd5b813561165d611658826120a5565b612074565b9150808252602083016020830185838301111561167957600080fd5b61168483828461220e565b50505092915050565b60008151905061169c81612278565b92915050565b6000606082840312156116b457600080fd5b6116be6060612074565b905060006116ce8482850161172c565b60008301525060206116e28482850161172c565b60208301525060406116f68482850161172c565b60408301525092915050565b6000813590506117118161228f565b92915050565b6000815190506117268161228f565b92915050565b60008151905061173b816122a6565b92915050565b60006020828403121561175357600080fd5b600061176184828501611624565b91505092915050565b6000806040838503121561177d57600080fd5b600061178b85828601611624565b925050602061179c858286016115e5565b9150509250929050565b600080604083850312156117b957600080fd5b60006117c785828601611624565b92505060206117d88582860161160f565b9150509250929050565b600080604083850312156117f557600080fd5b600061180385828601611624565b925050602083013567ffffffffffffffff81111561182057600080fd5b61182c85828601611639565b9150509250929050565b6000806040838503121561184957600080fd5b600061185785828601611624565b925050602061186885828601611702565b9150509250929050565b60006020828403121561188457600080fd5b60006118928482850161168d565b91505092915050565b6000606082840312156118ad57600080fd5b60006118bb848285016116a2565b91505092915050565b600080604083850312156118d757600080fd5b60006118e585828601611702565b92505060206118f685828601611702565b9150509250929050565b6000806000806080858703121561191657600080fd5b600061192487828801611717565b945050602061193587828801611717565b935050604061194687828801611717565b9250506060611957878288016115fa565b91505092959194509250565b600061196f8383611d60565b60808301905092915050565b6119848161211f565b82525050565b6000611995826120e5565b61199f81856120fd565b93506119aa836120d5565b8060005b838110156119db5781516119c28882611963565b97506119cd836120f0565b9250506001810190506119ae565b5085935050505092915050565b6119f181612131565b82525050565b611a008161213d565b82525050565b611a0f8161213d565b82525050565b611a1e816121b4565b82525050565b611a2d816121b4565b82525050565b611a3c816121d8565b82525050565b611a4b816121fc565b82525050565b611a5a8161216c565b82525050565b6000611a6d60138361210e565b91507f416c726561647920696e697469616c69736564000000000000000000000000006000830152602082019050919050565b6000611aad60268361210e565b91507f4f6e6c792063616c6c61626c6520627920617574686f72697a6564207265626160008301527f6c616e63657200000000000000000000000000000000000000000000000000006020830152604082019050919050565b6000611b1360398361210e565b91507f546172676574206d757374206265206c657373207468616e206f72206571756160008301527f6c20746f20757070657220637269746963616c206c6576656c000000000000006020830152604082019050919050565b6000611b7960158361210e565b91507f4f6e6c792063616c6c61626c6520627920706f6f6c00000000000000000000006000830152602082019050919050565b6000611bb960178361210e565b91507f506f6f6c2069642063616e6e6f7420626520656d7074790000000000000000006000830152602082019050919050565b6000611bf960398361210e565b91507f4c6f77657220637269746963616c206c6576656c206d757374206265206c657360008301527f73207468616e206f7220657175616c20746f20746172676574000000000000006020830152604082019050919050565b6000611c5f60338361210e565b91507f53696e676c65506f6f6c41737365744d616e616765722063616c6c656420776960008301527f746820696e636f727265637420706f6f6c4964000000000000000000000000006020830152604082019050919050565b6000611cc560378361210e565b91507f557070657220637269746963616c206c6576656c206d757374206265206c657360008301527f73207468616e206f7220657175616c20746f20313030250000000000000000006020830152604082019050919050565b606082016000820151611d346000850182611dd3565b506020820151611d476020850182611dd3565b506040820151611d5a6040850182611dd3565b50505050565b608082016000820151611d766000850182611a42565b506020820151611d8960208501826119f7565b506040820151611d9c6040850182611a15565b506060820151611daf6060850182611db5565b50505050565b611dbe81612196565b82525050565b611dcd81612196565b82525050565b611ddc816121a0565b82525050565b611deb816121a0565b82525050565b6000602082019050611e06600083018461197b565b92915050565b60006020820190508181036000830152611e26818461198a565b905092915050565b6000602082019050611e4360008301846119e8565b92915050565b6000602082019050611e5e6000830184611a06565b92915050565b6000604082019050611e796000830185611a06565b611e866020830184611a24565b9392505050565b6000602082019050611ea26000830184611a24565b92915050565b6000602082019050611ebd6000830184611a33565b92915050565b6000602082019050611ed86000830184611a51565b92915050565b60006020820190508181036000830152611ef781611a60565b9050919050565b60006020820190508181036000830152611f1781611aa0565b9050919050565b60006020820190508181036000830152611f3781611b06565b9050919050565b60006020820190508181036000830152611f5781611b6c565b9050919050565b60006020820190508181036000830152611f7781611bac565b9050919050565b60006020820190508181036000830152611f9781611bec565b9050919050565b60006020820190508181036000830152611fb781611c52565b9050919050565b60006020820190508181036000830152611fd781611cb8565b9050919050565b6000606082019050611ff36000830184611d1e565b92915050565b600060208201905061200e6000830184611dc4565b92915050565b60006040820190506120296000830185611dc4565b6120366020830184611dc4565b9392505050565b60006060820190506120526000830186611de2565b61205f6020830185611de2565b61206c6040830184611de2565b949350505050565b6000604051905081810181811067ffffffffffffffff8211171561209b5761209a61221d565b5b8060405250919050565b600067ffffffffffffffff8211156120c0576120bf61221d565b5b601f19601f8301169050602081019050919050565b6000819050602082019050919050565b600081519050919050565b6000602082019050919050565b600082825260208201905092915050565b600082825260208201905092915050565b600061212a82612176565b9050919050565b60008115159050919050565b6000819050919050565b60006121528261211f565b9050919050565b60008190506121678261221f565b919050565b6000819050919050565b600073ffffffffffffffffffffffffffffffffffffffff82169050919050565b6000819050919050565b600067ffffffffffffffff82169050919050565b60006121bf826121c6565b9050919050565b60006121d182612176565b9050919050565b60006121e3826121ea565b9050919050565b60006121f582612176565b9050919050565b600061220782612159565b9050919050565b82818337600083830152505050565bfe5b600381106122305761222f61221d565b5b50565b61223c8161211f565b811461224757600080fd5b50565b61225381612131565b811461225e57600080fd5b50565b61226a8161213d565b811461227557600080fd5b50565b61228181612147565b811461228c57600080fd5b50565b61229881612196565b81146122a357600080fd5b50565b6122af816121a0565b81146122ba57600080fd5b5056fea2646970667358221220259eafabf97e34c16acf91977403da59b566a8e7300fc39bcb64d463402968e964736f6c63430007030033",
  "linkReferences": {},
  "deployedLinkReferences": {}
}