{
  "_format": "hh-sol-artifact-1",
  "contractName": "WeightedPool",
  "sourceName": "contracts/WeightedPool.sol",
  "abi": [
    {
      "inputs": [
        {
          "internalType": "contract IVault",
          "name": "vault",
          "type": "address"
        },
        {
          "internalType": "string",
          "name": "name",
          "type": "string"
        },
        {
          "internalType": "string",
          "name": "symbol",
          "type": "string"
        },
        {
          "internalType": "contract IERC20[]",
          "name": "tokens",
          "type": "address[]"
        },
        {
          "internalType": "uint256[]",
          "name": "normalizedWeights",
          "type": "uint256[]"
        },
        {
          "internalType": "address[]",
          "name": "assetManagers",
          "type": "address[]"
        },
        {
          "internalType": "uint256",
          "name": "swapFeePercentage",
          "type": "uint256"
        },
        {
          "internalType": "uint256",
          "name": "pauseWindowDuration",
          "type": "uint256"
        },
        {
          "internalType": "uint256",
          "name": "bufferPeriodDuration",
          "type": "uint256"
        },
        {
          "internalType": "address",
          "name": "owner",
          "type": "address"
        }
      ],
      "stateMutability": "nonpayable",
      "type": "constructor"
    },
    {
      "anonymous": false,
      "inputs": [
        {
          "indexed": true,
          "internalType": "address",
          "name": "owner",
          "type": "address"
        },
        {
          "indexed": true,
          "internalType": "address",
          "name": "spender",
          "type": "address"
        },
        {
          "indexed": false,
          "internalType": "uint256",
          "name": "value",
          "type": "uint256"
        }
      ],
      "name": "Approval",
      "type": "event"
    },
    {
      "anonymous": false,
      "inputs": [
        {
          "indexed": false,
          "internalType": "bool",
          "name": "paused",
          "type": "bool"
        }
      ],
      "name": "PausedStateChanged",
      "type": "event"
    },
    {
      "anonymous": false,
      "inputs": [
        {
          "indexed": false,
          "internalType": "uint256",
          "name": "swapFeePercentage",
          "type": "uint256"
        }
      ],
      "name": "SwapFeePercentageChanged",
      "type": "event"
    },
    {
      "anonymous": false,
      "inputs": [
        {
          "indexed": true,
          "internalType": "address",
          "name": "from",
          "type": "address"
        },
        {
          "indexed": true,
          "internalType": "address",
          "name": "to",
          "type": "address"
        },
        {
          "indexed": false,
          "internalType": "uint256",
          "name": "value",
          "type": "uint256"
        }
      ],
      "name": "Transfer",
      "type": "event"
    },
    {
      "inputs": [],
      "name": "DOMAIN_SEPARATOR",
      "outputs": [
        {
          "internalType": "bytes32",
          "name": "",
          "type": "bytes32"
        }
      ],
      "stateMutability": "view",
      "type": "function"
    },
    {
      "inputs": [
        {
          "internalType": "address",
          "name": "owner",
          "type": "address"
        },
        {
          "internalType": "address",
          "name": "spender",
          "type": "address"
        }
      ],
      "name": "allowance",
      "outputs": [
        {
          "internalType": "uint256",
          "name": "",
          "type": "uint256"
        }
      ],
      "stateMutability": "view",
      "type": "function"
    },
    {
      "inputs": [
        {
          "internalType": "address",
          "name": "spender",
          "type": "address"
        },
        {
          "internalType": "uint256",
          "name": "amount",
          "type": "uint256"
        }
      ],
      "name": "approve",
      "outputs": [
        {
          "internalType": "bool",
          "name": "",
          "type": "bool"
        }
      ],
      "stateMutability": "nonpayable",
      "type": "function"
    },
    {
      "inputs": [
        {
          "internalType": "address",
          "name": "account",
          "type": "address"
        }
      ],
      "name": "balanceOf",
      "outputs": [
        {
          "internalType": "uint256",
          "name": "",
          "type": "uint256"
        }
      ],
      "stateMutability": "view",
      "type": "function"
    },
    {
      "inputs": [],
      "name": "decimals",
      "outputs": [
        {
          "internalType": "uint8",
          "name": "",
          "type": "uint8"
        }
      ],
      "stateMutability": "view",
      "type": "function"
    },
    {
      "inputs": [
        {
          "internalType": "address",
          "name": "spender",
          "type": "address"
        },
        {
          "internalType": "uint256",
          "name": "amount",
          "type": "uint256"
        }
      ],
      "name": "decreaseAllowance",
      "outputs": [
        {
          "internalType": "bool",
          "name": "",
          "type": "bool"
        }
      ],
      "stateMutability": "nonpayable",
      "type": "function"
    },
    {
      "inputs": [
        {
          "internalType": "bytes4",
          "name": "selector",
          "type": "bytes4"
        }
      ],
      "name": "getActionId",
      "outputs": [
        {
          "internalType": "bytes32",
          "name": "",
          "type": "bytes32"
        }
      ],
      "stateMutability": "view",
      "type": "function"
    },
    {
      "inputs": [],
      "name": "getAuthorizer",
      "outputs": [
        {
          "internalType": "contract IAuthorizer",
          "name": "",
          "type": "address"
        }
      ],
      "stateMutability": "view",
      "type": "function"
    },
    {
      "inputs": [],
      "name": "getInvariant",
      "outputs": [
        {
          "internalType": "uint256",
          "name": "",
          "type": "uint256"
        }
      ],
      "stateMutability": "view",
      "type": "function"
    },
    {
      "inputs": [],
      "name": "getLastInvariant",
      "outputs": [
        {
          "internalType": "uint256",
          "name": "",
          "type": "uint256"
        }
      ],
      "stateMutability": "view",
      "type": "function"
    },
    {
      "inputs": [],
      "name": "getNormalizedWeights",
      "outputs": [
        {
          "internalType": "uint256[]",
          "name": "",
          "type": "uint256[]"
        }
      ],
      "stateMutability": "view",
      "type": "function"
    },
    {
      "inputs": [],
      "name": "getOwner",
      "outputs": [
        {
          "internalType": "address",
          "name": "",
          "type": "address"
        }
      ],
      "stateMutability": "view",
      "type": "function"
    },
    {
      "inputs": [],
      "name": "getPausedState",
      "outputs": [
        {
          "internalType": "bool",
          "name": "paused",
          "type": "bool"
        },
        {
          "internalType": "uint256",
          "name": "pauseWindowEndTime",
          "type": "uint256"
        },
        {
          "internalType": "uint256",
          "name": "bufferPeriodEndTime",
          "type": "uint256"
        }
      ],
      "stateMutability": "view",
      "type": "function"
    },
    {
      "inputs": [],
      "name": "getPoolId",
      "outputs": [
        {
          "internalType": "bytes32",
          "name": "",
          "type": "bytes32"
        }
      ],
      "stateMutability": "view",
      "type": "function"
    },
    {
      "inputs": [],
      "name": "getRate",
      "outputs": [
        {
          "internalType": "uint256",
          "name": "",
          "type": "uint256"
        }
      ],
      "stateMutability": "view",
      "type": "function"
    },
    {
      "inputs": [],
      "name": "getScalingFactors",
      "outputs": [
        {
          "internalType": "uint256[]",
          "name": "",
          "type": "uint256[]"
        }
      ],
      "stateMutability": "view",
      "type": "function"
    },
    {
      "inputs": [],
      "name": "getSwapFeePercentage",
      "outputs": [
        {
          "internalType": "uint256",
          "name": "",
          "type": "uint256"
        }
      ],
      "stateMutability": "view",
      "type": "function"
    },
    {
      "inputs": [],
      "name": "getVault",
      "outputs": [
        {
          "internalType": "contract IVault",
          "name": "",
          "type": "address"
        }
      ],
      "stateMutability": "view",
      "type": "function"
    },
    {
      "inputs": [
        {
          "internalType": "address",
          "name": "spender",
          "type": "address"
        },
        {
          "internalType": "uint256",
          "name": "addedValue",
          "type": "uint256"
        }
      ],
      "name": "increaseAllowance",
      "outputs": [
        {
          "internalType": "bool",
          "name": "",
          "type": "bool"
        }
      ],
      "stateMutability": "nonpayable",
      "type": "function"
    },
    {
      "inputs": [],
      "name": "name",
      "outputs": [
        {
          "internalType": "string",
          "name": "",
          "type": "string"
        }
      ],
      "stateMutability": "view",
      "type": "function"
    },
    {
      "inputs": [
        {
          "internalType": "address",
          "name": "owner",
          "type": "address"
        }
      ],
      "name": "nonces",
      "outputs": [
        {
          "internalType": "uint256",
          "name": "",
          "type": "uint256"
        }
      ],
      "stateMutability": "view",
      "type": "function"
    },
    {
      "inputs": [
        {
          "internalType": "bytes32",
          "name": "poolId",
          "type": "bytes32"
        },
        {
          "internalType": "address",
          "name": "sender",
          "type": "address"
        },
        {
          "internalType": "address",
          "name": "recipient",
          "type": "address"
        },
        {
          "internalType": "uint256[]",
          "name": "balances",
          "type": "uint256[]"
        },
        {
          "internalType": "uint256",
          "name": "lastChangeBlock",
          "type": "uint256"
        },
        {
          "internalType": "uint256",
          "name": "protocolSwapFeePercentage",
          "type": "uint256"
        },
        {
          "internalType": "bytes",
          "name": "userData",
          "type": "bytes"
        }
      ],
      "name": "onExitPool",
      "outputs": [
        {
          "internalType": "uint256[]",
          "name": "",
          "type": "uint256[]"
        },
        {
          "internalType": "uint256[]",
          "name": "",
          "type": "uint256[]"
        }
      ],
      "stateMutability": "nonpayable",
      "type": "function"
    },
    {
      "inputs": [
        {
          "internalType": "bytes32",
          "name": "poolId",
          "type": "bytes32"
        },
        {
          "internalType": "address",
          "name": "sender",
          "type": "address"
        },
        {
          "internalType": "address",
          "name": "recipient",
          "type": "address"
        },
        {
          "internalType": "uint256[]",
          "name": "balances",
          "type": "uint256[]"
        },
        {
          "internalType": "uint256",
          "name": "lastChangeBlock",
          "type": "uint256"
        },
        {
          "internalType": "uint256",
          "name": "protocolSwapFeePercentage",
          "type": "uint256"
        },
        {
          "internalType": "bytes",
          "name": "userData",
          "type": "bytes"
        }
      ],
      "name": "onJoinPool",
      "outputs": [
        {
          "internalType": "uint256[]",
          "name": "",
          "type": "uint256[]"
        },
        {
          "internalType": "uint256[]",
          "name": "",
          "type": "uint256[]"
        }
      ],
      "stateMutability": "nonpayable",
      "type": "function"
    },
    {
      "inputs": [
        {
          "components": [
            {
              "internalType": "enum IVault.SwapKind",
              "name": "kind",
              "type": "uint8"
            },
            {
              "internalType": "contract IERC20",
              "name": "tokenIn",
              "type": "address"
            },
            {
              "internalType": "contract IERC20",
              "name": "tokenOut",
              "type": "address"
            },
            {
              "internalType": "uint256",
              "name": "amount",
              "type": "uint256"
            },
            {
              "internalType": "bytes32",
              "name": "poolId",
              "type": "bytes32"
            },
            {
              "internalType": "uint256",
              "name": "lastChangeBlock",
              "type": "uint256"
            },
            {
              "internalType": "address",
              "name": "from",
              "type": "address"
            },
            {
              "internalType": "address",
              "name": "to",
              "type": "address"
            },
            {
              "internalType": "bytes",
              "name": "userData",
              "type": "bytes"
            }
          ],
          "internalType": "struct IPoolSwapStructs.SwapRequest",
          "name": "request",
          "type": "tuple"
        },
        {
          "internalType": "uint256",
          "name": "balanceTokenIn",
          "type": "uint256"
        },
        {
          "internalType": "uint256",
          "name": "balanceTokenOut",
          "type": "uint256"
        }
      ],
      "name": "onSwap",
      "outputs": [
        {
          "internalType": "uint256",
          "name": "",
          "type": "uint256"
        }
      ],
      "stateMutability": "nonpayable",
      "type": "function"
    },
    {
      "inputs": [
        {
          "internalType": "address",
          "name": "owner",
          "type": "address"
        },
        {
          "internalType": "address",
          "name": "spender",
          "type": "address"
        },
        {
          "internalType": "uint256",
          "name": "value",
          "type": "uint256"
        },
        {
          "internalType": "uint256",
          "name": "deadline",
          "type": "uint256"
        },
        {
          "internalType": "uint8",
          "name": "v",
          "type": "uint8"
        },
        {
          "internalType": "bytes32",
          "name": "r",
          "type": "bytes32"
        },
        {
          "internalType": "bytes32",
          "name": "s",
          "type": "bytes32"
        }
      ],
      "name": "permit",
      "outputs": [],
      "stateMutability": "nonpayable",
      "type": "function"
    },
    {
      "inputs": [
        {
          "internalType": "bytes32",
          "name": "poolId",
          "type": "bytes32"
        },
        {
          "internalType": "address",
          "name": "sender",
          "type": "address"
        },
        {
          "internalType": "address",
          "name": "recipient",
          "type": "address"
        },
        {
          "internalType": "uint256[]",
          "name": "balances",
          "type": "uint256[]"
        },
        {
          "internalType": "uint256",
          "name": "lastChangeBlock",
          "type": "uint256"
        },
        {
          "internalType": "uint256",
          "name": "protocolSwapFeePercentage",
          "type": "uint256"
        },
        {
          "internalType": "bytes",
          "name": "userData",
          "type": "bytes"
        }
      ],
      "name": "queryExit",
      "outputs": [
        {
          "internalType": "uint256",
          "name": "bptIn",
          "type": "uint256"
        },
        {
          "internalType": "uint256[]",
          "name": "amountsOut",
          "type": "uint256[]"
        }
      ],
      "stateMutability": "nonpayable",
      "type": "function"
    },
    {
      "inputs": [
        {
          "internalType": "bytes32",
          "name": "poolId",
          "type": "bytes32"
        },
        {
          "internalType": "address",
          "name": "sender",
          "type": "address"
        },
        {
          "internalType": "address",
          "name": "recipient",
          "type": "address"
        },
        {
          "internalType": "uint256[]",
          "name": "balances",
          "type": "uint256[]"
        },
        {
          "internalType": "uint256",
          "name": "lastChangeBlock",
          "type": "uint256"
        },
        {
          "internalType": "uint256",
          "name": "protocolSwapFeePercentage",
          "type": "uint256"
        },
        {
          "internalType": "bytes",
          "name": "userData",
          "type": "bytes"
        }
      ],
      "name": "queryJoin",
      "outputs": [
        {
          "internalType": "uint256",
          "name": "bptOut",
          "type": "uint256"
        },
        {
          "internalType": "uint256[]",
          "name": "amountsIn",
          "type": "uint256[]"
        }
      ],
      "stateMutability": "nonpayable",
      "type": "function"
    },
    {
      "inputs": [
        {
          "internalType": "contract IERC20",
          "name": "token",
          "type": "address"
        },
        {
          "internalType": "bytes",
          "name": "poolConfig",
          "type": "bytes"
        }
      ],
      "name": "setAssetManagerPoolConfig",
      "outputs": [],
      "stateMutability": "nonpayable",
      "type": "function"
    },
    {
      "inputs": [
        {
          "internalType": "bool",
          "name": "paused",
          "type": "bool"
        }
      ],
      "name": "setPaused",
      "outputs": [],
      "stateMutability": "nonpayable",
      "type": "function"
    },
    {
      "inputs": [
        {
          "internalType": "uint256",
          "name": "swapFeePercentage",
          "type": "uint256"
        }
      ],
      "name": "setSwapFeePercentage",
      "outputs": [],
      "stateMutability": "nonpayable",
      "type": "function"
    },
    {
      "inputs": [],
      "name": "symbol",
      "outputs": [
        {
          "internalType": "string",
          "name": "",
          "type": "string"
        }
      ],
      "stateMutability": "view",
      "type": "function"
    },
    {
      "inputs": [],
      "name": "totalSupply",
      "outputs": [
        {
          "internalType": "uint256",
          "name": "",
          "type": "uint256"
        }
      ],
      "stateMutability": "view",
      "type": "function"
    },
    {
      "inputs": [
        {
          "internalType": "address",
          "name": "recipient",
          "type": "address"
        },
        {
          "internalType": "uint256",
          "name": "amount",
          "type": "uint256"
        }
      ],
      "name": "transfer",
      "outputs": [
        {
          "internalType": "bool",
          "name": "",
          "type": "bool"
        }
      ],
      "stateMutability": "nonpayable",
      "type": "function"
    },
    {
      "inputs": [
        {
          "internalType": "address",
          "name": "sender",
          "type": "address"
        },
        {
          "internalType": "address",
          "name": "recipient",
          "type": "address"
        },
        {
          "internalType": "uint256",
          "name": "amount",
          "type": "uint256"
        }
      ],
      "name": "transferFrom",
      "outputs": [
        {
          "internalType": "bool",
          "name": "",
          "type": "bool"
        }
      ],
      "stateMutability": "nonpayable",
      "type": "function"
    }
  ],
  "bytecode": "0x6109806040527f6e71edae12b1b97f4d1f60370fef10105fa2faae0126114a169c64845d6126c9610120908152503480156200003a57600080fd5b506040516200a8683803806200a868833981810160405281019062000060919062001b27565b8989898988888888888860028751146200007c5760016200007f565b60025b89898989898989898282898981806040518060400160405280600181526020017f31000000000000000000000000000000000000000000000000000000000000008152508484893373ffffffffffffffffffffffffffffffffffffffff1660001b8060808181525050508073ffffffffffffffffffffffffffffffffffffffff1660a08173ffffffffffffffffffffffffffffffffffffffff1660601b8152505050816003908051906020019062000139929190620017c8565b50806004908051906020019062000152929190620017c8565b506012600560006101000a81548160ff021916908360ff1602179055505050818051906020012060c08181525050808051906020012060e081815250507f8b73c3c69bb8fe3d512ecc4cf759cc79239f7b179b0ffacaa9a75d522b39400f61010081815250505050505050620001d76276a7008311156101946200147f60201b60201c565b620001f162278d008211156101956200147f60201b60201c565b6000824201905080610140818152505081810161016081815250505050506200022760028751101560c86200147f60201b60201c565b6200024d6200023b6200149b60201b60201c565b8751111560c96200147f60201b60201c565b6200026386620014a460201b620013b21760201c565b6200027484620014be60201b60201c565b60008a73ffffffffffffffffffffffffffffffffffffffff166309b2760f8b6040518263ffffffff1660e01b8152600401620002b1919062001e68565b602060405180830381600087803b158015620002cc57600080fd5b505af1158015620002e1573d6000803e3d6000fd5b505050506040513d601f19601f8201168201806040525081019062000307919062001afb565b90508a73ffffffffffffffffffffffffffffffffffffffff166366a9c7d28289896040518463ffffffff1660e01b8152600401620003489392919062001e1d565b600060405180830381600087803b1580156200036357600080fd5b505af115801562000378573d6000803e3d6000fd5b505050508a73ffffffffffffffffffffffffffffffffffffffff166101808173ffffffffffffffffffffffffffffffffffffffff1660601b81525050806101a081815250505050505050505050505050505050505050505050600087519050620003ef8188516200155860201b620013c41760201c565b806101c081815250506000806000805b848160ff161015620004835760008b8260ff16815181106200041d57fe5b6020026020010151905062000445662386f26fc1000082101561012e6200147f60201b60201c565b6200045f81866200157160201b620013d51790919060201c565b94508281111562000474578160ff1693508092505b508080600101915050620003ff565b50620004a2670de0b6b3a764000084146101346200147f60201b60201c565b816106e0818152505089600081518110620004b957fe5b6020026020010151610700818152505089600181518110620004d757fe5b6020026020010151610720818152505060028411620004f85760006200050f565b896002815181106200050657fe5b60200260200101515b610740818152505060038411620005285760006200053f565b896003815181106200053657fe5b60200260200101515b610760818152505060048411620005585760006200056f565b896004815181106200056657fe5b60200260200101515b610780818152505060058411620005885760006200059f565b896005815181106200059657fe5b60200260200101515b6107a0818152505060068411620005b8576000620005cf565b89600681518110620005c657fe5b60200260200101515b6107c0818152505060078411620005e8576000620005ff565b89600781518110620005f657fe5b60200260200101515b6107e0818152505060088411620006185760006200062f565b896008815181106200062657fe5b60200260200101515b610800818152505060098411620006485760006200065f565b896009815181106200065657fe5b60200260200101515b6108208181525050600a8411620006785760006200068f565b89600a815181106200068657fe5b60200260200101515b6108408181525050600b8411620006a8576000620006bf565b89600b81518110620006b657fe5b60200260200101515b6108608181525050600c8411620006d8576000620006ef565b89600c81518110620006e657fe5b60200260200101515b6108808181525050600d8411620007085760006200071f565b89600d815181106200071657fe5b60200260200101515b6108a08181525050600e8411620007385760006200074f565b89600e815181106200074657fe5b60200260200101515b6108c08181525050600f8411620007685760006200077f565b89600f815181106200077657fe5b60200260200101515b6108e081815250506010841162000798576000620007af565b89601081518110620007a657fe5b60200260200101515b610900818152505060118411620007c8576000620007df565b89601181518110620007d657fe5b60200260200101515b610920818152505060128411620007f85760006200080f565b896012815181106200080657fe5b60200260200101515b610940818152505060138411620008285760006200083f565b896013815181106200083657fe5b60200260200101515b61096081815250508a6000815181106200085557fe5b602002602001015173ffffffffffffffffffffffffffffffffffffffff166101e08173ffffffffffffffffffffffffffffffffffffffff1660601b815250508a600181518110620008a257fe5b602002602001015173ffffffffffffffffffffffffffffffffffffffff166102008173ffffffffffffffffffffffffffffffffffffffff1660601b8152505060028411620008f257600062000909565b8a6002815181106200090057fe5b60200260200101515b73ffffffffffffffffffffffffffffffffffffffff166102208173ffffffffffffffffffffffffffffffffffffffff1660601b81525050600384116200095157600062000968565b8a6003815181106200095f57fe5b60200260200101515b73ffffffffffffffffffffffffffffffffffffffff166102408173ffffffffffffffffffffffffffffffffffffffff1660601b8152505060048411620009b0576000620009c7565b8a600481518110620009be57fe5b60200260200101515b73ffffffffffffffffffffffffffffffffffffffff166102608173ffffffffffffffffffffffffffffffffffffffff1660601b815250506005841162000a0f57600062000a26565b8a60058151811062000a1d57fe5b60200260200101515b73ffffffffffffffffffffffffffffffffffffffff166102808173ffffffffffffffffffffffffffffffffffffffff1660601b815250506006841162000a6e57600062000a85565b8a60068151811062000a7c57fe5b60200260200101515b73ffffffffffffffffffffffffffffffffffffffff166102a08173ffffffffffffffffffffffffffffffffffffffff1660601b815250506007841162000acd57600062000ae4565b8a60078151811062000adb57fe5b60200260200101515b73ffffffffffffffffffffffffffffffffffffffff166102c08173ffffffffffffffffffffffffffffffffffffffff1660601b815250506008841162000b2c57600062000b43565b8a60088151811062000b3a57fe5b60200260200101515b73ffffffffffffffffffffffffffffffffffffffff166102e08173ffffffffffffffffffffffffffffffffffffffff1660601b815250506009841162000b8b57600062000ba2565b8a60098151811062000b9957fe5b60200260200101515b73ffffffffffffffffffffffffffffffffffffffff166103008173ffffffffffffffffffffffffffffffffffffffff1660601b81525050600a841162000bea57600062000c01565b8a600a8151811062000bf857fe5b60200260200101515b73ffffffffffffffffffffffffffffffffffffffff166103208173ffffffffffffffffffffffffffffffffffffffff1660601b81525050600b841162000c4957600062000c60565b8a600b8151811062000c5757fe5b60200260200101515b73ffffffffffffffffffffffffffffffffffffffff166103408173ffffffffffffffffffffffffffffffffffffffff1660601b81525050600c841162000ca857600062000cbf565b8a600c8151811062000cb657fe5b60200260200101515b73ffffffffffffffffffffffffffffffffffffffff166103608173ffffffffffffffffffffffffffffffffffffffff1660601b81525050600d841162000d0757600062000d1e565b8a600d8151811062000d1557fe5b60200260200101515b73ffffffffffffffffffffffffffffffffffffffff166103808173ffffffffffffffffffffffffffffffffffffffff1660601b81525050600e841162000d6657600062000d7d565b8a600e8151811062000d7457fe5b60200260200101515b73ffffffffffffffffffffffffffffffffffffffff166103a08173ffffffffffffffffffffffffffffffffffffffff1660601b81525050600f841162000dc557600062000ddc565b8a600f8151811062000dd357fe5b60200260200101515b73ffffffffffffffffffffffffffffffffffffffff166103c08173ffffffffffffffffffffffffffffffffffffffff1660601b815250506010841162000e2457600062000e3b565b8a60108151811062000e3257fe5b60200260200101515b73ffffffffffffffffffffffffffffffffffffffff166103e08173ffffffffffffffffffffffffffffffffffffffff1660601b815250506011841162000e8357600062000e9a565b8a60118151811062000e9157fe5b60200260200101515b73ffffffffffffffffffffffffffffffffffffffff166104008173ffffffffffffffffffffffffffffffffffffffff1660601b815250506012841162000ee257600062000ef9565b8a60128151811062000ef057fe5b60200260200101515b73ffffffffffffffffffffffffffffffffffffffff166104208173ffffffffffffffffffffffffffffffffffffffff1660601b815250506013841162000f4157600062000f58565b8a60138151811062000f4f57fe5b60200260200101515b73ffffffffffffffffffffffffffffffffffffffff166104408173ffffffffffffffffffffffffffffffffffffffff1660601b8152505062000fb58b60008151811062000fa157fe5b60200260200101516200159960201b60201c565b610460818152505062000fe38b60018151811062000fcf57fe5b60200260200101516200159960201b60201c565b61048081815250506002841162000ffc57600062001023565b620010228b6002815181106200100e57fe5b60200260200101516200159960201b60201c565b5b6104a08181525050600384116200103c57600062001063565b620010628b6003815181106200104e57fe5b60200260200101516200159960201b60201c565b5b6104c08181525050600484116200107c576000620010a3565b620010a28b6004815181106200108e57fe5b60200260200101516200159960201b60201c565b5b6104e0818152505060058411620010bc576000620010e3565b620010e28b600581518110620010ce57fe5b60200260200101516200159960201b60201c565b5b610500818152505060068411620010fc57600062001123565b620011228b6006815181106200110e57fe5b60200260200101516200159960201b60201c565b5b6105208181525050600784116200113c57600062001163565b620011628b6007815181106200114e57fe5b60200260200101516200159960201b60201c565b5b6105408181525050600884116200117c576000620011a3565b620011a28b6008815181106200118e57fe5b60200260200101516200159960201b60201c565b5b610560818152505060098411620011bc576000620011e3565b620011e28b600981518110620011ce57fe5b60200260200101516200159960201b60201c565b5b6105808181525050600a8411620011fc57600062001223565b620012228b600a815181106200120e57fe5b60200260200101516200159960201b60201c565b5b6105a08181525050600b84116200123c57600062001263565b620012628b600b815181106200124e57fe5b60200260200101516200159960201b60201c565b5b6105c08181525050600c84116200127c576000620012a3565b620012a28b600c815181106200128e57fe5b60200260200101516200159960201b60201c565b5b6105e08181525050600d8411620012bc576000620012e3565b620012e28b600d81518110620012ce57fe5b60200260200101516200159960201b60201c565b5b6106008181525050600e8411620012fc57600062001323565b620013228b600e815181106200130e57fe5b60200260200101516200159960201b60201c565b5b6106208181525050600f84116200133c57600062001363565b620013628b600f815181106200134e57fe5b60200260200101516200159960201b60201c565b5b6106408181525050601084116200137c576000620013a3565b620013a28b6010815181106200138e57fe5b60200260200101516200159960201b60201c565b5b610660818152505060118411620013bc576000620013e3565b620013e28b601181518110620013ce57fe5b60200260200101516200159960201b60201c565b5b610680818152505060128411620013fc57600062001423565b620014228b6012815181106200140e57fe5b60200260200101516200159960201b60201c565b5b6106a08181525050601384116200143c57600062001463565b620014628b6013815181106200144e57fe5b60200260200101516200159960201b60201c565b5b6106c081815250505050505050505050505050505050620021b0565b81620014975762001496816200165660201b60201c565b5b5050565b60006014905090565b6060819050620014ba81620016c660201b60201c565b5050565b620014d964e8d4a5100082101560cb6200147f60201b60201c565b620014f767016345785d8a000082111560ca6200147f60201b60201c565b620015168160c06008546200177260201b620013f5179092919060201c565b6008819055507fa9ba3ffe0b6c366b81232caab38605a0699ad5398d6cce76f91ee809e322dafc816040516200154d919062001e85565b60405180910390a150565b6200156d81831460676200147f60201b60201c565b5050565b60008082840190506200158f8482101560006200147f60201b60201c565b8091505092915050565b6000808273ffffffffffffffffffffffffffffffffffffffff1663313ce5676040518163ffffffff1660e01b815260040160206040518083038186803b158015620015e357600080fd5b505afa158015620015f8573d6000803e3d6000fd5b505050506040513d601f19601f820116820180604052508101906200161e919062001c94565b60ff16905060006200163d6012836200179f60201b620014221760201c565b905080600a0a670de0b6b3a76400000292505050919050565b6030600a820601600a820491506030600a830601600a830492506030600a8406018060101b8260081b8401016642414c230000000160c81b7f08c379a000000000000000000000000000000000000000000000000000000000600052602060045260076024528060445260646000fd5b600281511015620016d7576200176f565b600081600081518110620016e757fe5b602002602001015190506000600190505b82518110156200176c5760008382815181106200171157fe5b602002602001015190506200175c8173ffffffffffffffffffffffffffffffffffffffff168473ffffffffffffffffffffffffffffffffffffffff161060656200147f60201b60201c565b80925050806001019050620016f8565b50505b50565b6000808267ffffffffffffffff901b198560001c1660001b90508284901b60001b81179150509392505050565b6000620017b78383111560016200147f60201b60201c565b600082840390508091505092915050565b828054600181600116156101000203166002900490600052602060002090601f016020900481019282601f106200180b57805160ff19168380011785556200183c565b828001600101855582156200183c579182015b828111156200183b5782518255916020019190600101906200181e565b5b5090506200184b91906200184f565b5090565b5b808211156200186a57600081600090555060010162001850565b5090565b6000815190506200187f8162002114565b92915050565b600082601f8301126200189757600080fd5b8151620018ae620018a88262001ed6565b62001ea2565b91508181835260208401935060208101905083856020840282011115620018d457600080fd5b60005b83811015620019085781620018ed88826200186e565b845260208401935060208301925050600181019050620018d7565b5050505092915050565b600082601f8301126200192457600080fd5b81516200193b620019358262001f05565b62001ea2565b915081818352602084019350602081019050838560208402820111156200196157600080fd5b60005b838110156200199557816200197a888262001a43565b84526020840193506020830192505060018101905062001964565b5050505092915050565b600082601f830112620019b157600080fd5b8151620019c8620019c28262001f34565b62001ea2565b91508181835260208401935060208101905083856020840282011115620019ee57600080fd5b60005b8381101562001a22578162001a07888262001acd565b845260208401935060208301925050600181019050620019f1565b5050505092915050565b60008151905062001a3d816200212e565b92915050565b60008151905062001a548162002148565b92915050565b60008151905062001a6b8162002162565b92915050565b600082601f83011262001a8357600080fd5b815162001a9a62001a948262001f63565b62001ea2565b9150808252602083016020830185838301111562001ab757600080fd5b62001ac4838284620020c5565b50505092915050565b60008151905062001ade816200217c565b92915050565b60008151905062001af58162002196565b92915050565b60006020828403121562001b0e57600080fd5b600062001b1e8482850162001a2c565b91505092915050565b6000806000806000806000806000806101408b8d03121562001b4857600080fd5b600062001b588d828e0162001a5a565b9a505060208b015167ffffffffffffffff81111562001b7657600080fd5b62001b848d828e0162001a71565b99505060408b015167ffffffffffffffff81111562001ba257600080fd5b62001bb08d828e0162001a71565b98505060608b015167ffffffffffffffff81111562001bce57600080fd5b62001bdc8d828e0162001912565b97505060808b015167ffffffffffffffff81111562001bfa57600080fd5b62001c088d828e016200199f565b96505060a08b015167ffffffffffffffff81111562001c2657600080fd5b62001c348d828e0162001885565b95505060c062001c478d828e0162001acd565b94505060e062001c5a8d828e0162001acd565b93505061010062001c6e8d828e0162001acd565b92505061012062001c828d828e016200186e565b9150509295989b9194979a5092959850565b60006020828403121562001ca757600080fd5b600062001cb78482850162001ae4565b91505092915050565b600062001cce838362001cf4565b60208301905092915050565b600062001ce8838362001dea565b60208301905092915050565b62001cff8162001ff7565b82525050565b600062001d128262001fb6565b62001d1e818562001fe6565b935062001d2b8362001f96565b8060005b8381101562001d6257815162001d46888262001cc0565b975062001d538362001fcc565b92505060018101905062001d2f565b5085935050505092915050565b600062001d7c8262001fc1565b62001d88818562001fe6565b935062001d958362001fa6565b8060005b8381101562001dcc57815162001db0888262001cda565b975062001dbd8362001fd9565b92505060018101905062001d99565b5085935050505092915050565b62001de4816200200b565b82525050565b62001df58162002089565b82525050565b62001e0681620020b1565b82525050565b62001e178162002072565b82525050565b600060608201905062001e34600083018662001dd9565b818103602083015262001e48818562001d6f565b9050818103604083015262001e5e818462001d05565b9050949350505050565b600060208201905062001e7f600083018462001dfb565b92915050565b600060208201905062001e9c600083018462001e0c565b92915050565b6000604051905081810181811067ffffffffffffffff8211171562001ecc5762001ecb620020fb565b5b8060405250919050565b600067ffffffffffffffff82111562001ef45762001ef3620020fb565b5b602082029050602081019050919050565b600067ffffffffffffffff82111562001f235762001f22620020fb565b5b602082029050602081019050919050565b600067ffffffffffffffff82111562001f525762001f51620020fb565b5b602082029050602081019050919050565b600067ffffffffffffffff82111562001f815762001f80620020fb565b5b601f19601f8301169050602081019050919050565b6000819050602082019050919050565b6000819050602082019050919050565b600081519050919050565b600081519050919050565b6000602082019050919050565b6000602082019050919050565b600082825260208201905092915050565b6000620020048262002052565b9050919050565b6000819050919050565b6000620020228262001ff7565b9050919050565b6000620020368262001ff7565b9050919050565b60008190506200204d82620020fd565b919050565b600073ffffffffffffffffffffffffffffffffffffffff82169050919050565b6000819050919050565b600060ff82169050919050565b600062002096826200209d565b9050919050565b6000620020aa8262002052565b9050919050565b6000620020be826200203d565b9050919050565b60005b83811015620020e5578082015181840152602081019050620020c8565b83811115620020f5576000848401525b50505050565bfe5b60038110620021115762002110620020fb565b5b50565b6200211f8162001ff7565b81146200212b57600080fd5b50565b62002139816200200b565b81146200214557600080fd5b50565b620021538162002015565b81146200215f57600080fd5b50565b6200216d8162002029565b81146200217957600080fd5b50565b620021878162002072565b81146200219357600080fd5b50565b620021a1816200207c565b8114620021ad57600080fd5b50565b60805160a05160601c60c05160e051610100516101205161014051610160516101805160601c6101a0516101c0516101e05160601c6102005160601c6102205160601c6102405160601c6102605160601c6102805160601c6102a05160601c6102c05160601c6102e05160601c6103005160601c6103205160601c6103405160601c6103605160601c6103805160601c6103a05160601c6103c05160601c6103e05160601c6104005160601c6104205160601c6104405160601c61046051610480516104a0516104c0516104e05161050051610520516105405161056051610580516105a0516105c0516105e05161060051610620516106405161066051610680516106a0516106c0516106e05161070051610720516107405161076051610780516107a0516107c0516107e05161080051610820516108405161086051610880516108a0516108c0516108e0516109005161092051610940516109605161826c620025fc60003980613a4d5280614c145250806139fb5280614b985250806139a95280614b1c5250806139575280614aa05250806139055280614a245250806138b352806149a8525080613861528061492c52508061380f52806148b05250806137bd528061483452508061376b52806147b8525080613719528061473c5250806136c752806146c0525080613675528061464452508061362352806145c85250806135d1528061454c52508061357f52806144d052508061352d52806144545250806134db52806143d8525080613498528061435c52508061345e52806142e052508061324f525080611cc45280613053525080611c725280612fd7525080611c205280612f5b525080611bce5280612edf525080611b7c5280612e63525080611b2a5280612de7525080611ad85280612d6b525080611a865280612cef525080611a345280612c735250806119e25280612bf75250806119905280612b7b52508061193e5280612aff5250806118ec5280612a8352508061189a5280612a07525080611848528061298b5250806117f6528061290f5250806117a45280612893525080611752528061281752508061170f528061279b5250806116d5528061271f525080612fff5280614bc0525080612f835280614b44525080612f075280614ac8525080612e8b5280614a4c525080612e0f52806149d0525080612d935280614954525080612d1752806148d8525080612c9b528061485c525080612c1f52806147e0525080612ba35280614764525080612b2752806146e8525080612aab528061466c525080612a2f52806145f05250806129b3528061457452508061293752806144f85250806128bb528061447c52508061283f52806144005250806127c3528061438452508061274752806143085250806126cb528061428c5250806121c8525080610930525080610ca852508061165652508061162e525080611015525080611f42525080611f84525080611f63525080610c80525080610bf7525061826c6000f3fe608060405234801561001057600080fd5b50600436106102065760003560e01c806374f3b0091161011a5780639d2c110c116100ad578063c0ff1a151161007c578063c0ff1a1514610648578063d505accf14610666578063d5c096c414610682578063dd62ed3e146106b3578063f89f27ed146106e357610206565b80639d2c110c1461059a578063a457c2d7146105ca578063a9059cbb146105fa578063aaabadc51461062a57610206565b8063893d20e8116100e9578063893d20e8146105225780638d928af81461054057806395d89b411461055e5780639b02cdde1461057c57610206565b806374f3b009146104605780637ecebe0014610491578063851c1bb3146104c157806387ec6817146104f157610206565b80633644e5151161019d57806350dd6ed91161016c57806350dd6ed9146103a757806355c67628146103c35780636028bfd4146103e1578063679aefce1461041257806370a082311461043057610206565b80633644e5151461031f57806338e9922e1461033d57806338fff2d014610359578063395093511461037757610206565b80631c0de051116101d95780631c0de051146102935780631dd746ea146102b357806323b872dd146102d1578063313ce5671461030157610206565b806306fdde031461020b578063095ea7b31461022957806316c38b3c1461025957806318160ddd14610275575b600080fd5b610213610701565b6040516102209190617e02565b60405180910390f35b610243600480360381019061023e91906172e6565b6107a3565b6040516102509190617bd6565b60405180910390f35b610273600480360381019061026e91906173a1565b6107ba565b005b61027d6107ce565b60405161028a9190617e24565b60405180910390f35b61029b6107d8565b6040516102aa93929190617bf1565b60405180910390f35b6102bb610801565b6040516102c89190617b7d565b60405180910390f35b6102eb60048036038101906102e691906171f9565b610810565b6040516102f89190617bd6565b60405180910390f35b6103096108ea565b6040516103169190617e6f565b60405180910390f35b610327610901565b6040516103349190617c28565b60405180910390f35b61035760048036038101906103529190617858565b610910565b005b61036161092c565b60405161036e9190617c28565b60405180910390f35b610391600480360381019061038c91906172e6565b610954565b60405161039e9190617bd6565b60405180910390f35b6103c160048036038101906103bc9190617513565b6109f9565b005b6103cb610a17565b6040516103d89190617e24565b60405180910390f35b6103fb60048036038101906103f691906173f3565b610a34565b604051610409929190617e3f565b60405180910390f35b61041a610a6b565b6040516104279190617e24565b60405180910390f35b61044a60048036038101906104459190617194565b610aa3565b6040516104579190617e24565b60405180910390f35b61047a600480360381019061047591906173f3565b610aeb565b604051610488929190617b9f565b60405180910390f35b6104ab60048036038101906104a69190617194565b610baa565b6040516104b89190617e24565b60405180910390f35b6104db60048036038101906104d691906174c1565b610bf3565b6040516104e89190617c28565b60405180910390f35b61050b600480360381019061050691906173f3565b610c45565b604051610519929190617e3f565b60405180910390f35b61052a610c7c565b6040516105379190617b62565b60405180910390f35b610548610ca4565b6040516105559190617de7565b60405180910390f35b610566610ccc565b6040516105739190617e02565b60405180910390f35b610584610d6e565b6040516105919190617e24565b60405180910390f35b6105b460048036038101906105af91906177f1565b610d78565b6040516105c19190617e24565b60405180910390f35b6105e460048036038101906105df91906172e6565b610e86565b6040516105f19190617bd6565b60405180910390f35b610614600480360381019061060f91906172e6565b610ec6565b6040516106219190617bd6565b60405180910390f35b610632610edd565b60405161063f9190617dcc565b60405180910390f35b610650610eec565b60405161065d9190617e24565b60405180910390f35b610680600480360381019061067b9190617248565b610fbf565b005b61069c600480360381019061069791906173f3565b611198565b6040516106aa929190617b9f565b60405180910390f35b6106cd60048036038101906106c891906171bd565b61131c565b6040516106da9190617e24565b60405180910390f35b6106eb6113a3565b6040516106f89190617b7d565b60405180910390f35b606060038054600181600116156101000203166002900480601f0160208091040260200160405190810160405280929190818152602001828054600181600116156101000203166002900480156107995780601f1061076e57610100808354040283529160200191610799565b820191906000526020600020905b81548152906001019060200180831161077c57829003601f168201915b5050505050905090565b60006107b0338484611443565b6001905092915050565b6107c261152e565b6107cb81611577565b50565b6000600254905090565b60008060006107e5611601565b1592506107f061162a565b91506107fa611652565b9050909192565b606061080b61167a565b905090565b60008061081d853361131c565b90506108648573ffffffffffffffffffffffffffffffffffffffff163373ffffffffffffffffffffffffffffffffffffffff16148061085c5750838210155b61019e611d14565b61086f858585611d27565b8473ffffffffffffffffffffffffffffffffffffffff163373ffffffffffffffffffffffffffffffffffffffff16141580156108cb57507fffffffffffffffffffffffffffffffffffffffffffffffffffffffffffffffff8114155b156108de576108dd8533858403611443565b5b60019150509392505050565b6000600560009054906101000a900460ff16905090565b600061090b611f3e565b905090565b61091861152e565b610920611fdb565b61092981611ff0565b50565b60007f0000000000000000000000000000000000000000000000000000000000000000905090565b60006109ef33846109ea85600160003373ffffffffffffffffffffffffffffffffffffffff1673ffffffffffffffffffffffffffffffffffffffff16815260200190815260200160002060008973ffffffffffffffffffffffffffffffffffffffff1673ffffffffffffffffffffffffffffffffffffffff1681526020019081526020016000205461207190919063ffffffff16565b611443565b6001905092915050565b610a0161152e565b610a09611fdb565b610a138282612091565b5050565b6000610a2f60c06008546121a990919063ffffffff16565b905090565b60006060610a4a8651610a456121c4565b6113c4565b610a5f898989898989896121ec6122c7612331565b97509795505050505050565b6000610a9e610a786107ce565b610a90610a83610eec565b610a8b6121c4565b6124c0565b6124f390919063ffffffff16565b905090565b60008060008373ffffffffffffffffffffffffffffffffffffffff1673ffffffffffffffffffffffffffffffffffffffff168152602001908152602001600020549050919050565b60608088610b2f610afa610ca4565b73ffffffffffffffffffffffffffffffffffffffff163373ffffffffffffffffffffffffffffffffffffffff161460cd611d14565b610b44610b3a61092c565b82146101f4611d14565b6060610b4e61167a565b9050610b5a8882612557565b6000606080610b6f8e8e8e8e8e8e8a8f6121ec565b925092509250610b7f8d846125c1565b610b8982856122c7565b610b9381856122c7565b818196509650505050505097509795505050505050565b6000600660008373ffffffffffffffffffffffffffffffffffffffff1673ffffffffffffffffffffffffffffffffffffffff168152602001908152602001600020549050919050565b60007f000000000000000000000000000000000000000000000000000000000000000082604051602001610c28929190617ae6565b604051602081830303815290604052805190602001209050919050565b60006060610c5b8651610c566121c4565b6113c4565b610c70898989898989896125cf61265d612331565b97509795505050505050565b60007f0000000000000000000000000000000000000000000000000000000000000000905090565b60007f0000000000000000000000000000000000000000000000000000000000000000905090565b606060048054600181600116156101000203166002900480601f016020809104026020016040519081016040528092919081815260200182805460018160011615610100020316600290048015610d645780601f10610d3957610100808354040283529160200191610d64565b820191906000526020600020905b815481529060010190602001808311610d4757829003601f168201915b5050505050905090565b6000600954905090565b600080610d8885602001516126c7565b90506000610d9986604001516126c7565b905060006001811115610da857fe5b86600001516001811115610db857fe5b1415610e2657610dcb866060015161308a565b866060018181525050610dde85836130c4565b9450610dea84826130c4565b9350610dfa8660600151836130c4565b8660600181815250506000610e108787876130d8565b9050610e1c8183613114565b9350505050610e7f565b610e3085836130c4565b9450610e3c84826130c4565b9350610e4c8660600151826130c4565b8660600181815250506000610e62878787613128565b9050610e6e8184613164565b9050610e7981613178565b93505050505b9392505050565b600080610e93338561131c565b9050808310610ead57610ea833856000611443565b610ebb565b610eba3385858403611443565b5b600191505092915050565b6000610ed3338484611d27565b6001905092915050565b6000610ee76131b5565b905090565b60006060610ef8610ca4565b73ffffffffffffffffffffffffffffffffffffffff1663f94d4668610f1b61092c565b6040518263ffffffff1660e01b8152600401610f379190617c28565b60006040518083038186803b158015610f4f57600080fd5b505afa158015610f63573d6000803e3d6000fd5b505050506040513d6000823e3d601f19601f82011682018060405250810190610f8c9190617322565b50915050610fa181610f9c61167a565b612557565b6060610fab613241565b509050610fb88183613276565b9250505090565b610fcd8442111560d1611d14565b6000600660008973ffffffffffffffffffffffffffffffffffffffff1673ffffffffffffffffffffffffffffffffffffffff16815260200190815260200160002054905060007f0000000000000000000000000000000000000000000000000000000000000000898989858a60405160200161104e96959493929190617c7a565b6040516020818303038152906040528051906020012090506000611071826132ff565b90506000600182888888604051600081526020016040526040516110989493929190617d87565b6020604051602081039080840390855afa1580156110ba573d6000803e3d6000fd5b505050602060405103519050611139600073ffffffffffffffffffffffffffffffffffffffff168273ffffffffffffffffffffffffffffffffffffffff161415801561113157508b73ffffffffffffffffffffffffffffffffffffffff168273ffffffffffffffffffffffffffffffffffffffff16145b6101f8611d14565b60018401600660008d73ffffffffffffffffffffffffffffffffffffffff1673ffffffffffffffffffffffffffffffffffffffff1681526020019081526020016000208190555061118b8b8b8b611443565b5050505050505050505050565b606080886111dc6111a7610ca4565b73ffffffffffffffffffffffffffffffffffffffff163373ffffffffffffffffffffffffffffffffffffffff161460cd611d14565b6111f16111e761092c565b82146101f4611d14565b60606111fb61167a565b905060006112076107ce565b14156112c1576000606061121e8d8d8d868b613338565b9150915061123761122d6133ea565b83101560cc611d14565b61124960006112446133ea565b6133f5565b61125c8b6112556133ea565b84036133f5565b611266818461265d565b8061126f6121c4565b67ffffffffffffffff8111801561128557600080fd5b506040519080825280602002602001820160405280156112b45781602001602082028036833780820191505090505b509550955050505061130f565b6112cb8882612557565b60006060806112e08e8e8e8e8e8e8a8f6125cf565b9250925092506112f08c846133f5565b6112fa828561265d565b61130481856122c7565b818196509650505050505b5097509795505050505050565b6000600160008473ffffffffffffffffffffffffffffffffffffffff1673ffffffffffffffffffffffffffffffffffffffff16815260200190815260200160002060008373ffffffffffffffffffffffffffffffffffffffff1673ffffffffffffffffffffffffffffffffffffffff16815260200190815260200160002054905092915050565b60606113ad613403565b905090565b60608190506113c081613a9d565b5050565b6113d18183146067611d14565b5050565b60008082840190506113eb848210156000611d14565b8091505092915050565b6000808267ffffffffffffffff901b198560001c1660001b90508284901b60001b81179150509392505050565b6000611432838311156001611d14565b600082840390508091505092915050565b80600160008573ffffffffffffffffffffffffffffffffffffffff1673ffffffffffffffffffffffffffffffffffffffff16815260200190815260200160002060008473ffffffffffffffffffffffffffffffffffffffff1673ffffffffffffffffffffffffffffffffffffffff168152602001908152602001600020819055508173ffffffffffffffffffffffffffffffffffffffff168373ffffffffffffffffffffffffffffffffffffffff167f8c5be1e5ebec7d5bd14f71427d1e84f3dd0314c0f7b2291e5b200ac8c7c3b925836040516115219190617e24565b60405180910390a3505050565b600061155d6000357fffffffff0000000000000000000000000000000000000000000000000000000016610bf3565b905061157461156c8233613b3b565b610191611d14565b50565b80156115975761159261158861162a565b4210610193611d14565b6115ad565b6115ac6115a2611652565b42106101a9611d14565b5b80600760006101000a81548160ff0219169083151502179055507f9e3a5e37224532dea67b89face185703738a228a6e8a23dee546960180d3be64816040516115f69190617bd6565b60405180910390a150565b600061160b611652565b4211806116255750600760009054906101000a900460ff16155b905090565b60007f0000000000000000000000000000000000000000000000000000000000000000905090565b60007f0000000000000000000000000000000000000000000000000000000000000000905090565b606060006116866121c4565b905060608167ffffffffffffffff811180156116a157600080fd5b506040519080825280602002602001820160405280156116d05781602001602082028036833780820191505090505b5090507f00000000000000000000000000000000000000000000000000000000000000008160008151811061170157fe5b6020026020010181815250507f00000000000000000000000000000000000000000000000000000000000000008160018151811061173b57fe5b602002602001018181525050600282111561178f577f00000000000000000000000000000000000000000000000000000000000000008160028151811061177e57fe5b602002602001018181525050611799565b8092505050611d11565b60038211156117e1577f0000000000000000000000000000000000000000000000000000000000000000816003815181106117d057fe5b6020026020010181815250506117eb565b8092505050611d11565b6004821115611833577f00000000000000000000000000000000000000000000000000000000000000008160048151811061182257fe5b60200260200101818152505061183d565b8092505050611d11565b6005821115611885577f00000000000000000000000000000000000000000000000000000000000000008160058151811061187457fe5b60200260200101818152505061188f565b8092505050611d11565b60068211156118d7577f0000000000000000000000000000000000000000000000000000000000000000816006815181106118c657fe5b6020026020010181815250506118e1565b8092505050611d11565b6007821115611929577f00000000000000000000000000000000000000000000000000000000000000008160078151811061191857fe5b602002602001018181525050611933565b8092505050611d11565b600882111561197b577f00000000000000000000000000000000000000000000000000000000000000008160088151811061196a57fe5b602002602001018181525050611985565b8092505050611d11565b60098211156119cd577f0000000000000000000000000000000000000000000000000000000000000000816009815181106119bc57fe5b6020026020010181815250506119d7565b8092505050611d11565b600a821115611a1f577f000000000000000000000000000000000000000000000000000000000000000081600a81518110611a0e57fe5b602002602001018181525050611a29565b8092505050611d11565b600b821115611a71577f000000000000000000000000000000000000000000000000000000000000000081600b81518110611a6057fe5b602002602001018181525050611a7b565b8092505050611d11565b600c821115611ac3577f000000000000000000000000000000000000000000000000000000000000000081600c81518110611ab257fe5b602002602001018181525050611acd565b8092505050611d11565b600d821115611b15577f000000000000000000000000000000000000000000000000000000000000000081600d81518110611b0457fe5b602002602001018181525050611b1f565b8092505050611d11565b600e821115611b67577f000000000000000000000000000000000000000000000000000000000000000081600e81518110611b5657fe5b602002602001018181525050611b71565b8092505050611d11565b600f821115611bb9577f000000000000000000000000000000000000000000000000000000000000000081600f81518110611ba857fe5b602002602001018181525050611bc3565b8092505050611d11565b6010821115611c0b577f000000000000000000000000000000000000000000000000000000000000000081601081518110611bfa57fe5b602002602001018181525050611c15565b8092505050611d11565b6011821115611c5d577f000000000000000000000000000000000000000000000000000000000000000081601181518110611c4c57fe5b602002602001018181525050611c67565b8092505050611d11565b6012821115611caf577f000000000000000000000000000000000000000000000000000000000000000081601281518110611c9e57fe5b602002602001018181525050611cb9565b8092505050611d11565b6013821115611d01577f000000000000000000000000000000000000000000000000000000000000000081601381518110611cf057fe5b602002602001018181525050611d0b565b8092505050611d11565b80925050505b90565b81611d2357611d2281613c78565b5b5050565b611d63600073ffffffffffffffffffffffffffffffffffffffff168473ffffffffffffffffffffffffffffffffffffffff161415610198611d14565b611d9f600073ffffffffffffffffffffffffffffffffffffffff168373ffffffffffffffffffffffffffffffffffffffff161415610199611d14565b611daa838383613ce8565b611dff816101a06000808773ffffffffffffffffffffffffffffffffffffffff1673ffffffffffffffffffffffffffffffffffffffff16815260200190815260200160002054613ced9092919063ffffffff16565b6000808573ffffffffffffffffffffffffffffffffffffffff1673ffffffffffffffffffffffffffffffffffffffff16815260200190815260200160002081905550611e92816000808573ffffffffffffffffffffffffffffffffffffffff1673ffffffffffffffffffffffffffffffffffffffff1681526020019081526020016000205461207190919063ffffffff16565b6000808473ffffffffffffffffffffffffffffffffffffffff1673ffffffffffffffffffffffffffffffffffffffff168152602001908152602001600020819055508173ffffffffffffffffffffffffffffffffffffffff168373ffffffffffffffffffffffffffffffffffffffff167fddf252ad1be2c89b69c2b068fc378daa952ba7f163c4a11628f55a4df523b3ef83604051611f319190617e24565b60405180910390a3505050565b60007f00000000000000000000000000000000000000000000000000000000000000007f00000000000000000000000000000000000000000000000000000000000000007f0000000000000000000000000000000000000000000000000000000000000000611fab613d0e565b30604051602001611fc0959493929190617cdb565b60405160208183030381529060405280519060200120905090565b611fee611fe6611601565b610192611d14565b565b61200364e8d4a5100082101560cb611d14565b61201967016345785d8a000082111560ca611d14565b6120318160c06008546113f59092919063ffffffff16565b6008819055507fa9ba3ffe0b6c366b81232caab38605a0699ad5398d6cce76f91ee809e322dafc816040516120669190617e24565b60405180910390a150565b6000808284019050612087848210156000611d14565b8091505092915050565b600061209b61092c565b905060006120a7610ca4565b73ffffffffffffffffffffffffffffffffffffffff1663b05f8e4883866040518363ffffffff1660e01b81526004016120e1929190617d5e565b60806040518083038186803b1580156120f957600080fd5b505afa15801561210d573d6000803e3d6000fd5b505050506040513d601f19601f820116820180604052508101906121319190617881565b93505050508073ffffffffffffffffffffffffffffffffffffffff166318e736d483856040518363ffffffff1660e01b8152600401612171929190617d2e565b600060405180830381600087803b15801561218b57600080fd5b505af115801561219f573d6000803e3d6000fd5b5050505050505050565b600067ffffffffffffffff8284901c60001c16905092915050565b60007f0000000000000000000000000000000000000000000000000000000000000000905090565b6000606080606060006121fd613241565b91509150612209611601565b1561224157600061221a838c613276565b905061222c8b8484600954858e613d16565b935061223b8b85613dd5613df6565b50612292565b6122496121c4565b67ffffffffffffffff8111801561225f57600080fd5b5060405190808252806020026020018201604052801561228e5781602001602082028036833780820191505090505b5092505b61229e8a838989613e65565b80955081965050506122b18a8584613f1d565b6009819055505050985098509895505050505050565b60005b6122d26121c4565b81101561232c576123098382815181106122e857fe5b60200260200101518383815181106122fc57fe5b60200260200101516124f3565b83828151811061231557fe5b6020026020010181815250508060010190506122ca565b505050565b3073ffffffffffffffffffffffffffffffffffffffff163373ffffffffffffffffffffffffffffffffffffffff161461245c5760003073ffffffffffffffffffffffffffffffffffffffff1660003660405161238e929190617b12565b6000604051808303816000865af19150503d80600081146123cb576040519150601f19603f3d011682016040523d82523d6000602084013e6123d0565b606091505b5050905080600081146123df57fe5b60046000803e7fffffffff000000000000000000000000000000000000000000000000000000006000511660007f43adbafb000000000000000000000000000000000000000000000000000000008214141561243f573d6000803e3d6000fd5b6020600460003e604060205260243d03602460403e601c3d016000f35b606061246661167a565b90506124728782612557565b6000606061248a8c8c8c8c8c8c898d8d63ffffffff16565b509150915061249d81848663ffffffff16565b6020815102602082038381526343adbafb60208203526004810390506044820181fd5b60008082840290506124e960008514806124e25750838583816124df57fe5b04145b6003611d14565b8091505092915050565b600061250460008314156004611d14565b60008314156125165760009050612551565b6000670de0b6b3a764000084029050612543670de0b6b3a764000085838161253a57fe5b04146005611d14565b82818161254c57fe5b049150505b92915050565b60005b6125626121c4565b8110156125bc5761259983828151811061257857fe5b602002602001015183838151811061258c57fe5b6020026020010151613f3f565b8382815181106125a557fe5b60200260200101818152505080600101905061255a565b505050565b6125cb8282613f83565b5050565b60006060806125dc611fdb565b606060006125e8613241565b9150915060006125f8838c613276565b9050606061260c8c8585600954868f613d16565b905061261b8c82613dd5613df6565b6000606061262b8e878d8d6140e7565b9150915061263a8e828861419e565b600981905550818184985098509850505050505050985098509895505050505050565b60005b6126686121c4565b8110156126c25761269f83828151811061267e57fe5b602002602001015183838151811061269257fe5b60200260200101516141c0565b8382815181106126ab57fe5b602002602001018181525050806001019050612660565b505050565b60007f000000000000000000000000000000000000000000000000000000000000000073ffffffffffffffffffffffffffffffffffffffff168273ffffffffffffffffffffffffffffffffffffffff161415612745577f00000000000000000000000000000000000000000000000000000000000000009050613085565b7f000000000000000000000000000000000000000000000000000000000000000073ffffffffffffffffffffffffffffffffffffffff168273ffffffffffffffffffffffffffffffffffffffff1614156127c1577f00000000000000000000000000000000000000000000000000000000000000009050613085565b7f000000000000000000000000000000000000000000000000000000000000000073ffffffffffffffffffffffffffffffffffffffff168273ffffffffffffffffffffffffffffffffffffffff16141561283d577f00000000000000000000000000000000000000000000000000000000000000009050613085565b7f000000000000000000000000000000000000000000000000000000000000000073ffffffffffffffffffffffffffffffffffffffff168273ffffffffffffffffffffffffffffffffffffffff1614156128b9577f00000000000000000000000000000000000000000000000000000000000000009050613085565b7f000000000000000000000000000000000000000000000000000000000000000073ffffffffffffffffffffffffffffffffffffffff168273ffffffffffffffffffffffffffffffffffffffff161415612935577f00000000000000000000000000000000000000000000000000000000000000009050613085565b7f000000000000000000000000000000000000000000000000000000000000000073ffffffffffffffffffffffffffffffffffffffff168273ffffffffffffffffffffffffffffffffffffffff1614156129b1577f00000000000000000000000000000000000000000000000000000000000000009050613085565b7f000000000000000000000000000000000000000000000000000000000000000073ffffffffffffffffffffffffffffffffffffffff168273ffffffffffffffffffffffffffffffffffffffff161415612a2d577f00000000000000000000000000000000000000000000000000000000000000009050613085565b7f000000000000000000000000000000000000000000000000000000000000000073ffffffffffffffffffffffffffffffffffffffff168273ffffffffffffffffffffffffffffffffffffffff161415612aa9577f00000000000000000000000000000000000000000000000000000000000000009050613085565b7f000000000000000000000000000000000000000000000000000000000000000073ffffffffffffffffffffffffffffffffffffffff168273ffffffffffffffffffffffffffffffffffffffff161415612b25577f00000000000000000000000000000000000000000000000000000000000000009050613085565b7f000000000000000000000000000000000000000000000000000000000000000073ffffffffffffffffffffffffffffffffffffffff168273ffffffffffffffffffffffffffffffffffffffff161415612ba1577f00000000000000000000000000000000000000000000000000000000000000009050613085565b7f000000000000000000000000000000000000000000000000000000000000000073ffffffffffffffffffffffffffffffffffffffff168273ffffffffffffffffffffffffffffffffffffffff161415612c1d577f00000000000000000000000000000000000000000000000000000000000000009050613085565b7f000000000000000000000000000000000000000000000000000000000000000073ffffffffffffffffffffffffffffffffffffffff168273ffffffffffffffffffffffffffffffffffffffff161415612c99577f00000000000000000000000000000000000000000000000000000000000000009050613085565b7f000000000000000000000000000000000000000000000000000000000000000073ffffffffffffffffffffffffffffffffffffffff168273ffffffffffffffffffffffffffffffffffffffff161415612d15577f00000000000000000000000000000000000000000000000000000000000000009050613085565b7f000000000000000000000000000000000000000000000000000000000000000073ffffffffffffffffffffffffffffffffffffffff168273ffffffffffffffffffffffffffffffffffffffff161415612d91577f00000000000000000000000000000000000000000000000000000000000000009050613085565b7f000000000000000000000000000000000000000000000000000000000000000073ffffffffffffffffffffffffffffffffffffffff168273ffffffffffffffffffffffffffffffffffffffff161415612e0d577f00000000000000000000000000000000000000000000000000000000000000009050613085565b7f000000000000000000000000000000000000000000000000000000000000000073ffffffffffffffffffffffffffffffffffffffff168273ffffffffffffffffffffffffffffffffffffffff161415612e89577f00000000000000000000000000000000000000000000000000000000000000009050613085565b7f000000000000000000000000000000000000000000000000000000000000000073ffffffffffffffffffffffffffffffffffffffff168273ffffffffffffffffffffffffffffffffffffffff161415612f05577f00000000000000000000000000000000000000000000000000000000000000009050613085565b7f000000000000000000000000000000000000000000000000000000000000000073ffffffffffffffffffffffffffffffffffffffff168273ffffffffffffffffffffffffffffffffffffffff161415612f81577f00000000000000000000000000000000000000000000000000000000000000009050613085565b7f000000000000000000000000000000000000000000000000000000000000000073ffffffffffffffffffffffffffffffffffffffff168273ffffffffffffffffffffffffffffffffffffffff161415612ffd577f00000000000000000000000000000000000000000000000000000000000000009050613085565b7f000000000000000000000000000000000000000000000000000000000000000073ffffffffffffffffffffffffffffffffffffffff168273ffffffffffffffffffffffffffffffffffffffff161415613079577f00000000000000000000000000000000000000000000000000000000000000009050613085565b613084610135613c78565b5b919050565b6000806130a7613098610a17565b8461422a90919063ffffffff16565b90506130bc8184613dd590919063ffffffff16565b915050919050565b60006130d08383613f3f565b905092915050565b60006130e2611fdb565b61310b836130f38660200151614288565b846131018860400151614288565b8860600151614c4b565b90509392505050565b600061312083836124f3565b905092915050565b6000613132611fdb565b61315b836131438660200151614288565b846131518860400151614288565b8860600151614cfc565b90509392505050565b600061317083836141c0565b905092915050565b60006131ae61319f613188610a17565b670de0b6b3a7640000613dd590919063ffffffff16565b836141c090919063ffffffff16565b9050919050565b60006131bf610ca4565b73ffffffffffffffffffffffffffffffffffffffff1663aaabadc56040518163ffffffff1660e01b815260040160206040518083038186803b15801561320457600080fd5b505afa158015613218573d6000803e3d6000fd5b505050506040513d601f19601f8201168201806040525081019061323c91906174ea565b905090565b6060600061324d613403565b7f0000000000000000000000000000000000000000000000000000000000000000915091509091565b6000670de0b6b3a7640000905060005b83518110156132e9576132da6132cb8583815181106132a157fe5b60200260200101518584815181106132b557fe5b6020026020010151614dbf90919063ffffffff16565b83613f3f90919063ffffffff16565b91508080600101915050613286565b506132f960008211610137611d14565b92915050565b6000613309611f3e565b8260405160200161331b929190617b2b565b604051602081830303815290604052805190602001209050919050565b60006060613344611fdb565b600061334f84614e10565b90506133756000600381111561336157fe5b82600381111561336d57fe5b1460ce611d14565b606061338085614e2d565b905061339461338d6121c4565b82516113c4565b61339e8187612557565b60606133a8613241565b50905060006133b78284613276565b905060006133cc826133c76121c4565b6124c0565b90508160098190555080849650965050505050509550959350505050565b6000620f4240905090565b6133ff8282614e4e565b5050565b6060600061340f6121c4565b905060608167ffffffffffffffff8111801561342a57600080fd5b506040519080825280602002602001820160405280156134595781602001602082028036833780820191505090505b5090507f00000000000000000000000000000000000000000000000000000000000000008160008151811061348a57fe5b6020026020010181815250507f0000000000000000000000000000000000000000000000000000000000000000816001815181106134c457fe5b6020026020010181815250506002821115613518577f00000000000000000000000000000000000000000000000000000000000000008160028151811061350757fe5b602002602001018181525050613522565b8092505050613a9a565b600382111561356a577f00000000000000000000000000000000000000000000000000000000000000008160038151811061355957fe5b602002602001018181525050613574565b8092505050613a9a565b60048211156135bc577f0000000000000000000000000000000000000000000000000000000000000000816004815181106135ab57fe5b6020026020010181815250506135c6565b8092505050613a9a565b600582111561360e577f0000000000000000000000000000000000000000000000000000000000000000816005815181106135fd57fe5b602002602001018181525050613618565b8092505050613a9a565b6006821115613660577f00000000000000000000000000000000000000000000000000000000000000008160068151811061364f57fe5b60200260200101818152505061366a565b8092505050613a9a565b60078211156136b2577f0000000000000000000000000000000000000000000000000000000000000000816007815181106136a157fe5b6020026020010181815250506136bc565b8092505050613a9a565b6008821115613704577f0000000000000000000000000000000000000000000000000000000000000000816008815181106136f357fe5b60200260200101818152505061370e565b8092505050613a9a565b6009821115613756577f00000000000000000000000000000000000000000000000000000000000000008160098151811061374557fe5b602002602001018181525050613760565b8092505050613a9a565b600a8211156137a8577f000000000000000000000000000000000000000000000000000000000000000081600a8151811061379757fe5b6020026020010181815250506137b2565b8092505050613a9a565b600b8211156137fa577f000000000000000000000000000000000000000000000000000000000000000081600b815181106137e957fe5b602002602001018181525050613804565b8092505050613a9a565b600c82111561384c577f000000000000000000000000000000000000000000000000000000000000000081600c8151811061383b57fe5b602002602001018181525050613856565b8092505050613a9a565b600d82111561389e577f000000000000000000000000000000000000000000000000000000000000000081600d8151811061388d57fe5b6020026020010181815250506138a8565b8092505050613a9a565b600e8211156138f0577f000000000000000000000000000000000000000000000000000000000000000081600e815181106138df57fe5b6020026020010181815250506138fa565b8092505050613a9a565b600f821115613942577f000000000000000000000000000000000000000000000000000000000000000081600f8151811061393157fe5b60200260200101818152505061394c565b8092505050613a9a565b6010821115613994577f00000000000000000000000000000000000000000000000000000000000000008160108151811061398357fe5b60200260200101818152505061399e565b8092505050613a9a565b60118211156139e6577f0000000000000000000000000000000000000000000000000000000000000000816011815181106139d557fe5b6020026020010181815250506139f0565b8092505050613a9a565b6012821115613a38577f000000000000000000000000000000000000000000000000000000000000000081601281518110613a2757fe5b602002602001018181525050613a42565b8092505050613a9a565b6013821115613a8a577f000000000000000000000000000000000000000000000000000000000000000081601381518110613a7957fe5b602002602001018181525050613a94565b8092505050613a9a565b80925050505b90565b600281511015613aac57613b38565b600081600081518110613abb57fe5b602002602001015190506000600190505b8251811015613b35576000838281518110613ae357fe5b60200260200101519050613b268173ffffffffffffffffffffffffffffffffffffffff168473ffffffffffffffffffffffffffffffffffffffff16106065611d14565b80925050806001019050613acc565b50505b50565b600073ba1ba1ba1ba1ba1ba1ba1ba1ba1ba1ba1ba1ba1b73ffffffffffffffffffffffffffffffffffffffff16613b70610c7c565b73ffffffffffffffffffffffffffffffffffffffff1614158015613b995750613b9883614f72565b5b15613bdb57613ba6610c7c565b73ffffffffffffffffffffffffffffffffffffffff163373ffffffffffffffffffffffffffffffffffffffff16149050613c72565b613be36131b5565b73ffffffffffffffffffffffffffffffffffffffff16639be2a8848484306040518463ffffffff1660e01b8152600401613c1f93929190617c43565b60206040518083038186803b158015613c3757600080fd5b505afa158015613c4b573d6000803e3d6000fd5b505050506040513d601f19601f82011682018060405250810190613c6f91906173ca565b90505b92915050565b6030600a820601600a820491506030600a830601600a830492506030600a8406018060101b8260081b8401016642414c230000000160c81b7f08c379a000000000000000000000000000000000000000000000000000000000600052602060045260076024528060445260646000fd5b505050565b6000613cfc8484111583611d14565b60008385039050809150509392505050565b600046905090565b606080613d216121c4565b67ffffffffffffffff81118015613d3757600080fd5b50604051908082528060200260200182016040528015613d665781602001602082028036833780820191505090505b5090506000831415613d7b5780915050613dcb565b613dae888781518110613d8a57fe5b6020026020010151888881518110613d9e57fe5b6020026020010151878787614fa6565b818781518110613dba57fe5b602002602001018181525050809150505b9695505050505050565b6000613de5838311156001611d14565b600082840390508091505092915050565b60005b613e016121c4565b811015613e5f57613e3c848281518110613e1757fe5b6020026020010151848381518110613e2b57fe5b60200260200101518463ffffffff16565b848281518110613e4857fe5b602002602001018181525050806001019050613df9565b50505050565b600060606000613e748461505b565b905060006003811115613e8357fe5b816003811115613e8f57fe5b1415613eaa57613ea0878786615078565b9250925050613f14565b60016003811115613eb757fe5b816003811115613ec357fe5b1415613edd57613ed38785615178565b9250925050613f14565b60026003811115613eea57fe5b816003811115613ef657fe5b1415613f1257613f08878787876151ae565b9250925050613f14565b505b94509492505050565b6000613f2c8484613dd5613df6565b613f368285613276565b90509392505050565b6000808284029050613f686000851480613f61575083858381613f5e57fe5b04145b6003611d14565b670de0b6b3a76400008181613f7957fe5b0491505092915050565b613fbf600073ffffffffffffffffffffffffffffffffffffffff168373ffffffffffffffffffffffffffffffffffffffff16141561019b611d14565b613fcb82600083613ce8565b614020816101a16000808673ffffffffffffffffffffffffffffffffffffffff1673ffffffffffffffffffffffffffffffffffffffff16815260200190815260200160002054613ced9092919063ffffffff16565b6000808473ffffffffffffffffffffffffffffffffffffffff1673ffffffffffffffffffffffffffffffffffffffff168152602001908152602001600020819055506140778160025461523490919063ffffffff16565b600281905550600073ffffffffffffffffffffffffffffffffffffffff168273ffffffffffffffffffffffffffffffffffffffff167fddf252ad1be2c89b69c2b068fc378daa952ba7f163c4a11628f55a4df523b3ef836040516140db9190617e24565b60405180910390a35050565b6000606060006140f684614e10565b90506001600381111561410557fe5b81600381111561411157fe5b141561412d576141238787878761524a565b9250925050614195565b6002600381111561413a57fe5b81600381111561414657fe5b1415614161576141578787866152c7565b9250925050614195565b60038081111561416d57fe5b81600381111561417957fe5b14156141935761418987856153bf565b9250925050614195565b505b94509492505050565b60006141ad84846113d5613df6565b6141b78285613276565b90509392505050565b60006141d160008314156004611d14565b60008314156141e35760009050614224565b6000670de0b6b3a764000084029050614210670de0b6b3a764000085838161420757fe5b04146005611d14565b600183600183038161421e57fe5b04019150505b92915050565b6000808284029050614253600085148061424c57508385838161424957fe5b04145b6003611d14565b6000811415614266576000915050614282565b6001670de0b6b3a7640000600183038161427c57fe5b04019150505b92915050565b60007f000000000000000000000000000000000000000000000000000000000000000073ffffffffffffffffffffffffffffffffffffffff168273ffffffffffffffffffffffffffffffffffffffff161415614306577f00000000000000000000000000000000000000000000000000000000000000009050614c46565b7f000000000000000000000000000000000000000000000000000000000000000073ffffffffffffffffffffffffffffffffffffffff168273ffffffffffffffffffffffffffffffffffffffff161415614382577f00000000000000000000000000000000000000000000000000000000000000009050614c46565b7f000000000000000000000000000000000000000000000000000000000000000073ffffffffffffffffffffffffffffffffffffffff168273ffffffffffffffffffffffffffffffffffffffff1614156143fe577f00000000000000000000000000000000000000000000000000000000000000009050614c46565b7f000000000000000000000000000000000000000000000000000000000000000073ffffffffffffffffffffffffffffffffffffffff168273ffffffffffffffffffffffffffffffffffffffff16141561447a577f00000000000000000000000000000000000000000000000000000000000000009050614c46565b7f000000000000000000000000000000000000000000000000000000000000000073ffffffffffffffffffffffffffffffffffffffff168273ffffffffffffffffffffffffffffffffffffffff1614156144f6577f00000000000000000000000000000000000000000000000000000000000000009050614c46565b7f000000000000000000000000000000000000000000000000000000000000000073ffffffffffffffffffffffffffffffffffffffff168273ffffffffffffffffffffffffffffffffffffffff161415614572577f00000000000000000000000000000000000000000000000000000000000000009050614c46565b7f000000000000000000000000000000000000000000000000000000000000000073ffffffffffffffffffffffffffffffffffffffff168273ffffffffffffffffffffffffffffffffffffffff1614156145ee577f00000000000000000000000000000000000000000000000000000000000000009050614c46565b7f000000000000000000000000000000000000000000000000000000000000000073ffffffffffffffffffffffffffffffffffffffff168273ffffffffffffffffffffffffffffffffffffffff16141561466a577f00000000000000000000000000000000000000000000000000000000000000009050614c46565b7f000000000000000000000000000000000000000000000000000000000000000073ffffffffffffffffffffffffffffffffffffffff168273ffffffffffffffffffffffffffffffffffffffff1614156146e6577f00000000000000000000000000000000000000000000000000000000000000009050614c46565b7f000000000000000000000000000000000000000000000000000000000000000073ffffffffffffffffffffffffffffffffffffffff168273ffffffffffffffffffffffffffffffffffffffff161415614762577f00000000000000000000000000000000000000000000000000000000000000009050614c46565b7f000000000000000000000000000000000000000000000000000000000000000073ffffffffffffffffffffffffffffffffffffffff168273ffffffffffffffffffffffffffffffffffffffff1614156147de577f00000000000000000000000000000000000000000000000000000000000000009050614c46565b7f000000000000000000000000000000000000000000000000000000000000000073ffffffffffffffffffffffffffffffffffffffff168273ffffffffffffffffffffffffffffffffffffffff16141561485a577f00000000000000000000000000000000000000000000000000000000000000009050614c46565b7f000000000000000000000000000000000000000000000000000000000000000073ffffffffffffffffffffffffffffffffffffffff168273ffffffffffffffffffffffffffffffffffffffff1614156148d6577f00000000000000000000000000000000000000000000000000000000000000009050614c46565b7f000000000000000000000000000000000000000000000000000000000000000073ffffffffffffffffffffffffffffffffffffffff168273ffffffffffffffffffffffffffffffffffffffff161415614952577f00000000000000000000000000000000000000000000000000000000000000009050614c46565b7f000000000000000000000000000000000000000000000000000000000000000073ffffffffffffffffffffffffffffffffffffffff168273ffffffffffffffffffffffffffffffffffffffff1614156149ce577f00000000000000000000000000000000000000000000000000000000000000009050614c46565b7f000000000000000000000000000000000000000000000000000000000000000073ffffffffffffffffffffffffffffffffffffffff168273ffffffffffffffffffffffffffffffffffffffff161415614a4a577f00000000000000000000000000000000000000000000000000000000000000009050614c46565b7f000000000000000000000000000000000000000000000000000000000000000073ffffffffffffffffffffffffffffffffffffffff168273ffffffffffffffffffffffffffffffffffffffff161415614ac6577f00000000000000000000000000000000000000000000000000000000000000009050614c46565b7f000000000000000000000000000000000000000000000000000000000000000073ffffffffffffffffffffffffffffffffffffffff168273ffffffffffffffffffffffffffffffffffffffff161415614b42577f00000000000000000000000000000000000000000000000000000000000000009050614c46565b7f000000000000000000000000000000000000000000000000000000000000000073ffffffffffffffffffffffffffffffffffffffff168273ffffffffffffffffffffffffffffffffffffffff161415614bbe577f00000000000000000000000000000000000000000000000000000000000000009050614c46565b7f000000000000000000000000000000000000000000000000000000000000000073ffffffffffffffffffffffffffffffffffffffff168273ffffffffffffffffffffffffffffffffffffffff161415614c3a577f00000000000000000000000000000000000000000000000000000000000000009050614c46565b614c45610135613c78565b5b919050565b6000614c76614c6b670429d069189e000088613f3f90919063ffffffff16565b831115610130611d14565b6000614c8b83886113d590919063ffffffff16565b90506000614ca282896141c090919063ffffffff16565b90506000614cb986896124f390919063ffffffff16565b90506000614cd082846153f590919063ffffffff16565b9050614ced614cde82615432565b89613f3f90919063ffffffff16565b94505050505095945050505050565b6000614d27614d1c670429d069189e000086613f3f90919063ffffffff16565b831115610131611d14565b6000614d4e614d3f8487613dd590919063ffffffff16565b866141c090919063ffffffff16565b90506000614d6587866141c090919063ffffffff16565b90506000614d7c82846153f590919063ffffffff16565b90506000614d9b670de0b6b3a764000083613dd590919063ffffffff16565b9050614db0818b61422a90919063ffffffff16565b94505050505095945050505050565b600080614dcc848461545d565b90506000614de6614ddf8361271061422a565b60016113d5565b905080821015614dfb57600092505050614e0a565b614e058282613dd5565b925050505b92915050565b600081806020019051810190614e269190617682565b9050919050565b606081806020019051810190614e4391906176ab565b905080915050919050565b614e5a60008383613ce8565b614e6f8160025461207190919063ffffffff16565b600281905550614ec6816000808573ffffffffffffffffffffffffffffffffffffffff1673ffffffffffffffffffffffffffffffffffffffff1681526020019081526020016000205461207190919063ffffffff16565b6000808473ffffffffffffffffffffffffffffffffffffffff1673ffffffffffffffffffffffffffffffffffffffff168152602001908152602001600020819055508173ffffffffffffffffffffffffffffffffffffffff16600073ffffffffffffffffffffffffffffffffffffffff167fddf252ad1be2c89b69c2b068fc378daa952ba7f163c4a11628f55a4df523b3ef83604051614f669190617e24565b60405180910390a35050565b6000614f846338e9922e60e01b610bf3565b821480614f9f5750614f9c6350dd6ed960e01b610bf3565b82145b9050919050565b6000838311614fb85760009050615052565b6000614fcd84866141c090919063ffffffff16565b90506000614fec87670de0b6b3a76400006124f390919063ffffffff16565b9050615000826709b6e64a8ec60000615601565b9150600061501782846153f590919063ffffffff16565b9050600061503661502783615432565b8b613f3f90919063ffffffff16565b905061504b8682613f3f90919063ffffffff16565b9450505050505b95945050505050565b6000818060200190518101906150719190617567565b9050919050565b60006060615084611fdb565b6000806150908561561b565b915091506150a861509f6121c4565b82106064611d14565b6000806150ec8984815181106150ba57fe5b60200260200101518985815181106150ce57fe5b6020026020010151866150df6107ce565b6150e7610a17565b615642565b915091506150fa838261575c565b60606151046121c4565b67ffffffffffffffff8111801561511a57600080fd5b506040519080825280602002602001820160405280156151495781602001602082028036833780820191505090505b5090508281858151811061515957fe5b6020026020010181815250508481965096505050505050935093915050565b60006060600061518784615760565b9050606061519d86836151986107ce565b615781565b905081819350935050509250929050565b600060606151ba611fdb565b606060006151c78561584a565b915091506151dd82516151d86121c4565b6113c4565b6151e78287612557565b600060606152068a8a866151f96107ce565b615201610a17565b615872565b915091506152188383111560cf611d14565b615221816159e9565b8184955095505050505094509492505050565b600061524283836001613ced565b905092915050565b6000606080600061525a85615a39565b915091506152706152696121c4565b83516113c4565b61527a8287612557565b600060606152998a8a8661528c6107ce565b615294610a17565b615a61565b915091506152a6816159e9565b6152b48383101560d0611d14565b8184955095505050505094509492505050565b600060606000806152d785615c01565b915091506152ef6152e66121c4565b82106064611d14565b60008061533389848151811061530157fe5b602002602001015189858151811061531557fe5b6020026020010151866153266107ce565b61532e610a17565b615c28565b91509150615341838261575c565b606061534b6121c4565b67ffffffffffffffff8111801561536157600080fd5b506040519080825280602002602001820160405280156153905781602001602082028036833780820191505090505b509050828185815181106153a057fe5b6020026020010181815250508481965096505050505050935093915050565b6000606060006153ce84615d64565b905060606153e486836153df6107ce565b615d85565b905081819350935050509250929050565b600080615402848461545d565b9050600061541c6154158361271061422a565b60016113d5565b905061542882826113d5565b9250505092915050565b6000670de0b6b3a7640000821061544a576000615456565b81670de0b6b3a7640000035b9050919050565b60008082141561547757670de0b6b3a764000090506155fb565b600083141561548957600090506155fb565b6154b67f800000000000000000000000000000000000000000000000000000000000000084106006611d14565b60008390506154fa68056bc75e2d631000007f4000000000000000000000000000000000000000000000000000000000000000816154f057fe5b0484106007611d14565b600083905060008267016345785d8a0000670de0b6b3a764000003128015615533575067016345785d8a0000670de0b6b3a76400000183125b1561558757600061554384615e4e565b9050670de0b6b3a764000083670de0b6b3a7640000838161556057fe5b07028161556957fe5b0583670de0b6b3a7640000838161557c57fe5b050201915050615595565b8161559184615ffb565b0290505b670de0b6b3a764000081816155a657fe5b0590506155ec817ffffffffffffffffffffffffffffffffffffffffffffffffdc702bd3a30fc0000131580156155e5575068070c1cc73b00c800008213155b6008611d14565b6155f581616492565b93505050505b92915050565b6000818310156156115781615613565b825b905092915050565b600080828060200190518101906156329190617633565b9091508092508193505050915091565b600080600061566c8561565e8888613dd590919063ffffffff16565b6141c090919063ffffffff16565b90506156856709b6e64a8ec60000821015610132611d14565b60006156b46156a589670de0b6b3a76400006124f390919063ffffffff16565b836153f590919063ffffffff16565b905060006156d36156c483615432565b8b613f3f90919063ffffffff16565b905060006156e08a615432565b905060006156f7828461422a90919063ffffffff16565b9050600061570e8285613dd590919063ffffffff16565b9050615723898361422a90919063ffffffff16565b965061574a61573b8884613dd590919063ffffffff16565b826113d590919063ffffffff16565b97505050505050509550959350505050565b5050565b60008180602001905181019061577691906175f7565b905080915050919050565b6060600061579883856124f390919063ffffffff16565b90506060855167ffffffffffffffff811180156157b457600080fd5b506040519080825280602002602001820160405280156157e35781602001602082028036833780820191505090505b50905060005b865181101561583d576158188388838151811061580257fe5b6020026020010151613f3f90919063ffffffff16565b82828151811061582457fe5b60200260200101818152505080806001019150506157e9565b5080925050509392505050565b60606000828060200190518101906158629190617590565b9091508092508193505050915091565b6000606080855167ffffffffffffffff8111801561588f57600080fd5b506040519080825280602002602001820160405280156158be5781602001602082028036833780820191505090505b5090506000805b895181101561599e5761592c8a82815181106158dd57fe5b602002602001015161591e8a84815181106158f457fe5b60200260200101518d858151811061590857fe5b6020026020010151613dd590919063ffffffff16565b6141c090919063ffffffff16565b83828151811061593857fe5b60200260200101818152505061598f6159808a838151811061595657fe5b602002602001015185848151811061596a57fe5b602002602001015161422a90919063ffffffff16565b836113d590919063ffffffff16565b915080806001019150506158c5565b50600060606159b18b8b8b87878c61697c565b9150915060006159d26159c384615432565b8a61422a90919063ffffffff16565b905080829650965050505050509550959350505050565b6159fb81516159f66121c4565b6113c4565b60005b615a066121c4565b811015615a3557615a2a81838381518110615a1d57fe5b602002602001015161575c565b8060010190506159fe565b5050565b6060600082806020019051810190615a5191906176ff565b9091508092508193505050915091565b6000606080855167ffffffffffffffff81118015615a7e57600080fd5b50604051908082528060200260200182016040528015615aad5781602001602082028036833780820191505090505b5090506000805b8951811015615b8d57615b1b8a8281518110615acc57fe5b6020026020010151615b0d8a8481518110615ae357fe5b60200260200101518d8581518110615af757fe5b60200260200101516113d590919063ffffffff16565b6124f390919063ffffffff16565b838281518110615b2757fe5b602002602001018181525050615b7e615b6f8a8381518110615b4557fe5b6020026020010151858481518110615b5957fe5b6020026020010151613f3f90919063ffffffff16565b836113d590919063ffffffff16565b91508080600101915050615ab4565b5060006060615ba08b8b8b87878c616b7e565b915091506000670de0b6b3a76400008311615bbc576000615bea565b615be9615bda670de0b6b3a764000085613dd590919063ffffffff16565b8a613f3f90919063ffffffff16565b5b905080829650965050505050509550959350505050565b60008082806020019051810190615c1891906177a2565b9091508092508193505050915091565b6000806000615c5285615c4488886113d590919063ffffffff16565b6141c090919063ffffffff16565b9050615c6b6729a2241af62c0000821115610133611d14565b6000615c9a615c8b89670de0b6b3a76400006141c090919063ffffffff16565b836153f590919063ffffffff16565b90506000615ccb615cbc670de0b6b3a764000084613dd590919063ffffffff16565b8b61422a90919063ffffffff16565b90506000615cd88a615432565b90506000615cef828461422a90919063ffffffff16565b90506000615d068285613dd590919063ffffffff16565b90506000615d37615d288b670de0b6b3a7640000613dd590919063ffffffff16565b846141c090919063ffffffff16565b90508281039750615d5181836113d590919063ffffffff16565b9850505050505050509550959350505050565b600081806020019051810190615d7a9190617766565b905080915050919050565b60606000615d9c83856141c090919063ffffffff16565b90506060855167ffffffffffffffff81118015615db857600080fd5b50604051908082528060200260200182016040528015615de75781602001602082028036833780820191505090505b50905060005b8651811015615e4157615e1c83888381518110615e0657fe5b602002602001015161422a90919063ffffffff16565b828281518110615e2857fe5b6020026020010181815250508080600101915050615ded565b5080925050509392505050565b6000670de0b6b3a76400008202915060006ec097ce7bc90715b34b9f100000000083016ec097ce7bc90715b34b9f10000000008085030281615e8c57fe5b05905060006ec097ce7bc90715b34b9f100000000082830281615eab57fe5b059050600082905060008190506ec097ce7bc90715b34b9f100000000083830281615ed257fe5b05915060038281615edf57fe5b05810190506ec097ce7bc90715b34b9f100000000083830281615efe57fe5b05915060058281615f0b57fe5b05810190506ec097ce7bc90715b34b9f100000000083830281615f2a57fe5b05915060078281615f3757fe5b05810190506ec097ce7bc90715b34b9f100000000083830281615f5657fe5b05915060098281615f6357fe5b05810190506ec097ce7bc90715b34b9f100000000083830281615f8257fe5b059150600b8281615f8f57fe5b05810190506ec097ce7bc90715b34b9f100000000083830281615fae57fe5b059150600d8281615fbb57fe5b05810190506ec097ce7bc90715b34b9f100000000083830281615fda57fe5b059150600f8281615fe757fe5b058101905060028102945050505050919050565b6000670de0b6b3a76400008212156160335761602982670de0b6b3a764000080028161602357fe5b05615ffb565b600003905061648d565b6000670de0b6b3a7640000770195e54c5dd42177f53a27172fa9ec63026282700000000002831261609157770195e54c5dd42177f53a27172fa9ec630262827000000000838161607f57fe5b0592506806f05b59d3b2000000810190505b670de0b6b3a76400006b1425982cf597cd205cef73800283126160d5576b1425982cf597cd205cef738083816160c357fe5b0592506803782dace9d9000000810190505b6064810290506064830292506e01855144814a7ff805980ff0084000831261612c576e01855144814a7ff805980ff008400068056bc75e2d6310000084028161611a57fe5b05925068ad78ebc5ac62000000810190505b6b02df0ab5a80a22c61ab5a7008312616171576b02df0ab5a80a22c61ab5a70068056bc75e2d6310000084028161615f57fe5b0592506856bc75e2d631000000810190505b693f1fce3da636ea5cf85083126161b257693f1fce3da636ea5cf85068056bc75e2d631000008402816161a057fe5b059250682b5e3af16b18800000810190505b690127fa27722cc06cc5e283126161f357690127fa27722cc06cc5e268056bc75e2d631000008402816161e157fe5b0592506815af1d78b58c400000810190505b68280e60114edb805d0383126162325768280e60114edb805d0368056bc75e2d6310000084028161622057fe5b059250680ad78ebc5ac6200000810190505b680ebc5fb41746121110831261627157680ebc5fb4174612111068056bc75e2d6310000084028161625f57fe5b05925068056bc75e2d63100000810190505b6808f00f760a4b2db55d83126162b0576808f00f760a4b2db55d68056bc75e2d6310000084028161629e57fe5b0592506802b5e3af16b1880000810190505b6806f5f177578893793783126162ef576806f5f177578893793768056bc75e2d631000008402816162dd57fe5b05925068015af1d78b58c40000810190505b6806248f33704b286603831261632d576806248f33704b28660368056bc75e2d6310000084028161631c57fe5b05925067ad78ebc5ac620000810190505b6805c548670b9510e7ac831261636b576805c548670b9510e7ac68056bc75e2d6310000084028161635a57fe5b0592506756bc75e2d6310000810190505b600068056bc75e2d63100000840168056bc75e2d63100000808603028161638e57fe5b059050600068056bc75e2d63100000828302816163a757fe5b0590506000829050600081905068056bc75e2d63100000838302816163c857fe5b059150600382816163d557fe5b058101905068056bc75e2d63100000838302816163ee57fe5b059150600582816163fb57fe5b058101905068056bc75e2d631000008383028161641457fe5b0591506007828161642157fe5b058101905068056bc75e2d631000008383028161643a57fe5b0591506009828161644757fe5b058101905068056bc75e2d631000008383028161646057fe5b059150600b828161646d57fe5b058101905060028102905060648186018161648457fe5b05955050505050505b919050565b60006164d77ffffffffffffffffffffffffffffffffffffffffffffffffdc702bd3a30fc000083121580156164d0575068070c1cc73b00c800008313155b6009611d14565b6000821215616506576164ec82600003616492565b670de0b6b3a76400008002816164fe57fe5b059050616977565b60006806f05b59d3b20000008312616546576806f05b59d3b200000083039250770195e54c5dd42177f53a27172fa9ec630262827000000000905061657e565b6803782dace9d90000008312616578576803782dace9d9000000830392506b1425982cf597cd205cef7380905061657d565b600190505b5b606483029250600068056bc75e2d63100000905068ad78ebc5ac6200000084126165d75768ad78ebc5ac620000008403935068056bc75e2d631000006e01855144814a7ff805980ff00840008202816165d357fe5b0590505b6856bc75e2d6310000008412616619576856bc75e2d6310000008403935068056bc75e2d631000006b02df0ab5a80a22c61ab5a70082028161661557fe5b0590505b682b5e3af16b18800000841261665957682b5e3af16b188000008403935068056bc75e2d63100000693f1fce3da636ea5cf85082028161665557fe5b0590505b6815af1d78b58c4000008412616699576815af1d78b58c4000008403935068056bc75e2d63100000690127fa27722cc06cc5e282028161669557fe5b0590505b680ad78ebc5ac620000084126166d857680ad78ebc5ac62000008403935068056bc75e2d6310000068280e60114edb805d038202816166d457fe5b0590505b68056bc75e2d6310000084126167175768056bc75e2d631000008403935068056bc75e2d63100000680ebc5fb4174612111082028161671357fe5b0590505b6802b5e3af16b18800008412616756576802b5e3af16b18800008403935068056bc75e2d631000006808f00f760a4b2db55d82028161675257fe5b0590505b68015af1d78b58c4000084126167955768015af1d78b58c400008403935068056bc75e2d631000006806f5f177578893793782028161679157fe5b0590505b600068056bc75e2d63100000905060008590508082019150600268056bc75e2d63100000878302816167c357fe5b05816167cb57fe5b0590508082019150600368056bc75e2d63100000878302816167e957fe5b05816167f157fe5b0590508082019150600468056bc75e2d631000008783028161680f57fe5b058161681757fe5b0590508082019150600568056bc75e2d631000008783028161683557fe5b058161683d57fe5b0590508082019150600668056bc75e2d631000008783028161685b57fe5b058161686357fe5b0590508082019150600768056bc75e2d631000008783028161688157fe5b058161688957fe5b0590508082019150600868056bc75e2d63100000878302816168a757fe5b05816168af57fe5b0590508082019150600968056bc75e2d63100000878302816168cd57fe5b05816168d557fe5b0590508082019150600a68056bc75e2d63100000878302816168f357fe5b05816168fb57fe5b0590508082019150600b68056bc75e2d631000008783028161691957fe5b058161692157fe5b0590508082019150600c68056bc75e2d631000008783028161693f57fe5b058161694757fe5b059050808201915060648468056bc75e2d631000008486028161696657fe5b05028161696f57fe5b059450505050505b919050565b60006060855167ffffffffffffffff8111801561699857600080fd5b506040519080825280602002602001820160405280156169c75781602001602082028036833780820191505090505b509050670de0b6b3a7640000915060005b8851811015616b725760008682815181106169ef57fe5b6020026020010151861115616ac3576000616a2e616a0c88615432565b8c8581518110616a1857fe5b6020026020010151613f3f90919063ffffffff16565b90506000616a58828b8681518110616a4257fe5b6020026020010151613dd590919063ffffffff16565b90506000616a89616a7a89670de0b6b3a7640000613dd590919063ffffffff16565b836141c090919063ffffffff16565b9050818103868681518110616a9a57fe5b602002602001018181525050616ab981846113d590919063ffffffff16565b9350505050616ada565b878281518110616acf57fe5b602002602001015190505b6000616b278b8481518110616aeb57fe5b6020026020010151616b19848e8781518110616b0357fe5b6020026020010151613dd590919063ffffffff16565b6124f390919063ffffffff16565b9050616b61616b528b8581518110616b3b57fe5b602002602001015183614dbf90919063ffffffff16565b86613f3f90919063ffffffff16565b9450505080806001019150506169d8565b50965096945050505050565b60006060855167ffffffffffffffff81118015616b9a57600080fd5b50604051908082528060200260200182016040528015616bc95781602001602082028036833780820191505090505b509050670de0b6b3a7640000915060005b8851811015616d7c57600085878381518110616bf257fe5b60200260200101511115616ccd576000616c42616c20670de0b6b3a764000089613dd590919063ffffffff16565b8c8581518110616c2c57fe5b6020026020010151613f3f90919063ffffffff16565b90506000616c6c828b8681518110616c5657fe5b6020026020010151613dd590919063ffffffff16565b90506000616c83888361422a90919063ffffffff16565b9050616caa616c9b8284613dd590919063ffffffff16565b846113d590919063ffffffff16565b935080868681518110616cb957fe5b602002602001018181525050505050616ce4565b878281518110616cd957fe5b602002602001015190505b6000616d318b8481518110616cf557fe5b6020026020010151616d23848e8781518110616d0d57fe5b60200260200101516113d590919063ffffffff16565b6124f390919063ffffffff16565b9050616d6b616d5c8b8581518110616d4557fe5b602002602001015183614dbf90919063ffffffff16565b86613f3f90919063ffffffff16565b945050508080600101915050616bda565b50965096945050505050565b600081359050616d978161814e565b92915050565b600081519050616dac8161814e565b92915050565b600082601f830112616dc357600080fd5b8151616dd6616dd182617ebb565b617e8a565b91508181835260208401935060208101905083856020840282011115616dfb57600080fd5b60005b83811015616e2b5781616e11888261700d565b845260208401935060208301925050600181019050616dfe565b5050505092915050565b600082601f830112616e4657600080fd5b8135616e59616e5482617ee7565b617e8a565b91508181835260208401935060208101905083856020840282011115616e7e57600080fd5b60005b83811015616eae5781616e948882617155565b845260208401935060208301925050600181019050616e81565b5050505092915050565b600082601f830112616ec957600080fd5b8151616edc616ed782617ee7565b617e8a565b91508181835260208401935060208101905083856020840282011115616f0157600080fd5b60005b83811015616f315781616f17888261716a565b845260208401935060208301925050600181019050616f04565b5050505092915050565b600081359050616f4a81618165565b92915050565b600081519050616f5f81618165565b92915050565b600081359050616f748161817c565b92915050565b600081359050616f8981618193565b92915050565b600082601f830112616fa057600080fd5b8135616fb3616fae82617f13565b617e8a565b91508082526020830160208301858383011115616fcf57600080fd5b616fda8382846180e5565b50505092915050565b600081519050616ff2816181aa565b92915050565b600081359050617007816181c1565b92915050565b60008151905061701c816181c1565b92915050565b600081519050617031816181d8565b92915050565b600081519050617046816181e8565b92915050565b60008135905061705b816181f8565b92915050565b6000610120828403121561707457600080fd5b61707f610120617e8a565b9050600061708f8482850161704c565b60008301525060206170a384828501616ff8565b60208301525060406170b784828501616ff8565b60408301525060606170cb84828501617155565b60608301525060806170df84828501616f65565b60808301525060a06170f384828501617155565b60a08301525060c061710784828501616d88565b60c08301525060e061711b84828501616d88565b60e08301525061010082013567ffffffffffffffff81111561713c57600080fd5b61714884828501616f8f565b6101008301525092915050565b60008135905061716481618208565b92915050565b60008151905061717981618208565b92915050565b60008135905061718e8161821f565b92915050565b6000602082840312156171a657600080fd5b60006171b484828501616d88565b91505092915050565b600080604083850312156171d057600080fd5b60006171de85828601616d88565b92505060206171ef85828601616d88565b9150509250929050565b60008060006060848603121561720e57600080fd5b600061721c86828701616d88565b935050602061722d86828701616d88565b925050604061723e86828701617155565b9150509250925092565b600080600080600080600060e0888a03121561726357600080fd5b60006172718a828b01616d88565b97505060206172828a828b01616d88565b96505060406172938a828b01617155565b95505060606172a48a828b01617155565b94505060806172b58a828b0161717f565b93505060a06172c68a828b01616f65565b92505060c06172d78a828b01616f65565b91505092959891949750929550565b600080604083850312156172f957600080fd5b600061730785828601616d88565b925050602061731885828601617155565b9150509250929050565b60008060006060848603121561733757600080fd5b600084015167ffffffffffffffff81111561735157600080fd5b61735d86828701616db2565b935050602084015167ffffffffffffffff81111561737a57600080fd5b61738686828701616eb8565b92505060406173978682870161716a565b9150509250925092565b6000602082840312156173b357600080fd5b60006173c184828501616f3b565b91505092915050565b6000602082840312156173dc57600080fd5b60006173ea84828501616f50565b91505092915050565b600080600080600080600060e0888a03121561740e57600080fd5b600061741c8a828b01616f65565b975050602061742d8a828b01616d88565b965050604061743e8a828b01616d88565b955050606088013567ffffffffffffffff81111561745b57600080fd5b6174678a828b01616e35565b94505060806174788a828b01617155565b93505060a06174898a828b01617155565b92505060c088013567ffffffffffffffff8111156174a657600080fd5b6174b28a828b01616f8f565b91505092959891949750929550565b6000602082840312156174d357600080fd5b60006174e184828501616f7a565b91505092915050565b6000602082840312156174fc57600080fd5b600061750a84828501616fe3565b91505092915050565b6000806040838503121561752657600080fd5b600061753485828601616ff8565b925050602083013567ffffffffffffffff81111561755157600080fd5b61755d85828601616f8f565b9150509250929050565b60006020828403121561757957600080fd5b600061758784828501617022565b91505092915050565b6000806000606084860312156175a557600080fd5b60006175b386828701617022565b935050602084015167ffffffffffffffff8111156175d057600080fd5b6175dc86828701616eb8565b92505060406175ed8682870161716a565b9150509250925092565b6000806040838503121561760a57600080fd5b600061761885828601617022565b92505060206176298582860161716a565b9150509250929050565b60008060006060848603121561764857600080fd5b600061765686828701617022565b93505060206176678682870161716a565b92505060406176788682870161716a565b9150509250925092565b60006020828403121561769457600080fd5b60006176a284828501617037565b91505092915050565b600080604083850312156176be57600080fd5b60006176cc85828601617037565b925050602083015167ffffffffffffffff8111156176e957600080fd5b6176f585828601616eb8565b9150509250929050565b60008060006060848603121561771457600080fd5b600061772286828701617037565b935050602084015167ffffffffffffffff81111561773f57600080fd5b61774b86828701616eb8565b925050604061775c8682870161716a565b9150509250925092565b6000806040838503121561777957600080fd5b600061778785828601617037565b92505060206177988582860161716a565b9150509250929050565b6000806000606084860312156177b757600080fd5b60006177c586828701617037565b93505060206177d68682870161716a565b92505060406177e78682870161716a565b9150509250925092565b60008060006060848603121561780657600080fd5b600084013567ffffffffffffffff81111561782057600080fd5b61782c86828701617061565b935050602061783d86828701617155565b925050604061784e86828701617155565b9150509250925092565b60006020828403121561786a57600080fd5b600061787884828501617155565b91505092915050565b6000806000806080858703121561789757600080fd5b60006178a58782880161716a565b94505060206178b68782880161716a565b93505060406178c78782880161716a565b92505060606178d887828801616d9d565b91505092959194509250565b60006178f08383617ab9565b60208301905092915050565b61790581617fca565b82525050565b600061791682617f53565b6179208185617f81565b935061792b83617f43565b8060005b8381101561795c57815161794388826178e4565b975061794e83617f74565b92505060018101905061792f565b5085935050505092915050565b61797281617fdc565b82525050565b61798181617fe8565b82525050565b61799861799382617fe8565b618127565b82525050565b6179af6179aa82617ff2565b618131565b82525050565b60006179c18385617fa3565b93506179ce8385846180e5565b82840190509392505050565b60006179e582617f5e565b6179ef8185617f92565b93506179ff8185602086016180f4565b617a088161813d565b840191505092915050565b617a1c81618079565b82525050565b617a2b8161809d565b82525050565b617a3a816180c1565b82525050565b6000617a4b82617f69565b617a558185617fae565b9350617a658185602086016180f4565b617a6e8161813d565b840191505092915050565b6000617a86600283617fbf565b91507f19010000000000000000000000000000000000000000000000000000000000006000830152600282019050919050565b617ac281618062565b82525050565b617ad181618062565b82525050565b617ae08161806c565b82525050565b6000617af28285617987565b602082019150617b02828461799e565b6004820191508190509392505050565b6000617b1f8284866179b5565b91508190509392505050565b6000617b3682617a79565b9150617b428285617987565b602082019150617b528284617987565b6020820191508190509392505050565b6000602082019050617b7760008301846178fc565b92915050565b60006020820190508181036000830152617b97818461790b565b905092915050565b60006040820190508181036000830152617bb9818561790b565b90508181036020830152617bcd818461790b565b90509392505050565b6000602082019050617beb6000830184617969565b92915050565b6000606082019050617c066000830186617969565b617c136020830185617ac8565b617c206040830184617ac8565b949350505050565b6000602082019050617c3d6000830184617978565b92915050565b6000606082019050617c586000830186617978565b617c6560208301856178fc565b617c7260408301846178fc565b949350505050565b600060c082019050617c8f6000830189617978565b617c9c60208301886178fc565b617ca960408301876178fc565b617cb66060830186617ac8565b617cc36080830185617ac8565b617cd060a0830184617ac8565b979650505050505050565b600060a082019050617cf06000830188617978565b617cfd6020830187617978565b617d0a6040830186617978565b617d176060830185617ac8565b617d2460808301846178fc565b9695505050505050565b6000604082019050617d436000830185617978565b8181036020830152617d5581846179da565b90509392505050565b6000604082019050617d736000830185617978565b617d806020830184617a22565b9392505050565b6000608082019050617d9c6000830187617978565b617da96020830186617ad7565b617db66040830185617978565b617dc36060830184617978565b95945050505050565b6000602082019050617de16000830184617a13565b92915050565b6000602082019050617dfc6000830184617a31565b92915050565b60006020820190508181036000830152617e1c8184617a40565b905092915050565b6000602082019050617e396000830184617ac8565b92915050565b6000604082019050617e546000830185617ac8565b8181036020830152617e66818461790b565b90509392505050565b6000602082019050617e846000830184617ad7565b92915050565b6000604051905081810181811067ffffffffffffffff82111715617eb157617eb061813b565b5b8060405250919050565b600067ffffffffffffffff821115617ed657617ed561813b565b5b602082029050602081019050919050565b600067ffffffffffffffff821115617f0257617f0161813b565b5b602082029050602081019050919050565b600067ffffffffffffffff821115617f2e57617f2d61813b565b5b601f19601f8301169050602081019050919050565b6000819050602082019050919050565b600081519050919050565b600081519050919050565b600081519050919050565b6000602082019050919050565b600082825260208201905092915050565b600082825260208201905092915050565b600081905092915050565b600082825260208201905092915050565b600081905092915050565b6000617fd582618042565b9050919050565b60008115159050919050565b6000819050919050565b60007fffffffff0000000000000000000000000000000000000000000000000000000082169050919050565b600061802982617fca565b9050919050565b600061803b82617fca565b9050919050565b600073ffffffffffffffffffffffffffffffffffffffff82169050919050565b6000819050919050565b600060ff82169050919050565b60006180848261808b565b9050919050565b600061809682618042565b9050919050565b60006180a8826180af565b9050919050565b60006180ba82618042565b9050919050565b60006180cc826180d3565b9050919050565b60006180de82618042565b9050919050565b82818337600083830152505050565b60005b838110156181125780820151818401526020810190506180f7565b83811115618121576000848401525b50505050565b6000819050919050565b6000819050919050565bfe5b6000601f19601f8301169050919050565b61815781617fca565b811461816257600080fd5b50565b61816e81617fdc565b811461817957600080fd5b50565b61818581617fe8565b811461819057600080fd5b50565b61819c81617ff2565b81146181a757600080fd5b50565b6181b38161801e565b81146181be57600080fd5b50565b6181ca81618030565b81146181d557600080fd5b50565b600481106181e557600080fd5b50565b600481106181f557600080fd5b50565b6002811061820557600080fd5b50565b61821181618062565b811461821c57600080fd5b50565b6182288161806c565b811461823357600080fd5b5056fea26469706673582212209cd23dbb04a9504ab4a70065e36d99fbc7078d86b9bd815eb1be201019a5d87b64736f6c63430007030033",
  "linkReferences": {},
  "deployedLinkReferences": {}
}