{
  "_format": "hh-sol-artifact-1",
  "contractName": "Vault",
  "sourceName": "contracts/Vault.sol",
  "abi": [
    {
      "inputs": [
        {
          "internalType": "contract IAuthorizer",
          "name": "authorizer",
          "type": "address"
        },
        {
          "internalType": "contract IWETH",
          "name": "weth",
          "type": "address"
        },
        {
          "internalType": "uint256",
          "name": "pauseWindowDuration",
          "type": "uint256"
        },
        {
          "internalType": "uint256",
          "name": "bufferPeriodDuration",
          "type": "uint256"
        }
      ],
      "stateMutability": "nonpayable",
      "type": "constructor"
    },
    {
      "anonymous": false,
      "inputs": [
        {
          "indexed": true,
          "internalType": "contract IAuthorizer",
          "name": "newAuthorizer",
          "type": "address"
        }
      ],
      "name": "AuthorizerChanged",
      "type": "event"
    },
    {
      "anonymous": false,
      "inputs": [
        {
          "indexed": true,
          "internalType": "contract IERC20",
          "name": "token",
          "type": "address"
        },
        {
          "indexed": true,
          "internalType": "address",
          "name": "sender",
          "type": "address"
        },
        {
          "indexed": false,
          "internalType": "address",
          "name": "recipient",
          "type": "address"
        },
        {
          "indexed": false,
          "internalType": "uint256",
          "name": "amount",
          "type": "uint256"
        }
      ],
      "name": "ExternalBalanceTransfer",
      "type": "event"
    },
    {
      "anonymous": false,
      "inputs": [
        {
          "indexed": true,
          "internalType": "contract IFlashLoanRecipient",
          "name": "recipient",
          "type": "address"
        },
        {
          "indexed": true,
          "internalType": "contract IERC20",
          "name": "token",
          "type": "address"
        },
        {
          "indexed": false,
          "internalType": "uint256",
          "name": "amount",
          "type": "uint256"
        },
        {
          "indexed": false,
          "internalType": "uint256",
          "name": "feeAmount",
          "type": "uint256"
        }
      ],
      "name": "FlashLoan",
      "type": "event"
    },
    {
      "anonymous": false,
      "inputs": [
        {
          "indexed": true,
          "internalType": "address",
          "name": "user",
          "type": "address"
        },
        {
          "indexed": true,
          "internalType": "contract IERC20",
          "name": "token",
          "type": "address"
        },
        {
          "indexed": false,
          "internalType": "int256",
          "name": "delta",
          "type": "int256"
        }
      ],
      "name": "InternalBalanceChanged",
      "type": "event"
    },
    {
      "anonymous": false,
      "inputs": [
        {
          "indexed": false,
          "internalType": "bool",
          "name": "paused",
          "type": "bool"
        }
      ],
      "name": "PausedStateChanged",
      "type": "event"
    },
    {
      "anonymous": false,
      "inputs": [
        {
          "indexed": true,
          "internalType": "bytes32",
          "name": "poolId",
          "type": "bytes32"
        },
        {
          "indexed": true,
          "internalType": "address",
          "name": "liquidityProvider",
          "type": "address"
        },
        {
          "indexed": false,
          "internalType": "contract IERC20[]",
          "name": "tokens",
          "type": "address[]"
        },
        {
          "indexed": false,
          "internalType": "int256[]",
          "name": "deltas",
          "type": "int256[]"
        },
        {
          "indexed": false,
          "internalType": "uint256[]",
          "name": "protocolFeeAmounts",
          "type": "uint256[]"
        }
      ],
      "name": "PoolBalanceChanged",
      "type": "event"
    },
    {
      "anonymous": false,
      "inputs": [
        {
          "indexed": true,
          "internalType": "bytes32",
          "name": "poolId",
          "type": "bytes32"
        },
        {
          "indexed": true,
          "internalType": "address",
          "name": "assetManager",
          "type": "address"
        },
        {
          "indexed": true,
          "internalType": "contract IERC20",
          "name": "token",
          "type": "address"
        },
        {
          "indexed": false,
          "internalType": "int256",
          "name": "cashDelta",
          "type": "int256"
        },
        {
          "indexed": false,
          "internalType": "int256",
          "name": "managedDelta",
          "type": "int256"
        }
      ],
      "name": "PoolBalanceManaged",
      "type": "event"
    },
    {
      "anonymous": false,
      "inputs": [
        {
          "indexed": true,
          "internalType": "bytes32",
          "name": "poolId",
          "type": "bytes32"
        },
        {
          "indexed": true,
          "internalType": "address",
          "name": "poolAddress",
          "type": "address"
        },
        {
          "indexed": false,
          "internalType": "enum IVault.PoolSpecialization",
          "name": "specialization",
          "type": "uint8"
        }
      ],
      "name": "PoolRegistered",
      "type": "event"
    },
    {
      "anonymous": false,
      "inputs": [
        {
          "indexed": true,
          "internalType": "address",
          "name": "relayer",
          "type": "address"
        },
        {
          "indexed": true,
          "internalType": "address",
          "name": "sender",
          "type": "address"
        },
        {
          "indexed": false,
          "internalType": "bool",
          "name": "approved",
          "type": "bool"
        }
      ],
      "name": "RelayerApprovalChanged",
      "type": "event"
    },
    {
      "anonymous": false,
      "inputs": [
        {
          "indexed": true,
          "internalType": "bytes32",
          "name": "poolId",
          "type": "bytes32"
        },
        {
          "indexed": true,
          "internalType": "contract IERC20",
          "name": "tokenIn",
          "type": "address"
        },
        {
          "indexed": true,
          "internalType": "contract IERC20",
          "name": "tokenOut",
          "type": "address"
        },
        {
          "indexed": false,
          "internalType": "uint256",
          "name": "amountIn",
          "type": "uint256"
        },
        {
          "indexed": false,
          "internalType": "uint256",
          "name": "amountOut",
          "type": "uint256"
        }
      ],
      "name": "Swap",
      "type": "event"
    },
    {
      "anonymous": false,
      "inputs": [
        {
          "indexed": true,
          "internalType": "bytes32",
          "name": "poolId",
          "type": "bytes32"
        },
        {
          "indexed": false,
          "internalType": "contract IERC20[]",
          "name": "tokens",
          "type": "address[]"
        }
      ],
      "name": "TokensDeregistered",
      "type": "event"
    },
    {
      "anonymous": false,
      "inputs": [
        {
          "indexed": true,
          "internalType": "bytes32",
          "name": "poolId",
          "type": "bytes32"
        },
        {
          "indexed": false,
          "internalType": "contract IERC20[]",
          "name": "tokens",
          "type": "address[]"
        },
        {
          "indexed": false,
          "internalType": "address[]",
          "name": "assetManagers",
          "type": "address[]"
        }
      ],
      "name": "TokensRegistered",
      "type": "event"
    },
    {
      "inputs": [],
      "name": "WETH",
      "outputs": [
        {
          "internalType": "contract IWETH",
          "name": "",
          "type": "address"
        }
      ],
      "stateMutability": "view",
      "type": "function"
    },
    {
      "inputs": [
        {
          "internalType": "enum IVault.SwapKind",
          "name": "kind",
          "type": "uint8"
        },
        {
          "components": [
            {
              "internalType": "bytes32",
              "name": "poolId",
              "type": "bytes32"
            },
            {
              "internalType": "uint256",
              "name": "assetInIndex",
              "type": "uint256"
            },
            {
              "internalType": "uint256",
              "name": "assetOutIndex",
              "type": "uint256"
            },
            {
              "internalType": "uint256",
              "name": "amount",
              "type": "uint256"
            },
            {
              "internalType": "bytes",
              "name": "userData",
              "type": "bytes"
            }
          ],
          "internalType": "struct IVault.BatchSwapStep[]",
          "name": "swaps",
          "type": "tuple[]"
        },
        {
          "internalType": "contract IAsset[]",
          "name": "assets",
          "type": "address[]"
        },
        {
          "components": [
            {
              "internalType": "address",
              "name": "sender",
              "type": "address"
            },
            {
              "internalType": "bool",
              "name": "fromInternalBalance",
              "type": "bool"
            },
            {
              "internalType": "address payable",
              "name": "recipient",
              "type": "address"
            },
            {
              "internalType": "bool",
              "name": "toInternalBalance",
              "type": "bool"
            }
          ],
          "internalType": "struct IVault.FundManagement",
          "name": "funds",
          "type": "tuple"
        },
        {
          "internalType": "int256[]",
          "name": "limits",
          "type": "int256[]"
        },
        {
          "internalType": "uint256",
          "name": "deadline",
          "type": "uint256"
        }
      ],
      "name": "batchSwap",
      "outputs": [
        {
          "internalType": "int256[]",
          "name": "assetDeltas",
          "type": "int256[]"
        }
      ],
      "stateMutability": "payable",
      "type": "function"
    },
    {
      "inputs": [
        {
          "internalType": "bytes32",
          "name": "poolId",
          "type": "bytes32"
        },
        {
          "internalType": "contract IERC20[]",
          "name": "tokens",
          "type": "address[]"
        }
      ],
      "name": "deregisterTokens",
      "outputs": [],
      "stateMutability": "nonpayable",
      "type": "function"
    },
    {
      "inputs": [
        {
          "internalType": "bytes32",
          "name": "poolId",
          "type": "bytes32"
        },
        {
          "internalType": "address",
          "name": "sender",
          "type": "address"
        },
        {
          "internalType": "address payable",
          "name": "recipient",
          "type": "address"
        },
        {
          "components": [
            {
              "internalType": "contract IAsset[]",
              "name": "assets",
              "type": "address[]"
            },
            {
              "internalType": "uint256[]",
              "name": "minAmountsOut",
              "type": "uint256[]"
            },
            {
              "internalType": "bytes",
              "name": "userData",
              "type": "bytes"
            },
            {
              "internalType": "bool",
              "name": "toInternalBalance",
              "type": "bool"
            }
          ],
          "internalType": "struct IVault.ExitPoolRequest",
          "name": "request",
          "type": "tuple"
        }
      ],
      "name": "exitPool",
      "outputs": [],
      "stateMutability": "nonpayable",
      "type": "function"
    },
    {
      "inputs": [
        {
          "internalType": "contract IFlashLoanRecipient",
          "name": "recipient",
          "type": "address"
        },
        {
          "internalType": "contract IERC20[]",
          "name": "tokens",
          "type": "address[]"
        },
        {
          "internalType": "uint256[]",
          "name": "amounts",
          "type": "uint256[]"
        },
        {
          "internalType": "bytes",
          "name": "userData",
          "type": "bytes"
        }
      ],
      "name": "flashLoan",
      "outputs": [],
      "stateMutability": "nonpayable",
      "type": "function"
    },
    {
      "inputs": [
        {
          "internalType": "bytes4",
          "name": "selector",
          "type": "bytes4"
        }
      ],
      "name": "getActionId",
      "outputs": [
        {
          "internalType": "bytes32",
          "name": "",
          "type": "bytes32"
        }
      ],
      "stateMutability": "view",
      "type": "function"
    },
    {
      "inputs": [],
      "name": "getAuthorizer",
      "outputs": [
        {
          "internalType": "contract IAuthorizer",
          "name": "",
          "type": "address"
        }
      ],
      "stateMutability": "view",
      "type": "function"
    },
    {
      "inputs": [],
      "name": "getDomainSeparator",
      "outputs": [
        {
          "internalType": "bytes32",
          "name": "",
          "type": "bytes32"
        }
      ],
      "stateMutability": "view",
      "type": "function"
    },
    {
      "inputs": [
        {
          "internalType": "address",
          "name": "user",
          "type": "address"
        },
        {
          "internalType": "contract IERC20[]",
          "name": "tokens",
          "type": "address[]"
        }
      ],
      "name": "getInternalBalance",
      "outputs": [
        {
          "internalType": "uint256[]",
          "name": "balances",
          "type": "uint256[]"
        }
      ],
      "stateMutability": "view",
      "type": "function"
    },
    {
      "inputs": [
        {
          "internalType": "address",
          "name": "user",
          "type": "address"
        }
      ],
      "name": "getNextNonce",
      "outputs": [
        {
          "internalType": "uint256",
          "name": "",
          "type": "uint256"
        }
      ],
      "stateMutability": "view",
      "type": "function"
    },
    {
      "inputs": [],
      "name": "getPausedState",
      "outputs": [
        {
          "internalType": "bool",
          "name": "paused",
          "type": "bool"
        },
        {
          "internalType": "uint256",
          "name": "pauseWindowEndTime",
          "type": "uint256"
        },
        {
          "internalType": "uint256",
          "name": "bufferPeriodEndTime",
          "type": "uint256"
        }
      ],
      "stateMutability": "view",
      "type": "function"
    },
    {
      "inputs": [
        {
          "internalType": "bytes32",
          "name": "poolId",
          "type": "bytes32"
        }
      ],
      "name": "getPool",
      "outputs": [
        {
          "internalType": "address",
          "name": "",
          "type": "address"
        },
        {
          "internalType": "enum IVault.PoolSpecialization",
          "name": "",
          "type": "uint8"
        }
      ],
      "stateMutability": "view",
      "type": "function"
    },
    {
      "inputs": [
        {
          "internalType": "bytes32",
          "name": "poolId",
          "type": "bytes32"
        },
        {
          "internalType": "contract IERC20",
          "name": "token",
          "type": "address"
        }
      ],
      "name": "getPoolTokenInfo",
      "outputs": [
        {
          "internalType": "uint256",
          "name": "cash",
          "type": "uint256"
        },
        {
          "internalType": "uint256",
          "name": "managed",
          "type": "uint256"
        },
        {
          "internalType": "uint256",
          "name": "lastChangeBlock",
          "type": "uint256"
        },
        {
          "internalType": "address",
          "name": "assetManager",
          "type": "address"
        }
      ],
      "stateMutability": "view",
      "type": "function"
    },
    {
      "inputs": [
        {
          "internalType": "bytes32",
          "name": "poolId",
          "type": "bytes32"
        }
      ],
      "name": "getPoolTokens",
      "outputs": [
        {
          "internalType": "contract IERC20[]",
          "name": "tokens",
          "type": "address[]"
        },
        {
          "internalType": "uint256[]",
          "name": "balances",
          "type": "uint256[]"
        },
        {
          "internalType": "uint256",
          "name": "lastChangeBlock",
          "type": "uint256"
        }
      ],
      "stateMutability": "view",
      "type": "function"
    },
    {
      "inputs": [],
      "name": "getProtocolFeesCollector",
      "outputs": [
        {
          "internalType": "contract IProtocolFeesCollector",
          "name": "",
          "type": "address"
        }
      ],
      "stateMutability": "view",
      "type": "function"
    },
    {
      "inputs": [
        {
          "internalType": "address",
          "name": "user",
          "type": "address"
        },
        {
          "internalType": "address",
          "name": "relayer",
          "type": "address"
        }
      ],
      "name": "hasApprovedRelayer",
      "outputs": [
        {
          "internalType": "bool",
          "name": "",
          "type": "bool"
        }
      ],
      "stateMutability": "view",
      "type": "function"
    },
    {
      "inputs": [
        {
          "internalType": "bytes32",
          "name": "poolId",
          "type": "bytes32"
        },
        {
          "internalType": "address",
          "name": "sender",
          "type": "address"
        },
        {
          "internalType": "address",
          "name": "recipient",
          "type": "address"
        },
        {
          "components": [
            {
              "internalType": "contract IAsset[]",
              "name": "assets",
              "type": "address[]"
            },
            {
              "internalType": "uint256[]",
              "name": "maxAmountsIn",
              "type": "uint256[]"
            },
            {
              "internalType": "bytes",
              "name": "userData",
              "type": "bytes"
            },
            {
              "internalType": "bool",
              "name": "fromInternalBalance",
              "type": "bool"
            }
          ],
          "internalType": "struct IVault.JoinPoolRequest",
          "name": "request",
          "type": "tuple"
        }
      ],
      "name": "joinPool",
      "outputs": [],
      "stateMutability": "payable",
      "type": "function"
    },
    {
      "inputs": [
        {
          "components": [
            {
              "internalType": "enum IVault.PoolBalanceOpKind",
              "name": "kind",
              "type": "uint8"
            },
            {
              "internalType": "bytes32",
              "name": "poolId",
              "type": "bytes32"
            },
            {
              "internalType": "contract IERC20",
              "name": "token",
              "type": "address"
            },
            {
              "internalType": "uint256",
              "name": "amount",
              "type": "uint256"
            }
          ],
          "internalType": "struct IVault.PoolBalanceOp[]",
          "name": "ops",
          "type": "tuple[]"
        }
      ],
      "name": "managePoolBalance",
      "outputs": [],
      "stateMutability": "nonpayable",
      "type": "function"
    },
    {
      "inputs": [
        {
          "components": [
            {
              "internalType": "enum IVault.UserBalanceOpKind",
              "name": "kind",
              "type": "uint8"
            },
            {
              "internalType": "contract IAsset",
              "name": "asset",
              "type": "address"
            },
            {
              "internalType": "uint256",
              "name": "amount",
              "type": "uint256"
            },
            {
              "internalType": "address",
              "name": "sender",
              "type": "address"
            },
            {
              "internalType": "address payable",
              "name": "recipient",
              "type": "address"
            }
          ],
          "internalType": "struct IVault.UserBalanceOp[]",
          "name": "ops",
          "type": "tuple[]"
        }
      ],
      "name": "manageUserBalance",
      "outputs": [],
      "stateMutability": "payable",
      "type": "function"
    },
    {
      "inputs": [
        {
          "internalType": "enum IVault.SwapKind",
          "name": "kind",
          "type": "uint8"
        },
        {
          "components": [
            {
              "internalType": "bytes32",
              "name": "poolId",
              "type": "bytes32"
            },
            {
              "internalType": "uint256",
              "name": "assetInIndex",
              "type": "uint256"
            },
            {
              "internalType": "uint256",
              "name": "assetOutIndex",
              "type": "uint256"
            },
            {
              "internalType": "uint256",
              "name": "amount",
              "type": "uint256"
            },
            {
              "internalType": "bytes",
              "name": "userData",
              "type": "bytes"
            }
          ],
          "internalType": "struct IVault.BatchSwapStep[]",
          "name": "swaps",
          "type": "tuple[]"
        },
        {
          "internalType": "contract IAsset[]",
          "name": "assets",
          "type": "address[]"
        },
        {
          "components": [
            {
              "internalType": "address",
              "name": "sender",
              "type": "address"
            },
            {
              "internalType": "bool",
              "name": "fromInternalBalance",
              "type": "bool"
            },
            {
              "internalType": "address payable",
              "name": "recipient",
              "type": "address"
            },
            {
              "internalType": "bool",
              "name": "toInternalBalance",
              "type": "bool"
            }
          ],
          "internalType": "struct IVault.FundManagement",
          "name": "funds",
          "type": "tuple"
        }
      ],
      "name": "queryBatchSwap",
      "outputs": [
        {
          "internalType": "int256[]",
          "name": "",
          "type": "int256[]"
        }
      ],
      "stateMutability": "nonpayable",
      "type": "function"
    },
    {
      "inputs": [
        {
          "internalType": "enum IVault.PoolSpecialization",
          "name": "specialization",
          "type": "uint8"
        }
      ],
      "name": "registerPool",
      "outputs": [
        {
          "internalType": "bytes32",
          "name": "",
          "type": "bytes32"
        }
      ],
      "stateMutability": "nonpayable",
      "type": "function"
    },
    {
      "inputs": [
        {
          "internalType": "bytes32",
          "name": "poolId",
          "type": "bytes32"
        },
        {
          "internalType": "contract IERC20[]",
          "name": "tokens",
          "type": "address[]"
        },
        {
          "internalType": "address[]",
          "name": "assetManagers",
          "type": "address[]"
        }
      ],
      "name": "registerTokens",
      "outputs": [],
      "stateMutability": "nonpayable",
      "type": "function"
    },
    {
      "inputs": [
        {
          "internalType": "contract IAuthorizer",
          "name": "newAuthorizer",
          "type": "address"
        }
      ],
      "name": "setAuthorizer",
      "outputs": [],
      "stateMutability": "nonpayable",
      "type": "function"
    },
    {
      "inputs": [
        {
          "internalType": "bool",
          "name": "paused",
          "type": "bool"
        }
      ],
      "name": "setPaused",
      "outputs": [],
      "stateMutability": "nonpayable",
      "type": "function"
    },
    {
      "inputs": [
        {
          "internalType": "address",
          "name": "sender",
          "type": "address"
        },
        {
          "internalType": "address",
          "name": "relayer",
          "type": "address"
        },
        {
          "internalType": "bool",
          "name": "approved",
          "type": "bool"
        }
      ],
      "name": "setRelayerApproval",
      "outputs": [],
      "stateMutability": "nonpayable",
      "type": "function"
    },
    {
      "inputs": [
        {
          "components": [
            {
              "internalType": "bytes32",
              "name": "poolId",
              "type": "bytes32"
            },
            {
              "internalType": "enum IVault.SwapKind",
              "name": "kind",
              "type": "uint8"
            },
            {
              "internalType": "contract IAsset",
              "name": "assetIn",
              "type": "address"
            },
            {
              "internalType": "contract IAsset",
              "name": "assetOut",
              "type": "address"
            },
            {
              "internalType": "uint256",
              "name": "amount",
              "type": "uint256"
            },
            {
              "internalType": "bytes",
              "name": "userData",
              "type": "bytes"
            }
          ],
          "internalType": "struct IVault.SingleSwap",
          "name": "singleSwap",
          "type": "tuple"
        },
        {
          "components": [
            {
              "internalType": "address",
              "name": "sender",
              "type": "address"
            },
            {
              "internalType": "bool",
              "name": "fromInternalBalance",
              "type": "bool"
            },
            {
              "internalType": "address payable",
              "name": "recipient",
              "type": "address"
            },
            {
              "internalType": "bool",
              "name": "toInternalBalance",
              "type": "bool"
            }
          ],
          "internalType": "struct IVault.FundManagement",
          "name": "funds",
          "type": "tuple"
        },
        {
          "internalType": "uint256",
          "name": "limit",
          "type": "uint256"
        },
        {
          "internalType": "uint256",
          "name": "deadline",
          "type": "uint256"
        }
      ],
      "name": "swap",
      "outputs": [
        {
          "internalType": "uint256",
          "name": "amountCalculated",
          "type": "uint256"
        }
      ],
      "stateMutability": "payable",
      "type": "function"
    },
    {
      "stateMutability": "payable",
      "type": "receive"
    }
  ],
  "bytecode": "0x6101806040523480156200001257600080fd5b506040516200aaa93803806200aaa983398181016040528101906200003891906200039a565b8382826040518060400160405280601181526020017f42616c616e636572205632205661756c74000000000000000000000000000000815250806040518060400160405280600181526020017f31000000000000000000000000000000000000000000000000000000000000008152503073ffffffffffffffffffffffffffffffffffffffff1660001b898073ffffffffffffffffffffffffffffffffffffffff1660808173ffffffffffffffffffffffffffffffffffffffff1660601b8152505050306040516200010a9062000347565b62000116919062000417565b604051809103906000f08015801562000133573d6000803e3d6000fd5b5073ffffffffffffffffffffffffffffffffffffffff1660a08173ffffffffffffffffffffffffffffffffffffffff1660601b8152505060016000819055508060c0818152505050818051906020012060e08181525050808051906020012061010081815250507f8b73c3c69bb8fe3d512ecc4cf759cc79239f7b179b0ffacaa9a75d522b39400f6101208181525050505050620001e06276a7008311156101946200023460201b60201c565b620001fa62278d008211156101956200023460201b60201c565b60008242019050806101408181525050818101610160818152505050505062000229816200025060201b60201c565b505050505062000510565b816200024c576200024b81620002d760201b60201c565b5b5050565b8073ffffffffffffffffffffffffffffffffffffffff167f94b979b6831a51293e2641426f97747feed46f17779fed9cd18d1ecefcfe92ef60405160405180910390a280600360016101000a81548173ffffffffffffffffffffffffffffffffffffffff021916908373ffffffffffffffffffffffffffffffffffffffff16021790555050565b6030600a820601600a820491506030600a830601600a830492506030600a8406018060101b8260081b8401016642414c230000000160c81b7f08c379a000000000000000000000000000000000000000000000000000000000600052602060045260076024528060445260646000fd5b611260806200984983390190565b6000815190506200036681620004c2565b92915050565b6000815190506200037d81620004dc565b92915050565b6000815190506200039481620004f6565b92915050565b60008060008060808587031215620003b157600080fd5b6000620003c18782880162000355565b9450506020620003d4878288016200036c565b9350506040620003e78782880162000383565b9250506060620003fa8782880162000383565b91505092959194509250565b62000411816200049a565b82525050565b60006020820190506200042e600083018462000406565b92915050565b6000620004418262000470565b9050919050565b6000620004558262000434565b9050919050565b6000620004698262000434565b9050919050565b600073ffffffffffffffffffffffffffffffffffffffff82169050919050565b6000819050919050565b6000620004a782620004ae565b9050919050565b6000620004bb8262000470565b9050919050565b620004cd8162000448565b8114620004d957600080fd5b50565b620004e7816200045c565b8114620004f357600080fd5b50565b620005018162000490565b81146200050d57600080fd5b50565b60805160601c60a05160601c60c05160e051610100516101205161014051610160516192d5620005746000398061237252508061234a52508061373952508061377b52508061375a5250806115785250806118fe5250806106ba52506192d56000f3fe6080604052600436106101855760003560e01c8063945bcec9116100d1578063e6c460921161008a578063f84d066e11610064578063f84d066e146105d4578063f94d466814610611578063fa6e671d14610650578063fec90d7214610679576101cd565b8063e6c4609214610542578063ed24911d1461056b578063f6c0092714610596576101cd565b8063945bcec914610435578063aaabadc514610465578063ad5c464814610490578063b05f8e48146104bb578063b95cac28146104fb578063d2946c2b14610517576101cd565b806352bbbe291161013e5780637d3aeb96116101185780637d3aeb9614610369578063851c1bb3146103925780638bdb3913146103cf57806390193b7c146103f8576101cd565b806352bbbe29146102e75780635c38449e1461031757806366a9c7d214610340576101cd565b8063058a628f146101d257806309b2760f146101fb5780630e8e3e84146102385780630f5a6efa1461025457806316c38b3c146102915780631c0de051146102ba576101cd565b366101cd576101cb6101956106b6565b73ffffffffffffffffffffffffffffffffffffffff163373ffffffffffffffffffffffffffffffffffffffff16146102066106de565b005b600080fd5b3480156101de57600080fd5b506101f960048036038101906101f49190617cd4565b6106f1565b005b34801561020757600080fd5b50610222600480360381019061021d9190617da8565b610715565b60405161022f9190618846565b60405180910390f35b610252600480360381019061024d919061797e565b610802565b005b34801561026057600080fd5b5061027b600480360381019061027691906178e9565b610979565b60405161028891906187d2565b60405180910390f35b34801561029d57600080fd5b506102b860048036038101906102b39190617a2b565b610a1a565b005b3480156102c657600080fd5b506102cf610a3e565b6040516102de9392919061880f565b60405180910390f35b61030160048036038101906102fc9190617f37565b610a67565b60405161030e9190618b41565b60405180910390f35b34801561032357600080fd5b5061033e60048036038101906103399190617cfd565b610d01565b005b34801561034c57600080fd5b5061036760048036038101906103629190617bf0565b61119e565b005b34801561037557600080fd5b50610390600480360381019061038b9190617b9c565b6113c9565b005b34801561039e57600080fd5b506103b960048036038101906103b49190617cab565b611574565b6040516103c69190618846565b60405180910390f35b3480156103db57600080fd5b506103f660048036038101906103f19190617aa6565b6115c6565b005b34801561040457600080fd5b5061041f600480360381019061041a9190617835565b6115e2565b60405161042c9190618b41565b60405180910390f35b61044f600480360381019061044a9190617e64565b61162b565b60405161045c91906187b0565b60405180910390f35b34801561047157600080fd5b5061047a611772565b6040516104879190618a00565b60405180910390f35b34801561049c57600080fd5b506104a561179c565b6040516104b29190618a36565b60405180910390f35b3480156104c757600080fd5b506104e260048036038101906104dd9190617c6f565b6117ab565b6040516104f29493929190618b85565b60405180910390f35b61051560048036038101906105109190617b21565b6118d6565b005b34801561052357600080fd5b5061052c6118fa565b6040516105399190618a1b565b60405180910390f35b34801561054e57600080fd5b506105696004803603810190610564919061793d565b611922565b005b34801561057757600080fd5b50610580611ae1565b60405161058d9190618846565b60405180910390f35b3480156105a257600080fd5b506105bd60048036038101906105b89190617a7d565b611af0565b6040516105cb929190618613565b60405180910390f35b3480156105e057600080fd5b506105fb60048036038101906105f69190617dd1565b611b19565b60405161060891906187b0565b60405180910390f35b34801561061d57600080fd5b5061063860048036038101906106339190617a7d565b611c6a565b6040516106479392919061876b565b60405180910390f35b34801561065c57600080fd5b506106776004803603810190610672919061789a565b611ca6565b005b34801561068557600080fd5b506106a0600480360381019061069b919061785e565b611dc7565b6040516106ad91906187f4565b60405180910390f35b60007f0000000000000000000000000000000000000000000000000000000000000000905090565b816106ed576106ec81611ddb565b5b5050565b6106f9611e4b565b610701611e67565b61070a81611eb0565b610712611f37565b50565b600061071f611e4b565b610727611f41565b60006107363384600654611f56565b90506107656005600083815260200190815260200160002060009054906101000a900460ff16156101f46106de565b60016005600083815260200190815260200160002060006101000a81548160ff02191690831515021790555060016006600082825401925050819055503373ffffffffffffffffffffffffffffffffffffffff16817f3c13bc30b8e878c53fd2a36b679409c073afd75950be43d8858768e956fbc20e856040516107e99190618a51565b60405180910390a3809150506107fd611f37565b919050565b61080a611e4b565b6000806000805b845181101561096157600080600080600061083f8a878151811061083157fe5b602002602001015189611fb1565b809d50819650829750839850849950859a505050505050506001600381111561086457fe5b85600381111561087057fe5b1415610887576108828483838661204b565b61094f565b8661089957610894611f41565b600196505b600060038111156108a657fe5b8560038111156108b257fe5b14156108ed576108c484838386612074565b6108cd8461209a565b156108e8576108e5838a6120d290919063ffffffff16565b98505b61094e565b6109026108f98561209a565b156102076106de565b600061090d856120f2565b90506002600381111561091c57fe5b86600381111561092857fe5b141561093f5761093a818484876120fc565b61094c565b61094b8184848761211b565b5b505b5b50505050508080600101915050610811565b5061096b836121bf565b505050610976611f37565b50565b6060815167ffffffffffffffff8111801561099357600080fd5b506040519080825280602002602001820160405280156109c25781602001602082028036833780820191505090505b50905060005b8251811015610a13576109ee848483815181106109e157fe5b602002602001015161220c565b8282815181106109fa57fe5b60200260200101818152505080806001019150506109c8565b5092915050565b610a22611e4b565b610a2a611e67565b610a3381612293565b610a3b611f37565b50565b6000806000610a4b61231d565b159250610a56612346565b9150610a6061236e565b9050909192565b6000610a71611e4b565b610a79611f41565b8360000151610a8781612396565b610a96834211156101fc6106de565b610aa960008760800151116101fe6106de565b6000610ab887604001516123f0565b90506000610ac988606001516123f0565b9050610b068173ffffffffffffffffffffffffffffffffffffffff168373ffffffffffffffffffffffffffffffffffffffff1614156101fd6106de565b610b0e616c5a565b8860000151816080018181525050886020015181600001906001811115610b3157fe5b90816001811115610b3e57fe5b8152505082816020019073ffffffffffffffffffffffffffffffffffffffff16908173ffffffffffffffffffffffffffffffffffffffff168152505081816040019073ffffffffffffffffffffffffffffffffffffffff16908173ffffffffffffffffffffffffffffffffffffffff168152505088608001518160600181815250508860a0015181610100018190525087600001518160c0019073ffffffffffffffffffffffffffffffffffffffff16908173ffffffffffffffffffffffffffffffffffffffff168152505087604001518160e0019073ffffffffffffffffffffffffffffffffffffffff16908173ffffffffffffffffffffffffffffffffffffffff1681525050600080610c528361241d565b809350819450829950505050610c9960006001811115610c6e57fe5b8c602001516001811115610c7e57fe5b14610c8c5789831115610c91565b898210155b6101fb6106de565b610cb18b60400151838c600001518d60200151612548565b610cc98b60600151828c604001518d60600151612658565b610ceb610cd98c6040015161209a565b610ce4576000610ce6565b825b6121bf565b505050505050610cf9611f37565b949350505050565b610d09611e4b565b610d11611f41565b610d1d83518351612779565b6060835167ffffffffffffffff81118015610d3757600080fd5b50604051908082528060200260200182016040528015610d665781602001602082028036833780820191505090505b5090506060845167ffffffffffffffff81118015610d8357600080fd5b50604051908082528060200260200182016040528015610db25781602001602082028036833780820191505090505b5090506000805b8651811015610f86576000878281518110610dd057fe5b602002602001015190506000878381518110610de857fe5b60200260200101519050610e678473ffffffffffffffffffffffffffffffffffffffff168373ffffffffffffffffffffffffffffffffffffffff1611600073ffffffffffffffffffffffffffffffffffffffff168473ffffffffffffffffffffffffffffffffffffffff1614610e5f576066610e62565b60685b6106de565b8193508173ffffffffffffffffffffffffffffffffffffffff166370a08231306040518263ffffffff1660e01b8152600401610ea391906185c1565b60206040518083038186803b158015610ebb57600080fd5b505afa158015610ecf573d6000803e3d6000fd5b505050506040513d601f19601f82011682018060405250810190610ef39190617fb2565b858481518110610eff57fe5b602002602001018181525050610f148161278a565b868481518110610f2057fe5b602002602001018181525050610f4e81868581518110610f3c57fe5b602002602001015110156102106106de565b610f798a828473ffffffffffffffffffffffffffffffffffffffff166128269092919063ffffffff16565b5050806001019050610db9565b508673ffffffffffffffffffffffffffffffffffffffff1663f04f2707878786886040518563ffffffff1660e01b8152600401610fc6949392919061870a565b600060405180830381600087803b158015610fe057600080fd5b505af1158015610ff4573d6000803e3d6000fd5b5050505060005b865181101561118c57600087828151811061101257fe5b60200260200101519050600084838151811061102a57fe5b6020026020010151905060008273ffffffffffffffffffffffffffffffffffffffff166370a08231306040518263ffffffff1660e01b815260040161106f91906185c1565b60206040518083038186803b15801561108757600080fd5b505afa15801561109b573d6000803e3d6000fd5b505050506040513d601f19601f820116820180604052508101906110bf9190617fb2565b90506110d0828210156102036106de565b600082820390506110f98886815181106110e657fe5b602002602001015182101561025a6106de565b61110384826128ac565b8373ffffffffffffffffffffffffffffffffffffffff168c73ffffffffffffffffffffffffffffffffffffffff167f0d7d75e01ab95780d3cd1c8ec0dd6c2ce19e3a20427eec8bf53283b6fb8e95f08c888151811061115e57fe5b602002602001015184604051611175929190618b5c565b60405180910390a350505050806001019050610ffb565b50505050611198611f37565b50505050565b6111a6611e4b565b6111ae611f41565b826111b8816128ec565b6111c483518351612779565b60005b83518110156112d25760008482815181106111de57fe5b60200260200101519050611224600073ffffffffffffffffffffffffffffffffffffffff168273ffffffffffffffffffffffffffffffffffffffff1614156101356106de565b83828151811061123057fe5b6020026020010151600a600088815260200190815260200160002060008373ffffffffffffffffffffffffffffffffffffffff1673ffffffffffffffffffffffffffffffffffffffff16815260200190815260200160002060006101000a81548173ffffffffffffffffffffffffffffffffffffffff021916908373ffffffffffffffffffffffffffffffffffffffff160217905550508060010190506111c7565b5060006112de8561293a565b90506002808111156112ec57fe5b8160028111156112f857fe5b14156113465761130e600285511461020c6106de565b611341858560008151811061131f57fe5b60200260200101518660018151811061133457fe5b6020026020010151612963565b611380565b6001600281111561135357fe5b81600281111561135f57fe5b14156113745761136f8585612b35565b61137f565b61137e8585612ba0565b5b5b847ff5847d3f2197b16cdcd2098ec95d0905cd1abdaf415f07bb7cef2bba8ac5dec485856040516113b2929190618687565b60405180910390a250506113c4611f37565b505050565b6113d1611e4b565b6113d9611f41565b816113e3816128ec565b60006113ee8461293a565b90506002808111156113fc57fe5b81600281111561140857fe5b14156114565761141e600284511461020c6106de565b611451848460008151811061142f57fe5b60200260200101518560018151811061144457fe5b6020026020010151612c10565b611490565b6001600281111561146357fe5b81600281111561146f57fe5b14156114845761147f8484612cbf565b61148f565b61148e8484612de8565b5b5b60005b835181101561152d57600a600086815260200190815260200160002060008583815181106114bd57fe5b602002602001015173ffffffffffffffffffffffffffffffffffffffff1673ffffffffffffffffffffffffffffffffffffffff16815260200190815260200160002060006101000a81549073ffffffffffffffffffffffffffffffffffffffff0219169055806001019050611493565b50837f7dcdc6d02ef40c7c1a7046a011b058bd7f988fa14e20a66344f9d4e60657d6108460405161155e9190618665565b60405180910390a25050611570611f37565b5050565b60007f0000000000000000000000000000000000000000000000000000000000000000826040516020016115a99291906184ed565b604051602081830303815290604052805190602001209050919050565b6115dc60018585856115d786612e6c565b612e7c565b50505050565b6000600260008373ffffffffffffffffffffffffffffffffffffffff1673ffffffffffffffffffffffffffffffffffffffff168152602001908152602001600020549050919050565b6060611635611e4b565b61163d611f41565b836000015161164b81612396565b61165a834211156101fc6106de565b61166686518551612779565b6116728787878b61303d565b91506000805b875181101561175457600088828151811061168f57fe5b6020026020010151905060008583815181106116a757fe5b602002602001015190506116d38884815181106116c057fe5b60200260200101518213156101fb6106de565b600081131561171f5760008190506116f583828c600001518d60200151612548565b6116fe8361209a565b156117195761171681866120d290919063ffffffff16565b94505b50611747565b600081121561174657600081600003905061174483828c604001518d60600151612658565b505b5b5050806001019050611678565b5061175e816121bf565b5050611768611f37565b9695505050505050565b6000600360019054906101000a900473ffffffffffffffffffffffffffffffffffffffff16905090565b60006117a66106b6565b905090565b600080600080856117bb816133eb565b6000806117c78961293a565b90506002808111156117d557fe5b8160028111156117e157fe5b14156117f8576117f1898961341a565b9150611836565b6001600281111561180557fe5b81600281111561181157fe5b14156118285761182189896134ca565b9150611835565b611832898961357e565b91505b5b61183f826135a9565b965061184a826135cb565b9550611855826135f1565b9450600a60008a815260200190815260200160002060008973ffffffffffffffffffffffffffffffffffffffff1673ffffffffffffffffffffffffffffffffffffffff16815260200190815260200160002060009054906101000a900473ffffffffffffffffffffffffffffffffffffffff16935050505092959194509250565b6118de611f41565b6118f460008585856118ef8661360d565b612e7c565b50505050565b60007f0000000000000000000000000000000000000000000000000000000000000000905090565b61192a611e4b565b611932611f41565b61193a616d0c565b60005b8251811015611ad45782818151811061195257fe5b6020026020010151915060008260200151905061196e816133eb565b60008360400151905061198c611984838361361d565b6102096106de565b611a363373ffffffffffffffffffffffffffffffffffffffff16600a600085815260200190815260200160002060008473ffffffffffffffffffffffffffffffffffffffff1673ffffffffffffffffffffffffffffffffffffffff16815260200190815260200160002060009054906101000a900473ffffffffffffffffffffffffffffffffffffffff1673ffffffffffffffffffffffffffffffffffffffff16146101f66106de565b600084600001519050600085606001519050600080611a57848787866136a0565b915091508473ffffffffffffffffffffffffffffffffffffffff163373ffffffffffffffffffffffffffffffffffffffff16877f6edcaf6241105b4c94c2efdbf3a6b12458eb3d07be3a0e81d24b13c44045fe7a8585604051611abb929190618a87565b60405180910390a450505050505080600101905061193d565b5050611ade611f37565b50565b6000611aeb613735565b905090565b60008082611afd816133eb565b611b06846137d2565b611b0f8561293a565b9250925050915091565b60603073ffffffffffffffffffffffffffffffffffffffff163373ffffffffffffffffffffffffffffffffffffffff1614611c405760003073ffffffffffffffffffffffffffffffffffffffff16600036604051611b78929190618519565b6000604051808303816000865af19150503d8060008114611bb5576040519150601f19603f3d011682016040523d82523d6000602084013e611bba565b606091505b505090508060008114611bc957fe5b60046000803e7fffffffff000000000000000000000000000000000000000000000000000000006000511660007ffa61cc120000000000000000000000000000000000000000000000000000000082141415611c29573d6000803e3d6000fd5b602060005260043d0380600460203e602081016000f35b6060611c4e8585858961303d565b9050602081510263fa61cc126020830352600482036024820181fd5b606080600083611c79816133eb565b6060611c84866137e3565b8092508196505050611c958161386a565b809450819550505050509193909250565b611cae611e4b565b611cb6611f41565b82611cc081612396565b81600460008673ffffffffffffffffffffffffffffffffffffffff1673ffffffffffffffffffffffffffffffffffffffff16815260200190815260200160002060008573ffffffffffffffffffffffffffffffffffffffff1673ffffffffffffffffffffffffffffffffffffffff16815260200190815260200160002060006101000a81548160ff0219169083151502179055508373ffffffffffffffffffffffffffffffffffffffff168373ffffffffffffffffffffffffffffffffffffffff167f46961fdb4502b646d5095fba7600486a8ac05041d55cdf0f16ed677180b5cad884604051611db191906187f4565b60405180910390a350611dc2611f37565b505050565b6000611dd38383613929565b905092915050565b6030600a820601600a820491506030600a830601600a830492506030600a8406018060101b8260081b8401016642414c230000000160c81b7f08c379a000000000000000000000000000000000000000000000000000000000600052602060045260076024528060445260646000fd5b611e5d600260005414156101906106de565b6002600081905550565b6000611e966000357fffffffff0000000000000000000000000000000000000000000000000000000016611574565b9050611ead611ea582336139bd565b6101916106de565b50565b8073ffffffffffffffffffffffffffffffffffffffff167f94b979b6831a51293e2641426f97747feed46f17779fed9cd18d1ecefcfe92ef60405160405180910390a280600360016101000a81548173ffffffffffffffffffffffffffffffffffffffff021916908373ffffffffffffffffffffffffffffffffffffffff16021790555050565b6001600081905550565b611f54611f4c61231d565b6101926106de565b565b6000808269ffffffffffffffffffff1660001b811790506050846002811115611f7b57fe5b60001b901b8117905060608573ffffffffffffffffffffffffffffffffffffffff1660001b901b81179050809150509392505050565b6000806000806000806000886060015190503373ffffffffffffffffffffffffffffffffffffffff168173ffffffffffffffffffffffffffffffffffffffff161461201e578761200857612003611e67565b600197505b61201d6120158233613929565b6101f76106de565b5b886000015189602001518a60400151838c608001518c965096509650965096509650509295509295509295565b61206083612058866123f0565b836000613a76565b5061206e8482846000612658565b50505050565b61208782612081866123f0565b83613ad0565b6120948482856000612548565b50505050565b60008073ffffffffffffffffffffffffffffffffffffffff168273ffffffffffffffffffffffffffffffffffffffff16149050919050565b60008082840190506120e88482101560006106de565b8091505092915050565b6000819050919050565b6121098385836000613a76565b50612115828583613ad0565b50505050565b60008111156121b9576121518383838773ffffffffffffffffffffffffffffffffffffffff16613b10909392919063ffffffff16565b8273ffffffffffffffffffffffffffffffffffffffff168473ffffffffffffffffffffffffffffffffffffffff167f540a1a3f28340caec336c81d8d7b3df139ee5cdc1839a4f283d7ebb7eaae2d5c84846040516121b092919061863c565b60405180910390a35b50505050565b6121ce813410156102046106de565b60008134039050600081111561220857612207813373ffffffffffffffffffffffffffffffffffffffff16613b9990919063ffffffff16565b5b5050565b6000600b60008473ffffffffffffffffffffffffffffffffffffffff1673ffffffffffffffffffffffffffffffffffffffff16815260200190815260200160002060008373ffffffffffffffffffffffffffffffffffffffff1673ffffffffffffffffffffffffffffffffffffffff16815260200190815260200160002054905092915050565b80156122b3576122ae6122a4612346565b42106101936106de565b6122c9565b6122c86122be61236e565b42106101a96106de565b5b80600360006101000a81548160ff0219169083151502179055507f9e3a5e37224532dea67b89face185703738a228a6e8a23dee546960180d3be648160405161231291906187f4565b60405180910390a150565b600061232761236e565b4211806123415750600360009054906101000a900460ff16155b905090565b60007f0000000000000000000000000000000000000000000000000000000000000000905090565b60007f0000000000000000000000000000000000000000000000000000000000000000905090565b8073ffffffffffffffffffffffffffffffffffffffff163373ffffffffffffffffffffffffffffffffffffffff16146123ed576123d1611e67565b6123db8133613929565b6123ec576123eb816101f7613c25565b5b5b50565b60006123fb8261209a565b61240d57612408826120f2565b612416565b6124156106b6565b5b9050919050565b60008060008061243085608001516137d2565b90506000612441866080015161293a565b905060028081111561244f57fe5b81600281111561245b57fe5b14156124725761246b8683613c8f565b94506124b0565b6001600281111561247f57fe5b81600281111561248b57fe5b14156124a25761249b8683613d83565b94506124af565b6124ac8683613e8a565b94505b5b6124c38660000151876060015187614119565b8094508195505050856040015173ffffffffffffffffffffffffffffffffffffffff16866020015173ffffffffffffffffffffffffffffffffffffffff1687608001517f2170c741c41531aec20e7c107c24eecfdd15e69c9bb0a8dd37b1840b9e0b207b8787604051612537929190618b5c565b60405180910390a450509193909250565b600083141561255657612652565b61255f8461209a565b156125ed5761257181156102026106de565b612580834710156102046106de565b6125886106b6565b73ffffffffffffffffffffffffffffffffffffffff1663d0e30db0846040518263ffffffff1660e01b81526004016000604051808303818588803b1580156125cf57600080fd5b505af11580156125e3573d6000803e3d6000fd5b5050505050612651565b60006125f8856120f2565b9050811561261857600061260f8483876001613a76565b90508085039450505b600084111561264f5761264e8330868473ffffffffffffffffffffffffffffffffffffffff16613b10909392919063ffffffff16565b5b505b5b50505050565b600083141561266657612773565b61266f8461209a565b156127215761268181156102026106de565b6126896106b6565b73ffffffffffffffffffffffffffffffffffffffff16632e1a7d4d846040518263ffffffff1660e01b81526004016126c19190618b41565b600060405180830381600087803b1580156126db57600080fd5b505af11580156126ef573d6000803e3d6000fd5b5050505061271c838373ffffffffffffffffffffffffffffffffffffffff16613b9990919063ffffffff16565b612772565b600061272c856120f2565b905081156127445761273f838286613ad0565b612770565b61276f83858373ffffffffffffffffffffffffffffffffffffffff166128269092919063ffffffff16565b5b505b5b50505050565b61278681831460676106de565b5050565b6000806127956118fa565b73ffffffffffffffffffffffffffffffffffffffff1663d877845c6040518163ffffffff1660e01b815260040160206040518083038186803b1580156127da57600080fd5b505afa1580156127ee573d6000803e3d6000fd5b505050506040513d601f19601f820116820180604052508101906128129190617fb2565b905061281e838261415d565b915050919050565b6128a78363a9059cbb60e01b848460405160240161284592919061863c565b604051602081830303815290604052907bffffffffffffffffffffffffffffffffffffffffffffffffffffffff19166020820180517bffffffffffffffffffffffffffffffffffffffffffffffffffffffff83818316178352505050506141bb565b505050565b60008111156128e8576128e76128c06118fa565b828473ffffffffffffffffffffffffffffffffffffffff166128269092919063ffffffff16565b5b5050565b6128f5816133eb565b612937612901826137d2565b73ffffffffffffffffffffffffffffffffffffffff163373ffffffffffffffffffffffffffffffffffffffff16146101f56106de565b50565b60008061ffff605084901c60001c16905061295a600382106101f46106de565b80915050919050565b61299e8173ffffffffffffffffffffffffffffffffffffffff168373ffffffffffffffffffffffffffffffffffffffff16141561020a6106de565b6129d78173ffffffffffffffffffffffffffffffffffffffff168373ffffffffffffffffffffffffffffffffffffffff161060666106de565b6000600960008581526020019081526020016000209050612aa9600073ffffffffffffffffffffffffffffffffffffffff168260000160009054906101000a900473ffffffffffffffffffffffffffffffffffffffff1673ffffffffffffffffffffffffffffffffffffffff16148015612aa15750600073ffffffffffffffffffffffffffffffffffffffff168260010160009054906101000a900473ffffffffffffffffffffffffffffffffffffffff1673ffffffffffffffffffffffffffffffffffffffff16145b61020b6106de565b828160000160006101000a81548173ffffffffffffffffffffffffffffffffffffffff021916908373ffffffffffffffffffffffffffffffffffffffff160217905550818160010160006101000a81548173ffffffffffffffffffffffffffffffffffffffff021916908373ffffffffffffffffffffffffffffffffffffffff16021790555050505050565b600060086000848152602001908152602001600020905060005b8251811015612b9a576000612b80848381518110612b6957fe5b60200260200101518461426f90919063ffffffff16565b9050612b8e8161020a6106de565b50806001019050612b4f565b50505050565b600060016000848152602001908152602001600020905060005b8251811015612c0a576000612bf0848381518110612bd457fe5b60200260200101516000801b856143459092919063ffffffff16565b9050612bfe8161020a6106de565b50806001019050612bba565b50505050565b6000806000612c208686866144bf565b925092509250612c4b612c328461459f565b8015612c435750612c428361459f565b5b61020d6106de565b60096000878152602001908152602001600020600080820160006101000a81549073ffffffffffffffffffffffffffffffffffffffff02191690556001820160006101000a81549073ffffffffffffffffffffffffffffffffffffffff021916905550508060000160009055505050505050565b600060086000848152602001908152602001600020905060005b8251811015612de2576000838281518110612cf057fe5b60200260200101519050612d5e612d566007600088815260200190815260200160002060008473ffffffffffffffffffffffffffffffffffffffff1673ffffffffffffffffffffffffffffffffffffffff1681526020019081526020016000205461459f565b61020d6106de565b6007600086815260200190815260200160002060008273ffffffffffffffffffffffffffffffffffffffff1673ffffffffffffffffffffffffffffffffffffffff168152602001908152602001600020600090556000612dc782856145d290919063ffffffff16565b9050612dd5816102096106de565b5050806001019050612cd9565b50505050565b600060016000848152602001908152602001600020905060005b8251811015612e66576000838281518110612e1957fe5b602002602001015190506000612e2f84836147bf565b9050612e45612e3d8261459f565b61020d6106de565b612e5882856147e090919063ffffffff16565b505050806001019050612e02565b50505050565b612e74616d58565b819050919050565b612e84611e4b565b83612e8e816133eb565b83612e9881612396565b612eac836000015151846020015151612779565b6060612ebb8460000151614a09565b90506060612ec98883614ad9565b90506060806060612ede8c8c8c8c8c89614b8a565b9250925092506000612eef8c61293a565b9050600280811115612efd57fe5b816002811115612f0957fe5b1415612f7157612f6c8c87600081518110612f2057fe5b602002602001015186600081518110612f3557fe5b602002602001015189600181518110612f4a57fe5b602002602001015188600181518110612f5f57fe5b6020026020010151614d83565b612fac565b60016002811115612f7e57fe5b816002811115612f8a57fe5b1415612fa057612f9b8c8786614dd7565b612fab565b612faa8c85614e6f565b5b5b6000806001811115612fba57fe5b8e6001811115612fc657fe5b1490508b73ffffffffffffffffffffffffffffffffffffffff168d7fe5ce249087ce04f05a957192435400fd97868dba0e6a4b4c049abf8af80dae788961300d8886614ecb565b8760405161301d939291906186be565b60405180910390a3505050505050505050613036611f37565b5050505050565b6060835167ffffffffffffffff8111801561305757600080fd5b506040519080825280602002602001820160405280156130865781602001602082028036833780820191505090505b509050613091616d82565b613099616c5a565b60008060005b89518110156133de578981815181106130b457fe5b602002602001015194506000895186602001511080156130d8575089518660400151105b90506130e58160646106de565b60006131078b8860200151815181106130fa57fe5b60200260200101516123f0565b9050600061312b8c89604001518151811061311e57fe5b60200260200101516123f0565b90506131688173ffffffffffffffffffffffffffffffffffffffff168373ffffffffffffffffffffffffffffffffffffffff1614156101fd6106de565b6000886060015114156131d957613184600085116101fe6106de565b60006131918b8484614f85565b73ffffffffffffffffffffffffffffffffffffffff168773ffffffffffffffffffffffffffffffffffffffff161490506131cd816101ff6106de565b85896060018181525050505b876000015187608001818152505089876000019060018111156131f857fe5b9081600181111561320557fe5b8152505081876020019073ffffffffffffffffffffffffffffffffffffffff16908173ffffffffffffffffffffffffffffffffffffffff168152505080876040019073ffffffffffffffffffffffffffffffffffffffff16908173ffffffffffffffffffffffffffffffffffffffff1681525050876060015187606001818152505087608001518761010001819052508a600001518760c0019073ffffffffffffffffffffffffffffffffffffffff16908173ffffffffffffffffffffffffffffffffffffffff16815250508a604001518760e0019073ffffffffffffffffffffffffffffffffffffffff16908173ffffffffffffffffffffffffffffffffffffffff16815250506000806133198961241d565b8093508194508299505050506133308c8585614fb5565b975061336461333e83614fe5565b8c8c602001518151811061334e57fe5b602002602001015161501d90919063ffffffff16565b8b8b602001518151811061337457fe5b6020026020010181815250506133b261338c82614fe5565b8c8c604001518151811061339c57fe5b602002602001015161506090919063ffffffff16565b8b8b60400151815181106133c257fe5b602002602001018181525050505050505080600101905061309f565b5050505050949350505050565b6134176005600083815260200190815260200160002060009054906101000a900460ff166101f46106de565b50565b600080600080600061342b876150a3565b9450945094509450508373ffffffffffffffffffffffffffffffffffffffff168673ffffffffffffffffffffffffffffffffffffffff16141561347457829450505050506134c4565b8173ffffffffffffffffffffffffffffffffffffffff168673ffffffffffffffffffffffffffffffffffffffff1614156134b457809450505050506134c4565b6134bf610209611ddb565b505050505b92915050565b6000806007600085815260200190815260200160002060008473ffffffffffffffffffffffffffffffffffffffff1673ffffffffffffffffffffffffffffffffffffffff168152602001908152602001600020549050600061352b8261516b565b806135575750613556846008600088815260200190815260200160002061517e90919063ffffffff16565b5b90508061357357613567856133eb565b613572610209611ddb565b5b819250505092915050565b6000806001600085815260200190815260200160002090506135a081846147bf565b91505092915050565b6000806dffffffffffffffffffffffffffff9050808360001c16915050919050565b6000806dffffffffffffffffffffffffffff905080607084901c60001c16915050919050565b60008063ffffffff90508060e084901c60001c16915050919050565b613615616d58565b819050919050565b6000806136298461293a565b905060028081111561363757fe5b81600281111561364357fe5b141561365b5761365384846151cd565b91505061369a565b6001600281111561366857fe5b81600281111561367457fe5b141561368c5761368484846152d4565b91505061369a565b6136968484615308565b9150505b92915050565b60008060006136ae8661293a565b9050600060028111156136bd57fe5b8760028111156136c957fe5b14156136e5576136db8682878761533c565b925092505061372c565b600160028111156136f257fe5b8760028111156136fe57fe5b141561371a57613710868287876153f0565b925092505061372c565b613726868287876154a6565b92509250505b94509492505050565b60007f00000000000000000000000000000000000000000000000000000000000000007f00000000000000000000000000000000000000000000000000000000000000007f00000000000000000000000000000000000000000000000000000000000000006137a2615526565b306040516020016137b7959493929190618968565b60405160208183030381529060405280519060200120905090565b600060608260001c901c9050919050565b60608060006137f18461293a565b90506002808111156137ff57fe5b81600281111561380b57fe5b14156138245761381a8461552e565b9250925050613865565b6001600281111561383157fe5b81600281111561383d57fe5b14156138565761384c846157b4565b9250925050613865565b61385f8461594f565b92509250505b915091565b60606000825167ffffffffffffffff8111801561388657600080fd5b506040519080825280602002602001820160405280156138b55781602001602082028036833780820191505090505b5091506000905060005b82518110156139235760008482815181106138d657fe5b602002602001015190506138e981615a91565b8483815181106138f557fe5b6020026020010181815250506139138361390e836135f1565b615aad565b92505080806001019150506138bf565b50915091565b6000600460008473ffffffffffffffffffffffffffffffffffffffff1673ffffffffffffffffffffffffffffffffffffffff16815260200190815260200160002060008373ffffffffffffffffffffffffffffffffffffffff1673ffffffffffffffffffffffffffffffffffffffff16815260200190815260200160002060009054906101000a900460ff16905092915050565b6000600360019054906101000a900473ffffffffffffffffffffffffffffffffffffffff1673ffffffffffffffffffffffffffffffffffffffff16639be2a8848484306040518463ffffffff1660e01b8152600401613a1e93929190618861565b60206040518083038186803b158015613a3657600080fd5b505afa158015613a4a573d6000803e3d6000fd5b505050506040513d601f19601f82011682018060405250810190613a6e9190617a54565b905092915050565b600080613a83868661220c565b9050613a9c8380613a945750848210155b6102016106de565b613aa68185615ac7565b915060008282039050613ac6878783613abe87614fe5565b600003615ae0565b5050949350505050565b6000613adc848461220c565b90506000613af383836120d290919063ffffffff16565b9050613b09858583613b0487614fe5565b615ae0565b5050505050565b613b93846323b872dd60e01b858585604051602401613b31939291906185dc565b604051602081830303815290604052907bffffffffffffffffffffffffffffffffffffffffffffffffffffffff19166020820180517bffffffffffffffffffffffffffffffffffffffffffffffffffffffff83818316178352505050506141bb565b50505050565b613ba8814710156101a36106de565b60008273ffffffffffffffffffffffffffffffffffffffff1682604051613bce906185ac565b60006040518083038185875af1925050503d8060008114613c0b576040519150601f19603f3d011682016040523d82523d6000602084013e613c10565b606091505b50509050613c20816101a46106de565b505050565b6000600260008473ffffffffffffffffffffffffffffffffffffffff1673ffffffffffffffffffffffffffffffffffffffff1681526020019081526020016000206000815480929190600101919050559050613c8a613c848483615bcc565b836106de565b505050565b600080600080613cac8660800151876020015188604001516144bf565b925092509250600080876040015173ffffffffffffffffffffffffffffffffffffffff16886020015173ffffffffffffffffffffffffffffffffffffffff161015613cfc57849150839050613d03565b8490508391505b613d0f88888484615d3a565b809850819350829450505050876040015173ffffffffffffffffffffffffffffffffffffffff16886020015173ffffffffffffffffffffffffffffffffffffffff1610613d6557613d608183615e5e565b613d70565b613d6f8282615e5e565b5b8360000181905550505050505092915050565b600080613d98846080015185602001516134ca565b90506000613dae856080015186604001516134ca565b9050613dbc85858484615d3a565b8095508193508294505050508160076000876080015181526020019081526020016000206000876020015173ffffffffffffffffffffffffffffffffffffffff1673ffffffffffffffffffffffffffffffffffffffff168152602001908152602001600020819055508060076000876080015181526020019081526020016000206000876040015173ffffffffffffffffffffffffffffffffffffffff1673ffffffffffffffffffffffffffffffffffffffff16815260200190815260200160002081905550505092915050565b600080600080600160008760800151815260200190815260200160002090506000613ec2876020015183615ea790919063ffffffff16565b90506000613edd886040015184615ea790919063ffffffff16565b90506000821480613eee5750600081145b15613f0c57613f0088608001516133eb565b613f0b610209611ddb565b5b6001820391506001810390506000613f2384615ef3565b905060608167ffffffffffffffff81118015613f3e57600080fd5b50604051908082528060200260200182016040528015613f6d5781602001602082028036833780820191505090505b50905060008a60a001818152505060005b82811015614008576000613f9b8288615f0190919063ffffffff16565b9050613fa681615a91565b838381518110613fb257fe5b602002602001018181525050613fd48c60a00151613fcf836135f1565b615aad565b8c60a001818152505085821415613fed57809850613ffa565b84821415613ff9578097505b5b508080600101915050613f7e565b508873ffffffffffffffffffffffffffffffffffffffff166301ec954a8b8387876040518563ffffffff1660e01b81526004016140489493929190618ab0565b602060405180830381600087803b15801561406257600080fd5b505af1158015614076573d6000803e3d6000fd5b505050506040513d601f19601f8201168201806040525081019061409a9190617fb2565b97506000806140b28c600001518d606001518c614119565b915091506140c9828a615f2490919063ffffffff16565b98506140de8189615f6c90919063ffffffff16565b97506140f5868a89615fb49092919063ffffffff16565b61410a858989615fb49092919063ffffffff16565b50505050505050505092915050565b6000806000600181111561412957fe5b85600181111561413557fe5b141561414a5783838092508193505050614155565b828480925081935050505b935093915050565b6000808284029050614186600085148061417f57508385838161417c57fe5b04145b60036106de565b60008114156141995760009150506141b5565b6001670de0b6b3a764000060018303816141af57fe5b04019150505b92915050565b600060608373ffffffffffffffffffffffffffffffffffffffff16836040516141e49190618532565b6000604051808303816000865af19150503d8060008114614221576040519150601f19603f3d011682016040523d82523d6000602084013e614226565b606091505b5091509150600082141561423e573d6000803e3d6000fd5b6142696000825114806142615750818060200190518101906142609190617a54565b5b6101a26106de565b50505050565b600061427b838361517e565b61433a5782600001829080600181540180825580915050600190039060005260206000200160009091909190916101000a81548173ffffffffffffffffffffffffffffffffffffffff021916908373ffffffffffffffffffffffffffffffffffffffff16021790555082600001805490508360010160008473ffffffffffffffffffffffffffffffffffffffff1673ffffffffffffffffffffffffffffffffffffffff168152602001908152602001600020819055506001905061433f565b600090505b92915050565b6000808460020160008573ffffffffffffffffffffffffffffffffffffffff1673ffffffffffffffffffffffffffffffffffffffff16815260200190815260200160002054905060008114156144925760008560000154905060405180604001604052808673ffffffffffffffffffffffffffffffffffffffff1681526020018581525086600101600083815260200190815260200160002060008201518160000160006101000a81548173ffffffffffffffffffffffffffffffffffffffff021916908373ffffffffffffffffffffffffffffffffffffffff16021790555060208201518160010155905050600181018660000181905550600181018660020160008773ffffffffffffffffffffffffffffffffffffffff1673ffffffffffffffffffffffffffffffffffffffff168152602001908152602001600020819055506001925050506144b8565b828560010160006001840381526020019081526020016000206001018190555060009150505b9392505050565b60008060008060006144d18787615fd6565b9150915060006144e18383616021565b9050600960008a81526020019081526020016000206002016000828152602001908152602001600020935060008460000154905060008560010154905060006145298361516b565b8061453957506145388261516b565b5b8061455c57506145498c876151cd565b801561455b575061455a8c866151cd565b5b5b9050806145785761456c8c6133eb565b614577610209611ddb565b5b6145828383616054565b985061458e8383616081565b975050505050505093509350939050565b6000807bffffffffffffffffffffffffffffffffffffffffffffffffffffffff90506000818460001c1614915050919050565b6000808360010160008473ffffffffffffffffffffffffffffffffffffffff1673ffffffffffffffffffffffffffffffffffffffff168152602001908152602001600020549050600081146147b357600060018203905060006001866000018054905003905080821461472057600086600001828154811061465057fe5b9060005260206000200160009054906101000a900473ffffffffffffffffffffffffffffffffffffffff1690508087600001848154811061468d57fe5b9060005260206000200160006101000a81548173ffffffffffffffffffffffffffffffffffffffff021916908373ffffffffffffffffffffffffffffffffffffffff160217905550600183018760010160008373ffffffffffffffffffffffffffffffffffffffff1673ffffffffffffffffffffffffffffffffffffffff16815260200190815260200160002081905550505b8560000180548061472d57fe5b6001900381819060005260206000200160006101000a81549073ffffffffffffffffffffffffffffffffffffffff021916905590558560010160008673ffffffffffffffffffffffffffffffffffffffff1673ffffffffffffffffffffffffffffffffffffffff16815260200190815260200160002060009055600193505050506147b9565b60009150505b92915050565b60006147d882610209856160ae9092919063ffffffff16565b905092915050565b6000808360020160008473ffffffffffffffffffffffffffffffffffffffff1673ffffffffffffffffffffffffffffffffffffffff168152602001908152602001600020549050600081146149fd57600060018203905060006001866000015403905080821461495c5760008660010160008381526020019081526020016000209050808760010160008581526020019081526020016000206000820160009054906101000a900473ffffffffffffffffffffffffffffffffffffffff168160000160006101000a81548173ffffffffffffffffffffffffffffffffffffffff021916908373ffffffffffffffffffffffffffffffffffffffff16021790555060018201548160010155905050600183018760020160008360000160009054906101000a900473ffffffffffffffffffffffffffffffffffffffff1673ffffffffffffffffffffffffffffffffffffffff1673ffffffffffffffffffffffffffffffffffffffff16815260200190815260200160002081905550505b856001016000828152602001908152602001600020600080820160006101000a81549073ffffffffffffffffffffffffffffffffffffffff0219169055600182016000905550508086600001819055508560020160008673ffffffffffffffffffffffffffffffffffffffff1673ffffffffffffffffffffffffffffffffffffffff1681526020019081526020016000206000905560019350505050614a03565b60009150505b92915050565b606080825167ffffffffffffffff81118015614a2457600080fd5b50604051908082528060200260200182016040528015614a535781602001602082028036833780820191505090505b50905060005b8351811015614acf57614a7e848281518110614a7157fe5b60200260200101516123f0565b828281518110614a8a57fe5b602002602001019073ffffffffffffffffffffffffffffffffffffffff16908173ffffffffffffffffffffffffffffffffffffffff1681525050806001019050614a59565b5080915050919050565b6060806060614ae7856137e3565b91509150614af782518551612779565b614b07600083511161020f6106de565b60005b8251811015614b7e57614b73858281518110614b2257fe5b602002602001015173ffffffffffffffffffffffffffffffffffffffff16848381518110614b4c57fe5b602002602001015173ffffffffffffffffffffffffffffffffffffffff16146102086106de565b806001019050614b0a565b50809250505092915050565b6060806060806000614b9b8661386a565b915091506000614baa8b6137d2565b905060006001811115614bb957fe5b8c6001811115614bc557fe5b14614c76578073ffffffffffffffffffffffffffffffffffffffff166374f3b0098c8c8c8787614bf3616119565b8f604001516040518863ffffffff1660e01b8152600401614c1a9796959493929190618898565b600060405180830381600087803b158015614c3457600080fd5b505af1158015614c48573d6000803e3d6000fd5b505050506040513d6000823e3d601f19601f82011682018060405250810190614c7191906179bf565b614d1e565b8073ffffffffffffffffffffffffffffffffffffffff1663d5c096c48c8c8c8787614c9f616119565b8f604001516040518863ffffffff1660e01b8152600401614cc69796959493929190618898565b600060405180830381600087803b158015614ce057600080fd5b505af1158015614cf4573d6000803e3d6000fd5b505050506040513d6000823e3d601f19601f82011682018060405250810190614d1d91906179bf565b5b8095508196505050614d348751865186516161a5565b60006001811115614d4157fe5b8c6001811115614d4d57fe5b14614d6457614d5f89898988886161c2565b614d72565b614d718a8989888861631a565b5b955050505096509650969350505050565b6000614d8f8584616021565b905060006009600088815260200190815260200160002060020160008381526020019081526020016000209050614dc68584615e5e565b816000018190555050505050505050565b60005b8251811015614e6957818181518110614def57fe5b6020026020010151600760008681526020019081526020016000206000858481518110614e1857fe5b602002602001015173ffffffffffffffffffffffffffffffffffffffff1673ffffffffffffffffffffffffffffffffffffffff16815260200190815260200160002081905550806001019050614dda565b50505050565b600060016000848152602001908152602001600020905060005b8251811015614ec557614eba81848381518110614ea257fe5b602002602001015184615fb49092919063ffffffff16565b806001019050614e89565b50505050565b6060825167ffffffffffffffff81118015614ee557600080fd5b50604051908082528060200260200182016040528015614f145781602001602082028036833780820191505090505b50905060005b8351811015614f7e5782614f4457838181518110614f3457fe5b6020026020010151600003614f59565b838181518110614f5057fe5b60200260200101515b828281518110614f6557fe5b6020026020010181815250508080600101915050614f1a565b5092915050565b6000806001811115614f9357fe5b846001811115614f9f57fe5b14614faa5781614fac565b825b90509392505050565b6000806001811115614fc357fe5b846001811115614fcf57fe5b14614fda5782614fdc565b815b90509392505050565b60006150157f800000000000000000000000000000000000000000000000000000000000000083106101a56106de565b819050919050565b6000808284019050615056600084121580156150395750848212155b8061504f575060008412801561504e57508482125b5b60006106de565b8091505092915050565b60008082840390506150996000841215801561507c5750848213155b80615092575060008412801561509157508482135b5b60016106de565b8091505092915050565b6000806000806000806009600088815260200190815260200160002090508060000160009054906101000a900473ffffffffffffffffffffffffffffffffffffffff1694508060010160009054906101000a900473ffffffffffffffffffffffffffffffffffffffff169250600061511b8685616021565b905081600201600082815260200190815260200160002096506000876000015490506000886001015490506151508282616054565b965061515c8282616081565b94505050505091939590929450565b60006151768261459f565b159050919050565b6000808360010160008473ffffffffffffffffffffffffffffffffffffffff1673ffffffffffffffffffffffffffffffffffffffff168152602001908152602001600020541415905092915050565b6000806009600085815260200190815260200160002090508060000160009054906101000a900473ffffffffffffffffffffffffffffffffffffffff1673ffffffffffffffffffffffffffffffffffffffff168373ffffffffffffffffffffffffffffffffffffffff16148061529257508060010160009054906101000a900473ffffffffffffffffffffffffffffffffffffffff1673ffffffffffffffffffffffffffffffffffffffff168373ffffffffffffffffffffffffffffffffffffffff16145b80156152cb5750600073ffffffffffffffffffffffffffffffffffffffff168373ffffffffffffffffffffffffffffffffffffffff1614155b91505092915050565b6000806008600085815260200190815260200160002090506152ff838261517e90919063ffffffff16565b91505092915050565b60008060016000858152602001908152602001600020905061533383826164c890919063ffffffff16565b91505092915050565b60008060028081111561534b57fe5b85600281111561535757fe5b141561536d57615368868585616517565b6153a9565b6001600281111561537a57fe5b85600281111561538657fe5b141561539c5761539786858561652b565b6153a8565b6153a786858561653f565b5b5b60008311156153de576153dd33848673ffffffffffffffffffffffffffffffffffffffff166128269092919063ffffffff16565b5b82600003915082905094509492505050565b6000806002808111156153ff57fe5b85600281111561540b57fe5b14156154215761541c868585616553565b61545d565b6001600281111561542e57fe5b85600281111561543a57fe5b14156154505761544b868585616567565b61545c565b61545b86858561657b565b5b5b6000831115615494576154933330858773ffffffffffffffffffffffffffffffffffffffff16613b10909392919063ffffffff16565b5b82915082600003905094509492505050565b6000806002808111156154b557fe5b8560028111156154c157fe5b14156154d9576154d286858561658f565b9050615519565b600160028111156154e657fe5b8560028111156154f257fe5b141561550a576155038685856165a8565b9050615518565b6155158685856165c1565b90505b5b6000915094509492505050565b600046905090565b606080600080600080615540876150a3565b945094509450945050600073ffffffffffffffffffffffffffffffffffffffff168473ffffffffffffffffffffffffffffffffffffffff1614806155b05750600073ffffffffffffffffffffffffffffffffffffffff168273ffffffffffffffffffffffffffffffffffffffff16145b1561565257600067ffffffffffffffff811180156155cd57600080fd5b506040519080825280602002602001820160405280156155fc5781602001602082028036833780820191505090505b50600067ffffffffffffffff8111801561561557600080fd5b506040519080825280602002602001820160405280156156445781602001602082028036833780820191505090505b5095509550505050506157af565b600267ffffffffffffffff8111801561566a57600080fd5b506040519080825280602002602001820160405280156156995781602001602082028036833780820191505090505b50955083866000815181106156aa57fe5b602002602001019073ffffffffffffffffffffffffffffffffffffffff16908173ffffffffffffffffffffffffffffffffffffffff168152505081866001815181106156f257fe5b602002602001019073ffffffffffffffffffffffffffffffffffffffff16908173ffffffffffffffffffffffffffffffffffffffff1681525050600267ffffffffffffffff8111801561574457600080fd5b506040519080825280602002602001820160405280156157735781602001602082028036833780820191505090505b509450828560008151811061578457fe5b602002602001018181525050808560018151811061579e57fe5b602002602001018181525050505050505b915091565b60608060006008600085815260200190815260200160002090506157d7816165da565b67ffffffffffffffff811180156157ed57600080fd5b5060405190808252806020026020018201604052801561581c5781602001602082028036833780820191505090505b509250825167ffffffffffffffff8111801561583757600080fd5b506040519080825280602002602001820160405280156158665781602001602082028036833780820191505090505b50915060005b835181101561594857600061588a82846165eb90919063ffffffff16565b90508085838151811061589957fe5b602002602001019073ffffffffffffffffffffffffffffffffffffffff16908173ffffffffffffffffffffffffffffffffffffffff16815250506007600087815260200190815260200160002060008273ffffffffffffffffffffffffffffffffffffffff1673ffffffffffffffffffffffffffffffffffffffff1681526020019081526020016000205484838151811061593057fe5b6020026020010181815250505080600101905061586c565b5050915091565b606080600060016000858152602001908152602001600020905061597281615ef3565b67ffffffffffffffff8111801561598857600080fd5b506040519080825280602002602001820160405280156159b75781602001602082028036833780820191505090505b509250825167ffffffffffffffff811180156159d257600080fd5b50604051908082528060200260200182016040528015615a015781602001602082028036833780820191505090505b50915060005b8351811015615a8a57615a23818361662f90919063ffffffff16565b858381518110615a2f57fe5b60200260200101858481518110615a4257fe5b60200260200101828152508273ffffffffffffffffffffffffffffffffffffffff1673ffffffffffffffffffffffffffffffffffffffff168152505050806001019050615a07565b5050915091565b6000615a9c826135cb565b615aa5836135a9565b019050919050565b600081831015615abd5781615abf565b825b905092915050565b6000818310615ad65781615ad8565b825b905092915050565b81600b60008673ffffffffffffffffffffffffffffffffffffffff1673ffffffffffffffffffffffffffffffffffffffff16815260200190815260200160002060008573ffffffffffffffffffffffffffffffffffffffff1673ffffffffffffffffffffffffffffffffffffffff168152602001908152602001600020819055508273ffffffffffffffffffffffffffffffffffffffff168473ffffffffffffffffffffffffffffffffffffffff167f18e1ea4139e68413d7d08aa752e71568e36b2c5bf940893314c2c5b01eaa0c4283604051615bbe9190618a6c565b60405180910390a350505050565b600080615bd7616681565b905042811015615beb576000915050615d34565b6000615bf5616695565b90506000801b811415615c0d57600092505050615d34565b600081615c186167a6565b80519060200120338786604051602001615c36959493929190618915565b6040516020818303038152906040528051906020012090506000615c5982616804565b90506000806000615c6861683d565b925092509250600060018585858560405160008152602001604052604051615c9394939291906189bb565b6020604051602081039080840390855afa158015615cb5573d6000803e3d6000fd5b505050602060405103519050600073ffffffffffffffffffffffffffffffffffffffff168173ffffffffffffffffffffffffffffffffffffffff1614158015615d2957508a73ffffffffffffffffffffffffffffffffffffffff168173ffffffffffffffffffffffffffffffffffffffff16145b985050505050505050505b92915050565b600080600080615d4986615a91565b90506000615d5686615a91565b9050615d72615d64886135f1565b615d6d886135f1565b615aad565b8960a00181815250508773ffffffffffffffffffffffffffffffffffffffff16639d2c110c8a84846040518463ffffffff1660e01b8152600401615db893929190618b03565b602060405180830381600087803b158015615dd257600080fd5b505af1158015615de6573d6000803e3d6000fd5b505050506040513d601f19601f82011682018060405250810190615e0a9190617fb2565b9250600080615e228b600001518c6060015187614119565b91509150615e39828a615f2490919063ffffffff16565b9650615e4e8189615f6c90919063ffffffff16565b9550505050509450945094915050565b600080615e7b615e6d856135f1565b615e76856135f1565b615aad565b9050615e9e615e89856135a9565b615e92856135a9565b8363ffffffff1661686e565b91505092915050565b60008260020160008373ffffffffffffffffffffffffffffffffffffffff1673ffffffffffffffffffffffffffffffffffffffff16815260200190815260200160002054905092915050565b600081600001549050919050565b600082600101600083815260200190815260200160002060010154905092915050565b600080615f4283615f34866135a9565b6120d290919063ffffffff16565b90506000615f4f856135cb565b90506000439050615f61838383616889565b935050505092915050565b600080615f8a83615f7c866135a9565b6168cf90919063ffffffff16565b90506000615f97856135cb565b90506000439050615fa9838383616889565b935050505092915050565b8083600101600084815260200190815260200160002060010181905550505050565b6000808273ffffffffffffffffffffffffffffffffffffffff168473ffffffffffffffffffffffffffffffffffffffff1610616013578284616016565b83835b915091509250929050565b60008282604051602001616036929190618549565b60405160208183030381529060405280519060200120905092915050565b6000616079616062846168f0565b61606b846168f0565b616074866135f1565b616889565b905092915050565b60006160a661608f84616912565b61609884616912565b6160a1866135f1565b616889565b905092915050565b6000808460020160008573ffffffffffffffffffffffffffffffffffffffff1673ffffffffffffffffffffffffffffffffffffffff16815260200190815260200160002054905061610260008211846106de565b61610f8560018303615f01565b9150509392505050565b60006161236118fa565b73ffffffffffffffffffffffffffffffffffffffff166355c676286040518163ffffffff1660e01b815260040160206040518083038186803b15801561616857600080fd5b505afa15801561617c573d6000803e3d6000fd5b505050506040513d601f19601f820116820180604052508101906161a09190617fb2565b905090565b6161bd82841480156161b657508183145b60676106de565b505050565b6060835167ffffffffffffffff811180156161dc57600080fd5b5060405190808252806020026020018201604052801561620b5781602001602082028036833780820191505090505b50905060005b85600001515181101561631057600084828151811061622c57fe5b6020026020010151905061625c8760200151838151811061624957fe5b60200260200101518210156101f96106de565b60008760000151838151811061626e57fe5b6020026020010151905061628881838b8b60600151612658565b600085848151811061629657fe5b602002602001015190506162b26162ac836123f0565b826128ac565b6162ea6162c882856120d290919063ffffffff16565b8986815181106162d457fe5b6020026020010151615f6c90919063ffffffff16565b8585815181106162f657fe5b602002602001018181525050505050806001019050616211565b5095945050505050565b60606000845167ffffffffffffffff8111801561633657600080fd5b506040519080825280602002602001820160405280156163655781602001602082028036833780820191505090505b50915060005b8660000151518110156164b457600085828151811061638657fe5b602002602001015190506163b6886020015183815181106163a357fe5b60200260200101518211156101fa6106de565b6000886000015183815181106163c857fe5b602002602001015190506163e281838c8c60600151612548565b6163eb8161209a565b156164065761640382856120d290919063ffffffff16565b93505b600086848151811061641457fe5b6020026020010151905061643061642a836123f0565b826128ac565b80831015616465576164608382038a868151811061644a57fe5b6020026020010151615f6c90919063ffffffff16565b61648e565b61648d8184038a868151811061647757fe5b6020026020010151615f2490919063ffffffff16565b5b86858151811061649a57fe5b60200260200101818152505050505080600101905061636b565b506164be816121bf565b5095945050505050565b6000808360020160008473ffffffffffffffffffffffffffffffffffffffff1673ffffffffffffffffffffffffffffffffffffffff168152602001908152602001600020541415905092915050565b61652583836169388461699a565b50505050565b616539838361693884616a7a565b50505050565b61654d838361693884616b0f565b50505050565b6165618383616b7d8461699a565b50505050565b6165758383616b7d84616a7a565b50505050565b6165898383616b7d84616b0f565b50505050565b600061659f8484616bdf8561699a565b90509392505050565b60006165b88484616bdf85616a7a565b90509392505050565b60006165d18484616bdf85616b0f565b90509392505050565b600081600001805490509050919050565b60008260000182815481106165fc57fe5b9060005260206000200160009054906101000a900473ffffffffffffffffffffffffffffffffffffffff16905092915050565b600080600084600101600085815260200190815260200160002090508060000160009054906101000a900473ffffffffffffffffffffffffffffffffffffffff16816001015492509250509250929050565b600061668d6000616c07565b60001c905090565b6000803560e01c8063b95cac2881146166dd57638bdb39138114616705576352bbbe29811461672d5763945bcec981146167555763fa6e671d811461677d57600092506167a1565b7f3f7b71252bd19113ff48c19c6e004a9bcfcca320a0d74d58e85877cbd7dcae5892506167a1565b7f8bbc57f66ea936902f50a71ce12b92c43f3c5340bb40c27c4e90ab84eeae335392506167a1565b7fe192dcbc143b1e244ad73b813fd3c097b832ad260a157340b4e5e5beda067abe92506167a1565b7f9bfc43a4d98313c6766986ffd7c916c7481566d9f224c6819af0a53388aced3a92506167a1565b7fa3f865aa351e51cfeb40f5178d1564bb629fe9030b83caf6361d1baaf5b90b5a92505b505090565b60606000368080601f016020809104026020016040519081016040528093929190818152602001838380828437600081840152601f19601f820116905080830192505050505050509050608081511115616801576080360381525b90565b600061680e613735565b82604051602001616820929190618575565b604051602081830303815290604052805190602001209050919050565b600080600061684c6020616c07565b60001c925061685b6040616c07565b91506168676060616c07565b9050909192565b600083607084901b60e084901b010160001b90509392505050565b60008083850190506168ba8582101580156168b257506e01000000000000000000000000000082105b61020e6106de565b6168c585858561686e565b9150509392505050565b60006168df8383111560016106de565b600082840390508091505092915050565b6000806dffffffffffffffffffffffffffff9050808360001c16915050919050565b6000806dffffffffffffffffffffffffffff905080607084901c60001c16915050919050565b60008061695683616948866135a9565b6168cf90919063ffffffff16565b9050600061697584616967876135cb565b6120d290919063ffffffff16565b90506000616982866135f1565b905061698f838383616889565b935050505092915050565b60008060008060006169ab896150a3565b94505093509350935060008373ffffffffffffffffffffffffffffffffffffffff168973ffffffffffffffffffffffffffffffffffffffff161415616a1a5760006169fa84898b63ffffffff16565b9050616a0f8482616c1790919063ffffffff16565b915080935050616a46565b6000616a2a83898b63ffffffff16565b9050616a3f8382616c1790919063ffffffff16565b9150809250505b616a508383615e5e565b8560000181905550616a628383616c34565b85600101819055508095505050505050949350505050565b600080616a8786866134ca565b90506000616a9982858763ffffffff16565b9050806007600089815260200190815260200160002060008873ffffffffffffffffffffffffffffffffffffffff1673ffffffffffffffffffffffffffffffffffffffff16815260200190815260200160002081905550616b038282616c1790919063ffffffff16565b92505050949350505050565b6000806001600087815260200190815260200160002090506000616b3382876147bf565b90506000616b4582868863ffffffff16565b9050616b5c8782856143459092919063ffffffff16565b50616b708282616c1790919063ffffffff16565b9350505050949350505050565b600080616b9b83616b8d866135a9565b6120d290919063ffffffff16565b90506000616bba84616bac876135cb565b6168cf90919063ffffffff16565b90506000616bc7866135f1565b9050616bd4838383616889565b935050505092915050565b600080616beb846135a9565b90506000439050616bfd828583616889565b9250505092915050565b6000816080360301359050919050565b6000616c22826135cb565b616c2b846135cb565b03905092915050565b6000616c52616c42846135cb565b616c4b846135cb565b600061686e565b905092915050565b60405180610120016040528060006001811115616c7357fe5b8152602001600073ffffffffffffffffffffffffffffffffffffffff168152602001600073ffffffffffffffffffffffffffffffffffffffff168152602001600081526020016000801916815260200160008152602001600073ffffffffffffffffffffffffffffffffffffffff168152602001600073ffffffffffffffffffffffffffffffffffffffff168152602001606081525090565b604051806080016040528060006002811115616d2457fe5b815260200160008019168152602001600073ffffffffffffffffffffffffffffffffffffffff168152602001600081525090565b60405180608001604052806060815260200160608152602001606081526020016000151581525090565b6040518060a0016040528060008019168152602001600081526020016000815260200160008152602001606081525090565b600081359050616dc381619162565b92915050565b600081359050616dd881619179565b92915050565b600082601f830112616def57600080fd5b8135616e02616dfd82618bfb565b618bca565b91508181835260208401935060208101905083856020840282011115616e2757600080fd5b60005b83811015616e575781616e3d8882616db4565b845260208401935060208301925050600181019050616e2a565b5050505092915050565b600082601f830112616e7257600080fd5b8135616e85616e8082618c27565b618bca565b91508181835260208401935060208101905083856020840282011115616eaa57600080fd5b60005b83811015616eda5781616ec08882617312565b845260208401935060208301925050600181019050616ead565b5050505092915050565b600082601f830112616ef557600080fd5b8135616f08616f0382618c53565b618bca565b91508181835260208401935060208101905083856020840282011115616f2d57600080fd5b60005b83811015616f5d5781616f43888261733c565b845260208401935060208301925050600181019050616f30565b5050505092915050565b600082601f830112616f7857600080fd5b8135616f8b616f8682618c7f565b618bca565b91508181835260208401935060208101905083856020840282011115616fb057600080fd5b60005b83811015616fe05781616fc688826173ba565b845260208401935060208301925050600181019050616fb3565b5050505092915050565b600082601f830112616ffb57600080fd5b813561700e61700982618cab565b618bca565b9150818183526020840193506020810190508360005b83811015617054578135860161703a88826173cf565b845260208401935060208301925050600181019050617024565b5050505092915050565b600082601f83011261706f57600080fd5b813561708261707d82618cd7565b618bca565b915081818352602084019350602081019050838560808402820111156170a757600080fd5b60005b838110156170d757816170bd888261765b565b8452602084019350608083019250506001810190506170aa565b5050505092915050565b600082601f8301126170f257600080fd5b813561710561710082618d03565b618bca565b915081818352602084019350602081019050838560a084028201111561712a57600080fd5b60005b8381101561715a57816171408882617783565b845260208401935060a0830192505060018101905061712d565b5050505092915050565b600082601f83011261717557600080fd5b813561718861718382618d2f565b618bca565b915081818352602084019350602081019050838560208402820111156171ad57600080fd5b60005b838110156171dd57816171c3888261780b565b8452602084019350602083019250506001810190506171b0565b5050505092915050565b600082601f8301126171f857600080fd5b815161720b61720682618d2f565b618bca565b9150818183526020840193506020810190508385602084028201111561723057600080fd5b60005b8381101561726057816172468882617820565b845260208401935060208301925050600181019050617233565b5050505092915050565b60008135905061727981619190565b92915050565b60008151905061728e81619190565b92915050565b6000813590506172a3816191a7565b92915050565b6000813590506172b8816191be565b92915050565b600082601f8301126172cf57600080fd5b81356172e26172dd82618d5b565b618bca565b915080825260208301602083018583830111156172fe57600080fd5b6173098382846190a0565b50505092915050565b600081359050617321816191d5565b92915050565b600081359050617336816191ec565b92915050565b60008135905061734b81619203565b92915050565b6000813590506173608161921a565b92915050565b60008135905061737581619231565b92915050565b60008135905061738a81619241565b92915050565b60008135905061739f81619251565b92915050565b6000813590506173b481619261565b92915050565b6000813590506173c981619271565b92915050565b600060a082840312156173e157600080fd5b6173eb60a0618bca565b905060006173fb84828501617294565b600083015250602061740f8482850161780b565b60208301525060406174238482850161780b565b60408301525060606174378482850161780b565b606083015250608082013567ffffffffffffffff81111561745757600080fd5b617463848285016172be565b60808301525092915050565b60006080828403121561748157600080fd5b61748b6080618bca565b9050600082013567ffffffffffffffff8111156174a757600080fd5b6174b384828501616e61565b600083015250602082013567ffffffffffffffff8111156174d357600080fd5b6174df84828501617164565b602083015250604082013567ffffffffffffffff8111156174ff57600080fd5b61750b848285016172be565b604083015250606061751f8482850161726a565b60608301525092915050565b60006080828403121561753d57600080fd5b6175476080618bca565b9050600061755784828501616db4565b600083015250602061756b8482850161726a565b602083015250604061757f84828501616dc9565b60408301525060606175938482850161726a565b60608301525092915050565b6000608082840312156175b157600080fd5b6175bb6080618bca565b9050600082013567ffffffffffffffff8111156175d757600080fd5b6175e384828501616e61565b600083015250602082013567ffffffffffffffff81111561760357600080fd5b61760f84828501617164565b602083015250604082013567ffffffffffffffff81111561762f57600080fd5b61763b848285016172be565b604083015250606061764f8482850161726a565b60608301525092915050565b60006080828403121561766d57600080fd5b6176776080618bca565b9050600061768784828501617366565b600083015250602061769b84828501617294565b60208301525060406176af8482850161733c565b60408301525060606176c38482850161780b565b60608301525092915050565b600060c082840312156176e157600080fd5b6176eb60c0618bca565b905060006176fb84828501617294565b600083015250602061770f84828501617390565b602083015250604061772384828501617312565b604083015250606061773784828501617312565b606083015250608061774b8482850161780b565b60808301525060a082013567ffffffffffffffff81111561776b57600080fd5b617777848285016172be565b60a08301525092915050565b600060a0828403121561779557600080fd5b61779f60a0618bca565b905060006177af848285016173a5565b60008301525060206177c384828501617312565b60208301525060406177d78482850161780b565b60408301525060606177eb84828501616db4565b60608301525060806177ff84828501616dc9565b60808301525092915050565b60008135905061781a81619288565b92915050565b60008151905061782f81619288565b92915050565b60006020828403121561784757600080fd5b600061785584828501616db4565b91505092915050565b6000806040838503121561787157600080fd5b600061787f85828601616db4565b925050602061789085828601616db4565b9150509250929050565b6000806000606084860312156178af57600080fd5b60006178bd86828701616db4565b93505060206178ce86828701616db4565b92505060406178df8682870161726a565b9150509250925092565b600080604083850312156178fc57600080fd5b600061790a85828601616db4565b925050602083013567ffffffffffffffff81111561792757600080fd5b61793385828601616ee4565b9150509250929050565b60006020828403121561794f57600080fd5b600082013567ffffffffffffffff81111561796957600080fd5b6179758482850161705e565b91505092915050565b60006020828403121561799057600080fd5b600082013567ffffffffffffffff8111156179aa57600080fd5b6179b6848285016170e1565b91505092915050565b600080604083850312156179d257600080fd5b600083015167ffffffffffffffff8111156179ec57600080fd5b6179f8858286016171e7565b925050602083015167ffffffffffffffff811115617a1557600080fd5b617a21858286016171e7565b9150509250929050565b600060208284031215617a3d57600080fd5b6000617a4b8482850161726a565b91505092915050565b600060208284031215617a6657600080fd5b6000617a748482850161727f565b91505092915050565b600060208284031215617a8f57600080fd5b6000617a9d84828501617294565b91505092915050565b60008060008060808587031215617abc57600080fd5b6000617aca87828801617294565b9450506020617adb87828801616db4565b9350506040617aec87828801616dc9565b925050606085013567ffffffffffffffff811115617b0957600080fd5b617b158782880161746f565b91505092959194509250565b60008060008060808587031215617b3757600080fd5b6000617b4587828801617294565b9450506020617b5687828801616db4565b9350506040617b6787828801616db4565b925050606085013567ffffffffffffffff811115617b8457600080fd5b617b908782880161759f565b91505092959194509250565b60008060408385031215617baf57600080fd5b6000617bbd85828601617294565b925050602083013567ffffffffffffffff811115617bda57600080fd5b617be685828601616ee4565b9150509250929050565b600080600060608486031215617c0557600080fd5b6000617c1386828701617294565b935050602084013567ffffffffffffffff811115617c3057600080fd5b617c3c86828701616ee4565b925050604084013567ffffffffffffffff811115617c5957600080fd5b617c6586828701616dde565b9150509250925092565b60008060408385031215617c8257600080fd5b6000617c9085828601617294565b9250506020617ca18582860161733c565b9150509250929050565b600060208284031215617cbd57600080fd5b6000617ccb848285016172a9565b91505092915050565b600060208284031215617ce657600080fd5b6000617cf484828501617327565b91505092915050565b60008060008060808587031215617d1357600080fd5b6000617d2187828801617351565b945050602085013567ffffffffffffffff811115617d3e57600080fd5b617d4a87828801616ee4565b935050604085013567ffffffffffffffff811115617d6757600080fd5b617d7387828801617164565b925050606085013567ffffffffffffffff811115617d9057600080fd5b617d9c878288016172be565b91505092959194509250565b600060208284031215617dba57600080fd5b6000617dc88482850161737b565b91505092915050565b60008060008060e08587031215617de757600080fd5b6000617df587828801617390565b945050602085013567ffffffffffffffff811115617e1257600080fd5b617e1e87828801616fea565b935050604085013567ffffffffffffffff811115617e3b57600080fd5b617e4787828801616e61565b9250506060617e588782880161752b565b91505092959194509250565b6000806000806000806101208789031215617e7e57600080fd5b6000617e8c89828a01617390565b965050602087013567ffffffffffffffff811115617ea957600080fd5b617eb589828a01616fea565b955050604087013567ffffffffffffffff811115617ed257600080fd5b617ede89828a01616e61565b9450506060617eef89828a0161752b565b93505060e087013567ffffffffffffffff811115617f0c57600080fd5b617f1889828a01616f67565b925050610100617f2a89828a0161780b565b9150509295509295509295565b60008060008060e08587031215617f4d57600080fd5b600085013567ffffffffffffffff811115617f6757600080fd5b617f73878288016176cf565b9450506020617f848782880161752b565b93505060a0617f958782880161780b565b92505060c0617fa68782880161780b565b91505092959194509250565b600060208284031215617fc457600080fd5b6000617fd284828501617820565b91505092915050565b6000617fe78383618059565b60208301905092915050565b6000617fff8383618321565b60208301905092915050565b60006180178383618383565b60208301905092915050565b600061802f83836184c0565b60208301905092915050565b61804481618fb6565b82525050565b61805381618eb3565b82525050565b61806281618ea1565b82525050565b61807181618ea1565b82525050565b600061808282618dcb565b61808c8185618e36565b935061809783618d8b565b8060005b838110156180c85781516180af8882617fdb565b97506180ba83618e02565b92505060018101905061809b565b5085935050505092915050565b60006180e082618dd6565b6180ea8185618e36565b93506180f583618d9b565b8060005b8381101561812657815161810d8882617ff3565b975061811883618e0f565b9250506001810190506180f9565b5085935050505092915050565b600061813e82618de1565b6181488185618e47565b935061815383618dab565b8060005b8381101561818457815161816b888261800b565b975061817683618e1c565b925050600181019050618157565b5085935050505092915050565b600061819c82618dec565b6181a68185618e58565b93506181b183618dbb565b8060005b838110156181e25781516181c98882618023565b97506181d483618e29565b9250506001810190506181b5565b5085935050505092915050565b6181f881618ec5565b82525050565b61820781618ed1565b82525050565b61821681618ed1565b82525050565b61822d61822882618ed1565b6190f4565b82525050565b61824461823f82618edb565b6190fe565b82525050565b60006182568385618e8b565b93506182638385846190a0565b82840190509392505050565b600061827a82618df7565b6182848185618e69565b93506182948185602086016190af565b61829d8161911c565b840191505092915050565b60006182b382618df7565b6182bd8185618e7a565b93506182cd8185602086016190af565b6182d68161911c565b840191505092915050565b60006182ec82618df7565b6182f68185618e8b565b93506183068185602086016190af565b80840191505092915050565b61831b81618fc8565b82525050565b61832a81618fec565b82525050565b61834161833c82618fec565b6190e2565b82525050565b61835081619010565b82525050565b61835f81619034565b82525050565b61836e81619058565b82525050565b61837d8161906a565b82525050565b61838c81618f75565b82525050565b61839b81618f75565b82525050565b60006183ae600283618e96565b91507f19010000000000000000000000000000000000000000000000000000000000006000830152600282019050919050565b60006183ee600083618e8b565b9150600082019050919050565b6000610120830160008301516184146000860182618374565b5060208301516184276020860182618321565b50604083015161843a6040860182618321565b50606083015161844d60608601826184c0565b50608083015161846060808601826181fe565b5060a083015161847360a08601826184c0565b5060c083015161848660c0860182618059565b5060e083015161849960e0860182618059565b506101008301518482036101008601526184b3828261826f565b9150508091505092915050565b6184c981618f9f565b82525050565b6184d881618f9f565b82525050565b6184e781618fa9565b82525050565b60006184f9828561821c565b6020820191506185098284618233565b6004820191508190509392505050565b600061852682848661824a565b91508190509392505050565b600061853e82846182e1565b915081905092915050565b60006185558285618330565b6014820191506185658284618330565b6014820191508190509392505050565b6000618580826183a1565b915061858c828561821c565b60208201915061859c828461821c565b6020820191508190509392505050565b60006185b7826183e1565b9150819050919050565b60006020820190506185d66000830184618068565b92915050565b60006060820190506185f16000830186618068565b6185fe6020830185618068565b61860b60408301846184cf565b949350505050565b60006040820190506186286000830185618068565b6186356020830184618365565b9392505050565b60006040820190506186516000830185618068565b61865e60208301846184cf565b9392505050565b6000602082019050818103600083015261867f81846180d5565b905092915050565b600060408201905081810360008301526186a181856180d5565b905081810360208301526186b58184618077565b90509392505050565b600060608201905081810360008301526186d881866180d5565b905081810360208301526186ec8185618133565b905081810360408301526187008184618191565b9050949350505050565b6000608082019050818103600083015261872481876180d5565b905081810360208301526187388186618191565b9050818103604083015261874c8185618191565b9050818103606083015261876081846182a8565b905095945050505050565b6000606082019050818103600083015261878581866180d5565b905081810360208301526187998185618191565b90506187a860408301846184cf565b949350505050565b600060208201905081810360008301526187ca8184618133565b905092915050565b600060208201905081810360008301526187ec8184618191565b905092915050565b600060208201905061880960008301846181ef565b92915050565b600060608201905061882460008301866181ef565b61883160208301856184cf565b61883e60408301846184cf565b949350505050565b600060208201905061885b600083018461820d565b92915050565b6000606082019050618876600083018661820d565b6188836020830185618068565b6188906040830184618068565b949350505050565b600060e0820190506188ad600083018a61820d565b6188ba6020830189618068565b6188c7604083018861803b565b81810360608301526188d98187618191565b90506188e860808301866184cf565b6188f560a08301856184cf565b81810360c083015261890781846182a8565b905098975050505050505050565b600060a08201905061892a600083018861820d565b618937602083018761820d565b618944604083018661804a565b61895160608301856184cf565b61895e60808301846184cf565b9695505050505050565b600060a08201905061897d600083018861820d565b61898a602083018761820d565b618997604083018661820d565b6189a460608301856184cf565b6189b16080830184618068565b9695505050505050565b60006080820190506189d0600083018761820d565b6189dd60208301866184de565b6189ea604083018561820d565b6189f7606083018461820d565b95945050505050565b6000602082019050618a156000830184618312565b92915050565b6000602082019050618a306000830184618347565b92915050565b6000602082019050618a4b6000830184618356565b92915050565b6000602082019050618a666000830184618365565b92915050565b6000602082019050618a816000830184618392565b92915050565b6000604082019050618a9c6000830185618392565b618aa96020830184618392565b9392505050565b60006080820190508181036000830152618aca81876183fb565b90508181036020830152618ade8186618191565b9050618aed60408301856184cf565b618afa60608301846184cf565b95945050505050565b60006060820190508181036000830152618b1d81866183fb565b9050618b2c60208301856184cf565b618b3960408301846184cf565b949350505050565b6000602082019050618b5660008301846184cf565b92915050565b6000604082019050618b7160008301856184cf565b618b7e60208301846184cf565b9392505050565b6000608082019050618b9a60008301876184cf565b618ba760208301866184cf565b618bb460408301856184cf565b618bc16060830184618068565b95945050505050565b6000604051905081810181811067ffffffffffffffff82111715618bf157618bf061911a565b5b8060405250919050565b600067ffffffffffffffff821115618c1657618c1561911a565b5b602082029050602081019050919050565b600067ffffffffffffffff821115618c4257618c4161911a565b5b602082029050602081019050919050565b600067ffffffffffffffff821115618c6e57618c6d61911a565b5b602082029050602081019050919050565b600067ffffffffffffffff821115618c9a57618c9961911a565b5b602082029050602081019050919050565b600067ffffffffffffffff821115618cc657618cc561911a565b5b602082029050602081019050919050565b600067ffffffffffffffff821115618cf257618cf161911a565b5b602082029050602081019050919050565b600067ffffffffffffffff821115618d1e57618d1d61911a565b5b602082029050602081019050919050565b600067ffffffffffffffff821115618d4a57618d4961911a565b5b602082029050602081019050919050565b600067ffffffffffffffff821115618d7657618d7561911a565b5b601f19601f8301169050602081019050919050565b6000819050602082019050919050565b6000819050602082019050919050565b6000819050602082019050919050565b6000819050602082019050919050565b600081519050919050565b600081519050919050565b600081519050919050565b600081519050919050565b600081519050919050565b6000602082019050919050565b6000602082019050919050565b6000602082019050919050565b6000602082019050919050565b600082825260208201905092915050565b600082825260208201905092915050565b600082825260208201905092915050565b600082825260208201905092915050565b600082825260208201905092915050565b600081905092915050565b600081905092915050565b6000618eac82618f7f565b9050919050565b6000618ebe82618f7f565b9050919050565b60008115159050919050565b6000819050919050565b60007fffffffff0000000000000000000000000000000000000000000000000000000082169050919050565b6000618f1282618ea1565b9050919050565b6000618f2482618ea1565b9050919050565b6000618f3682618ea1565b9050919050565b6000618f4882618ea1565b9050919050565b6000819050618f5d8261913a565b919050565b6000819050618f708261914e565b919050565b6000819050919050565b600073ffffffffffffffffffffffffffffffffffffffff82169050919050565b6000819050919050565b600060ff82169050919050565b6000618fc18261907c565b9050919050565b6000618fd382618fda565b9050919050565b6000618fe582618f7f565b9050919050565b6000618ff782618ffe565b9050919050565b600061900982618f7f565b9050919050565b600061901b82619022565b9050919050565b600061902d82618f7f565b9050919050565b600061903f82619046565b9050919050565b600061905182618f7f565b9050919050565b600061906382618f4f565b9050919050565b600061907582618f62565b9050919050565b60006190878261908e565b9050919050565b600061909982618f7f565b9050919050565b82818337600083830152505050565b60005b838110156190cd5780820151818401526020810190506190b2565b838111156190dc576000848401525b50505050565b60006190ed82619108565b9050919050565b6000819050919050565b6000819050919050565b60006191138261912d565b9050919050565bfe5b6000601f19601f8301169050919050565b60008160601b9050919050565b6003811061914b5761914a61911a565b5b50565b6002811061915f5761915e61911a565b5b50565b61916b81618ea1565b811461917657600080fd5b50565b61918281618eb3565b811461918d57600080fd5b50565b61919981618ec5565b81146191a457600080fd5b50565b6191b081618ed1565b81146191bb57600080fd5b50565b6191c781618edb565b81146191d257600080fd5b50565b6191de81618f07565b81146191e957600080fd5b50565b6191f581618f19565b811461920057600080fd5b50565b61920c81618f2b565b811461921757600080fd5b50565b61922381618f3d565b811461922e57600080fd5b50565b6003811061923e57600080fd5b50565b6003811061924e57600080fd5b50565b6002811061925e57600080fd5b50565b6004811061926e57600080fd5b50565b61927a81618f75565b811461928557600080fd5b50565b61929181618f9f565b811461929c57600080fd5b5056fea264697066735822122083e9aa4386ed58ca2d32d84d1e93e09be0bcc1b93d530604381242d921913c8c64736f6c6343000703003360c06040523480156200001157600080fd5b5060405162001260380380620012608339818101604052810190620000379190620000b7565b3073ffffffffffffffffffffffffffffffffffffffff1660001b80608081815250505060016000819055508073ffffffffffffffffffffffffffffffffffffffff1660a08173ffffffffffffffffffffffffffffffffffffffff1660601b815250505062000145565b600081519050620000b1816200012b565b92915050565b600060208284031215620000ca57600080fd5b6000620000da84828501620000a0565b91505092915050565b6000620000f0826200010b565b9050919050565b60006200010482620000e3565b9050919050565b600073ffffffffffffffffffffffffffffffffffffffff82169050919050565b6200013681620000f7565b81146200014257600080fd5b50565b60805160a05160601c6110ef62000171600039806104c9528061060852508061034352506110ef6000f3fe608060405234801561001057600080fd5b50600436106100935760003560e01c8063851c1bb311610066578063851c1bb31461010a578063aaabadc51461013a578063d877845c14610158578063e42abf3514610176578063fbfa77cf146101a657610093565b806338e9922e1461009857806355c67628146100b45780636b6b9f69146100d25780636daefab6146100ee575b600080fd5b6100b260048036038101906100ad9190610b83565b6101c4565b005b6100bc610224565b6040516100c99190610e35565b60405180910390f35b6100ec60048036038101906100e79190610b83565b61022e565b005b61010860048036038101906101039190610a15565b61028d565b005b610124600480360381019061011f9190610b08565b61033f565b6040516101319190610dad565b60405180910390f35b610142610391565b60405161014f9190610dff565b60405180910390f35b6101606103a0565b60405161016d9190610e35565b60405180910390f35b610190600480360381019061018b9190610a9e565b6103aa565b60405161019d9190610d8b565b60405180910390f35b6101ae6104c7565b6040516101bb9190610e1a565b60405180910390f35b6101cc6104eb565b6101e36706f05b59d3b20000821115610258610534565b806001819055507fa9ba3ffe0b6c366b81232caab38605a0699ad5398d6cce76f91ee809e322dafc816040516102199190610e35565b60405180910390a150565b6000600154905090565b6102366104eb565b61024c662386f26fc10000821115610259610534565b806002819055507f5a0b7386237e7f07fa741efc64e59c9387d2cccafec760efed4d53387f20e19a816040516102829190610e35565b60405180910390a150565b610295610547565b61029d6104eb565b6102ad8585905084849050610563565b60005b8585905081101561032f5760008686838181106102c957fe5b90506020020160208101906102de9190610b5a565b905060008585848181106102ee57fe5b90506020020135905061032284828473ffffffffffffffffffffffffffffffffffffffff166105749092919063ffffffff16565b50508060010190506102b0565b506103386105fa565b5050505050565b60007f000000000000000000000000000000000000000000000000000000000000000082604051602001610374929190610d04565b604051602081830303815290604052805190602001209050919050565b600061039b610604565b905090565b6000600254905090565b6060815167ffffffffffffffff811180156103c457600080fd5b506040519080825280602002602001820160405280156103f35781602001602082028036833780820191505090505b50905060005b82518110156104c15782818151811061040e57fe5b602002602001015173ffffffffffffffffffffffffffffffffffffffff166370a08231306040518263ffffffff1660e01b815260040161044e9190610d47565b60206040518083038186803b15801561046657600080fd5b505afa15801561047a573d6000803e3d6000fd5b505050506040513d601f19601f8201168201806040525081019061049e9190610bac565b8282815181106104aa57fe5b6020026020010181815250508060010190506103f9565b50919050565b7f000000000000000000000000000000000000000000000000000000000000000081565b600061051a6000357fffffffff000000000000000000000000000000000000000000000000000000001661033f565b905061053161052982336106a9565b610191610534565b50565b816105435761054281610747565b5b5050565b61055960026000541415610190610534565b6002600081905550565b6105708183146067610534565b5050565b6105f58363a9059cbb60e01b8484604051602401610593929190610d62565b604051602081830303815290604052907bffffffffffffffffffffffffffffffffffffffffffffffffffffffff19166020820180517bffffffffffffffffffffffffffffffffffffffffffffffffffffffff83818316178352505050506107b7565b505050565b6001600081905550565b60007f000000000000000000000000000000000000000000000000000000000000000073ffffffffffffffffffffffffffffffffffffffff1663aaabadc56040518163ffffffff1660e01b815260040160206040518083038186803b15801561066c57600080fd5b505afa158015610680573d6000803e3d6000fd5b505050506040513d601f19601f820116820180604052508101906106a49190610b31565b905090565b60006106b3610604565b73ffffffffffffffffffffffffffffffffffffffff16639be2a8848484306040518463ffffffff1660e01b81526004016106ef93929190610dc8565b60206040518083038186803b15801561070757600080fd5b505afa15801561071b573d6000803e3d6000fd5b505050506040513d601f19601f8201168201806040525081019061073f9190610adf565b905092915050565b6030600a820601600a820491506030600a830601600a830492506030600a8406018060101b8260081b8401016642414c230000000160c81b7f08c379a000000000000000000000000000000000000000000000000000000000600052602060045260076024528060445260646000fd5b600060608373ffffffffffffffffffffffffffffffffffffffff16836040516107e09190610d30565b6000604051808303816000865af19150503d806000811461081d576040519150601f19603f3d011682016040523d82523d6000602084013e610822565b606091505b5091509150600082141561083a573d6000803e3d6000fd5b61086560008251148061085d57508180602001905181019061085c9190610adf565b5b6101a2610534565b50505050565b60008135905061087a8161102f565b92915050565b60008083601f84011261089257600080fd5b8235905067ffffffffffffffff8111156108ab57600080fd5b6020830191508360208202830111156108c357600080fd5b9250929050565b600082601f8301126108db57600080fd5b81356108ee6108e982610e81565b610e50565b9150818183526020840193506020810190508385602084028201111561091357600080fd5b60005b83811015610943578161092988826109d6565b845260208401935060208301925050600181019050610916565b5050505092915050565b60008083601f84011261095f57600080fd5b8235905067ffffffffffffffff81111561097857600080fd5b60208301915083602082028301111561099057600080fd5b9250929050565b6000815190506109a681611046565b92915050565b6000813590506109bb8161105d565b92915050565b6000815190506109d081611074565b92915050565b6000813590506109e58161108b565b92915050565b6000813590506109fa816110a2565b92915050565b600081519050610a0f816110a2565b92915050565b600080600080600060608688031215610a2d57600080fd5b600086013567ffffffffffffffff811115610a4757600080fd5b610a5388828901610880565b9550955050602086013567ffffffffffffffff811115610a7257600080fd5b610a7e8882890161094d565b93509350506040610a918882890161086b565b9150509295509295909350565b600060208284031215610ab057600080fd5b600082013567ffffffffffffffff811115610aca57600080fd5b610ad6848285016108ca565b91505092915050565b600060208284031215610af157600080fd5b6000610aff84828501610997565b91505092915050565b600060208284031215610b1a57600080fd5b6000610b28848285016109ac565b91505092915050565b600060208284031215610b4357600080fd5b6000610b51848285016109c1565b91505092915050565b600060208284031215610b6c57600080fd5b6000610b7a848285016109d6565b91505092915050565b600060208284031215610b9557600080fd5b6000610ba3848285016109eb565b91505092915050565b600060208284031215610bbe57600080fd5b6000610bcc84828501610a00565b91505092915050565b6000610be18383610ce6565b60208301905092915050565b610bf681610efc565b82525050565b6000610c0782610ebd565b610c118185610ee0565b9350610c1c83610ead565b8060005b83811015610c4d578151610c348882610bd5565b9750610c3f83610ed3565b925050600181019050610c20565b5085935050505092915050565b610c6381610f1a565b82525050565b610c7a610c7582610f1a565b611019565b82525050565b610c91610c8c82610f24565b611023565b82525050565b6000610ca282610ec8565b610cac8185610ef1565b9350610cbc818560208601610fe6565b80840191505092915050565b610cd181610f9e565b82525050565b610ce081610fc2565b82525050565b610cef81610f94565b82525050565b610cfe81610f94565b82525050565b6000610d108285610c69565b602082019150610d208284610c80565b6004820191508190509392505050565b6000610d3c8284610c97565b915081905092915050565b6000602082019050610d5c6000830184610bed565b92915050565b6000604082019050610d776000830185610bed565b610d846020830184610cf5565b9392505050565b60006020820190508181036000830152610da58184610bfc565b905092915050565b6000602082019050610dc26000830184610c5a565b92915050565b6000606082019050610ddd6000830186610c5a565b610dea6020830185610bed565b610df76040830184610bed565b949350505050565b6000602082019050610e146000830184610cc8565b92915050565b6000602082019050610e2f6000830184610cd7565b92915050565b6000602082019050610e4a6000830184610cf5565b92915050565b6000604051905081810181811067ffffffffffffffff82111715610e7757610e7661102d565b5b8060405250919050565b600067ffffffffffffffff821115610e9c57610e9b61102d565b5b602082029050602081019050919050565b6000819050602082019050919050565b600081519050919050565b600081519050919050565b6000602082019050919050565b600082825260208201905092915050565b600081905092915050565b6000610f0782610f74565b9050919050565b60008115159050919050565b6000819050919050565b60007fffffffff0000000000000000000000000000000000000000000000000000000082169050919050565b6000610f5b82610efc565b9050919050565b6000610f6d82610efc565b9050919050565b600073ffffffffffffffffffffffffffffffffffffffff82169050919050565b6000819050919050565b6000610fa982610fb0565b9050919050565b6000610fbb82610f74565b9050919050565b6000610fcd82610fd4565b9050919050565b6000610fdf82610f74565b9050919050565b60005b83811015611004578082015181840152602081019050610fe9565b83811115611013576000848401525b50505050565b6000819050919050565b6000819050919050565bfe5b61103881610efc565b811461104357600080fd5b50565b61104f81610f0e565b811461105a57600080fd5b50565b61106681610f24565b811461107157600080fd5b50565b61107d81610f50565b811461108857600080fd5b50565b61109481610f62565b811461109f57600080fd5b50565b6110ab81610f94565b81146110b657600080fd5b5056fea26469706673582212201a3f969ebe31d818a316e2414d0db10be814a896c34400a6862eaac0a01a013164736f6c63430007030033",
  "linkReferences": {},
  "deployedLinkReferences": {}
}